{
	"Employee.sol": {
		"Employee": {
			"abi": [
				{
					"inputs": [
						{
							"internalType": "string",
							"name": "_name",
							"type": "string"
						},
						{
							"internalType": "address",
							"name": "_withdrawAddress",
							"type": "address"
						},
						{
							"internalType": "string",
							"name": "_profession",
							"type": "string"
						},
						{
							"internalType": "string",
							"name": "_schedule",
							"type": "string"
						},
						{
							"internalType": "uint256",
							"name": "_salary",
							"type": "uint256"
						}
					],
					"stateMutability": "nonpayable",
					"type": "constructor"
				},
				{
					"anonymous": false,
					"inputs": [
						{
							"indexed": false,
							"internalType": "uint256",
							"name": "amount",
							"type": "uint256"
						},
						{
							"indexed": false,
							"internalType": "address",
							"name": "tenantAddress",
							"type": "address"
						},
						{
							"indexed": false,
							"internalType": "uint256",
							"name": "balance",
							"type": "uint256"
						}
					],
					"name": "EtherReceived",
					"type": "event"
				},
				{
					"anonymous": false,
					"inputs": [
						{
							"indexed": false,
							"internalType": "bool",
							"name": "success",
							"type": "bool"
						},
						{
							"indexed": false,
							"internalType": "uint256",
							"name": "addressBalance",
							"type": "uint256"
						}
					],
					"name": "WithdrawalSuccess",
					"type": "event"
				},
				{
					"stateMutability": "payable",
					"type": "fallback"
				},
				{
					"inputs": [],
					"name": "getAddress",
					"outputs": [
						{
							"internalType": "address",
							"name": "",
							"type": "address"
						}
					],
					"stateMutability": "view",
					"type": "function"
				},
				{
					"inputs": [],
					"name": "getSalary",
					"outputs": [
						{
							"internalType": "uint256",
							"name": "",
							"type": "uint256"
						}
					],
					"stateMutability": "view",
					"type": "function"
				},
				{
					"inputs": [],
					"name": "showUserBalance",
					"outputs": [
						{
							"internalType": "uint256",
							"name": "",
							"type": "uint256"
						}
					],
					"stateMutability": "view",
					"type": "function"
				},
				{
					"inputs": [
						{
							"internalType": "uint256",
							"name": "_amount",
							"type": "uint256"
						}
					],
					"name": "withdrawal",
					"outputs": [],
					"stateMutability": "nonpayable",
					"type": "function"
				},
				{
					"stateMutability": "payable",
					"type": "receive"
				}
			],
			"devdoc": {
				"kind": "dev",
				"methods": {},
				"version": 1
			},
			"evm": {
				"assembly": "    /* \"Employee.sol\":88:973  contract Employee is BaseUser {... */\n  mstore(0x40, 0xa0)\n    /* \"Employee.sol\":304:699  constructor (... */\n  callvalue\n  dup1\n  iszero\n  tag_1\n  jumpi\n  0x00\n  dup1\n  revert\ntag_1:\n  pop\n  mload(0x40)\n  sub(codesize, bytecodeSize)\n  dup1\n  bytecodeSize\n  dup4\n  codecopy\n  dup2\n  dup2\n  add\n  0x40\n  mstore\n  dup2\n  add\n  swap1\n  tag_2\n  swap2\n  swap1\n  tag_3\n  jump\t// in\ntag_2:\n    /* \"Employee.sol\":573:578  _name */\n  dup5\n    /* \"Employee.sol\":580:596  _withdrawAddress */\n  dup5\n    /* \"BaseUser.sol\":699:704  _name */\n  dup2\n    /* \"BaseUser.sol\":692:696  name */\n  0x00\n    /* \"BaseUser.sol\":692:704  name = _name */\n  swap1\n  dup2\n  tag_7\n  swap2\n  swap1\n  tag_8\n  jump\t// in\ntag_7:\n  pop\n    /* \"BaseUser.sol\":733:749  _withdrawAddress */\n  dup1\n    /* \"BaseUser.sol\":715:730  withdrawAddress */\n  0x01\n  0x00\n    /* \"BaseUser.sol\":715:749  withdrawAddress = _withdrawAddress */\n  0x0100\n  exp\n  dup2\n  sload\n  dup2\n  0xffffffffffffffffffffffffffffffffffffffff\n  mul\n  not\n  and\n  swap1\n  dup4\n  0xffffffffffffffffffffffffffffffffffffffff\n  and\n  mul\n  or\n  swap1\n  sstore\n  pop\n    /* \"BaseUser.sol\":619:757  constructor (string memory _name, address _withdrawAddress)   {... */\n  pop\n  pop\n    /* \"Employee.sol\":622:633  _profession */\n  dup3\n    /* \"Employee.sol\":609:619  profession */\n  0x02\n    /* \"Employee.sol\":609:633  profession = _profession */\n  swap1\n  dup2\n  tag_10\n  swap2\n  swap1\n  tag_8\n  jump\t// in\ntag_10:\n  pop\n    /* \"Employee.sol\":655:664  _schedule */\n  dup2\n    /* \"Employee.sol\":644:652  schedule */\n  0x03\n    /* \"Employee.sol\":644:664  schedule = _schedule */\n  swap1\n  dup2\n  tag_11\n  swap2\n  swap1\n  tag_8\n  jump\t// in\ntag_11:\n  pop\n    /* \"Employee.sol\":684:691  _salary */\n  dup1\n    /* \"Employee.sol\":675:691  salary = _salary */\n  0x80\n  dup2\n  dup2\n  mstore\n  pop\n  pop\n    /* \"Employee.sol\":304:699  constructor (... */\n  pop\n  pop\n  pop\n  pop\n  pop\n    /* \"Employee.sol\":88:973  contract Employee is BaseUser {... */\n  jump(tag_12)\n    /* \"#utility.yul\":7:82   */\ntag_13:\n    /* \"#utility.yul\":40:46   */\n  0x00\n    /* \"#utility.yul\":73:75   */\n  0x40\n    /* \"#utility.yul\":67:76   */\n  mload\n    /* \"#utility.yul\":57:76   */\n  swap1\n  pop\n    /* \"#utility.yul\":7:82   */\n  swap1\n  jump\t// out\n    /* \"#utility.yul\":88:205   */\ntag_14:\n    /* \"#utility.yul\":197:198   */\n  0x00\n    /* \"#utility.yul\":194:195   */\n  dup1\n    /* \"#utility.yul\":187:199   */\n  revert\n    /* \"#utility.yul\":211:328   */\ntag_15:\n    /* \"#utility.yul\":320:321   */\n  0x00\n    /* \"#utility.yul\":317:318   */\n  dup1\n    /* \"#utility.yul\":310:322   */\n  revert\n    /* \"#utility.yul\":334:451   */\ntag_16:\n    /* \"#utility.yul\":443:444   */\n  0x00\n    /* \"#utility.yul\":440:441   */\n  dup1\n    /* \"#utility.yul\":433:445   */\n  revert\n    /* \"#utility.yul\":457:574   */\ntag_17:\n    /* \"#utility.yul\":566:567   */\n  0x00\n    /* \"#utility.yul\":563:564   */\n  dup1\n    /* \"#utility.yul\":556:568   */\n  revert\n    /* \"#utility.yul\":580:682   */\ntag_18:\n    /* \"#utility.yul\":621:627   */\n  0x00\n    /* \"#utility.yul\":672:674   */\n  0x1f\n    /* \"#utility.yul\":668:675   */\n  not\n    /* \"#utility.yul\":663:665   */\n  0x1f\n    /* \"#utility.yul\":656:661   */\n  dup4\n    /* \"#utility.yul\":652:666   */\n  add\n    /* \"#utility.yul\":648:676   */\n  and\n    /* \"#utility.yul\":638:676   */\n  swap1\n  pop\n    /* \"#utility.yul\":580:682   */\n  swap2\n  swap1\n  pop\n  jump\t// out\n    /* \"#utility.yul\":688:868   */\ntag_19:\n    /* \"#utility.yul\":736:813   */\n  0x4e487b7100000000000000000000000000000000000000000000000000000000\n    /* \"#utility.yul\":733:734   */\n  0x00\n    /* \"#utility.yul\":726:814   */\n  mstore\n    /* \"#utility.yul\":833:837   */\n  0x41\n    /* \"#utility.yul\":830:831   */\n  0x04\n    /* \"#utility.yul\":823:838   */\n  mstore\n    /* \"#utility.yul\":857:861   */\n  0x24\n    /* \"#utility.yul\":854:855   */\n  0x00\n    /* \"#utility.yul\":847:862   */\n  revert\n    /* \"#utility.yul\":874:1155   */\ntag_20:\n    /* \"#utility.yul\":957:984   */\n  tag_60\n    /* \"#utility.yul\":979:983   */\n  dup3\n    /* \"#utility.yul\":957:984   */\n  tag_18\n  jump\t// in\ntag_60:\n    /* \"#utility.yul\":949:955   */\n  dup2\n    /* \"#utility.yul\":945:985   */\n  add\n    /* \"#utility.yul\":1087:1093   */\n  dup2\n    /* \"#utility.yul\":1075:1085   */\n  dup2\n    /* \"#utility.yul\":1072:1094   */\n  lt\n    /* \"#utility.yul\":1051:1069   */\n  0xffffffffffffffff\n    /* \"#utility.yul\":1039:1049   */\n  dup3\n    /* \"#utility.yul\":1036:1070   */\n  gt\n    /* \"#utility.yul\":1033:1095   */\n  or\n    /* \"#utility.yul\":1030:1118   */\n  iszero\n  tag_61\n  jumpi\n    /* \"#utility.yul\":1098:1116   */\n  tag_62\n  tag_19\n  jump\t// in\ntag_62:\n    /* \"#utility.yul\":1030:1118   */\ntag_61:\n    /* \"#utility.yul\":1138:1148   */\n  dup1\n    /* \"#utility.yul\":1134:1136   */\n  0x40\n    /* \"#utility.yul\":1127:1149   */\n  mstore\n    /* \"#utility.yul\":917:1155   */\n  pop\n    /* \"#utility.yul\":874:1155   */\n  pop\n  pop\n  jump\t// out\n    /* \"#utility.yul\":1161:1290   */\ntag_21:\n    /* \"#utility.yul\":1195:1201   */\n  0x00\n    /* \"#utility.yul\":1222:1242   */\n  tag_64\n  tag_13\n  jump\t// in\ntag_64:\n    /* \"#utility.yul\":1212:1242   */\n  swap1\n  pop\n    /* \"#utility.yul\":1251:1284   */\n  tag_65\n    /* \"#utility.yul\":1279:1283   */\n  dup3\n    /* \"#utility.yul\":1271:1277   */\n  dup3\n    /* \"#utility.yul\":1251:1284   */\n  tag_20\n  jump\t// in\ntag_65:\n    /* \"#utility.yul\":1161:1290   */\n  swap2\n  swap1\n  pop\n  jump\t// out\n    /* \"#utility.yul\":1296:1604   */\ntag_22:\n    /* \"#utility.yul\":1358:1362   */\n  0x00\n    /* \"#utility.yul\":1448:1466   */\n  0xffffffffffffffff\n    /* \"#utility.yul\":1440:1446   */\n  dup3\n    /* \"#utility.yul\":1437:1467   */\n  gt\n    /* \"#utility.yul\":1434:1490   */\n  iszero\n  tag_67\n  jumpi\n    /* \"#utility.yul\":1470:1488   */\n  tag_68\n  tag_19\n  jump\t// in\ntag_68:\n    /* \"#utility.yul\":1434:1490   */\ntag_67:\n    /* \"#utility.yul\":1508:1537   */\n  tag_69\n    /* \"#utility.yul\":1530:1536   */\n  dup3\n    /* \"#utility.yul\":1508:1537   */\n  tag_18\n  jump\t// in\ntag_69:\n    /* \"#utility.yul\":1500:1537   */\n  swap1\n  pop\n    /* \"#utility.yul\":1592:1596   */\n  0x20\n    /* \"#utility.yul\":1586:1590   */\n  dup2\n    /* \"#utility.yul\":1582:1597   */\n  add\n    /* \"#utility.yul\":1574:1597   */\n  swap1\n  pop\n    /* \"#utility.yul\":1296:1604   */\n  swap2\n  swap1\n  pop\n  jump\t// out\n    /* \"#utility.yul\":1610:1856   */\ntag_23:\n    /* \"#utility.yul\":1691:1692   */\n  0x00\n    /* \"#utility.yul\":1701:1814   */\ntag_71:\n    /* \"#utility.yul\":1715:1721   */\n  dup4\n    /* \"#utility.yul\":1712:1713   */\n  dup2\n    /* \"#utility.yul\":1709:1722   */\n  lt\n    /* \"#utility.yul\":1701:1814   */\n  iszero\n  tag_73\n  jumpi\n    /* \"#utility.yul\":1800:1801   */\n  dup1\n    /* \"#utility.yul\":1795:1798   */\n  dup3\n    /* \"#utility.yul\":1791:1802   */\n  add\n    /* \"#utility.yul\":1785:1803   */\n  mload\n    /* \"#utility.yul\":1781:1782   */\n  dup2\n    /* \"#utility.yul\":1776:1779   */\n  dup5\n    /* \"#utility.yul\":1772:1783   */\n  add\n    /* \"#utility.yul\":1765:1804   */\n  mstore\n    /* \"#utility.yul\":1737:1739   */\n  0x20\n    /* \"#utility.yul\":1734:1735   */\n  dup2\n    /* \"#utility.yul\":1730:1740   */\n  add\n    /* \"#utility.yul\":1725:1740   */\n  swap1\n  pop\n    /* \"#utility.yul\":1701:1814   */\n  jump(tag_71)\ntag_73:\n    /* \"#utility.yul\":1848:1849   */\n  0x00\n    /* \"#utility.yul\":1839:1845   */\n  dup5\n    /* \"#utility.yul\":1834:1837   */\n  dup5\n    /* \"#utility.yul\":1830:1846   */\n  add\n    /* \"#utility.yul\":1823:1850   */\n  mstore\n    /* \"#utility.yul\":1672:1856   */\n  pop\n    /* \"#utility.yul\":1610:1856   */\n  pop\n  pop\n  pop\n  jump\t// out\n    /* \"#utility.yul\":1862:2296   */\ntag_24:\n    /* \"#utility.yul\":1951:1956   */\n  0x00\n    /* \"#utility.yul\":1976:2042   */\n  tag_75\n    /* \"#utility.yul\":1992:2041   */\n  tag_76\n    /* \"#utility.yul\":2034:2040   */\n  dup5\n    /* \"#utility.yul\":1992:2041   */\n  tag_22\n  jump\t// in\ntag_76:\n    /* \"#utility.yul\":1976:2042   */\n  tag_21\n  jump\t// in\ntag_75:\n    /* \"#utility.yul\":1967:2042   */\n  swap1\n  pop\n    /* \"#utility.yul\":2065:2071   */\n  dup3\n    /* \"#utility.yul\":2058:2063   */\n  dup2\n    /* \"#utility.yul\":2051:2072   */\n  mstore\n    /* \"#utility.yul\":2103:2107   */\n  0x20\n    /* \"#utility.yul\":2096:2101   */\n  dup2\n    /* \"#utility.yul\":2092:2108   */\n  add\n    /* \"#utility.yul\":2141:2144   */\n  dup5\n    /* \"#utility.yul\":2132:2138   */\n  dup5\n    /* \"#utility.yul\":2127:2130   */\n  dup5\n    /* \"#utility.yul\":2123:2139   */\n  add\n    /* \"#utility.yul\":2120:2145   */\n  gt\n    /* \"#utility.yul\":2117:2229   */\n  iszero\n  tag_77\n  jumpi\n    /* \"#utility.yul\":2148:2227   */\n  tag_78\n  tag_17\n  jump\t// in\ntag_78:\n    /* \"#utility.yul\":2117:2229   */\ntag_77:\n    /* \"#utility.yul\":2238:2290   */\n  tag_79\n    /* \"#utility.yul\":2283:2289   */\n  dup5\n    /* \"#utility.yul\":2278:2281   */\n  dup3\n    /* \"#utility.yul\":2273:2276   */\n  dup6\n    /* \"#utility.yul\":2238:2290   */\n  tag_23\n  jump\t// in\ntag_79:\n    /* \"#utility.yul\":1957:2296   */\n  pop\n    /* \"#utility.yul\":1862:2296   */\n  swap4\n  swap3\n  pop\n  pop\n  pop\n  jump\t// out\n    /* \"#utility.yul\":2316:2671   */\ntag_25:\n    /* \"#utility.yul\":2383:2388   */\n  0x00\n    /* \"#utility.yul\":2432:2435   */\n  dup3\n    /* \"#utility.yul\":2425:2429   */\n  0x1f\n    /* \"#utility.yul\":2417:2423   */\n  dup4\n    /* \"#utility.yul\":2413:2430   */\n  add\n    /* \"#utility.yul\":2409:2436   */\n  slt\n    /* \"#utility.yul\":2399:2521   */\n  tag_81\n  jumpi\n    /* \"#utility.yul\":2440:2519   */\n  tag_82\n  tag_16\n  jump\t// in\ntag_82:\n    /* \"#utility.yul\":2399:2521   */\ntag_81:\n    /* \"#utility.yul\":2550:2556   */\n  dup2\n    /* \"#utility.yul\":2544:2557   */\n  mload\n    /* \"#utility.yul\":2575:2665   */\n  tag_83\n    /* \"#utility.yul\":2661:2664   */\n  dup5\n    /* \"#utility.yul\":2653:2659   */\n  dup3\n    /* \"#utility.yul\":2646:2650   */\n  0x20\n    /* \"#utility.yul\":2638:2644   */\n  dup7\n    /* \"#utility.yul\":2634:2651   */\n  add\n    /* \"#utility.yul\":2575:2665   */\n  tag_24\n  jump\t// in\ntag_83:\n    /* \"#utility.yul\":2566:2665   */\n  swap2\n  pop\n    /* \"#utility.yul\":2389:2671   */\n  pop\n    /* \"#utility.yul\":2316:2671   */\n  swap3\n  swap2\n  pop\n  pop\n  jump\t// out\n    /* \"#utility.yul\":2677:2803   */\ntag_26:\n    /* \"#utility.yul\":2714:2721   */\n  0x00\n    /* \"#utility.yul\":2754:2796   */\n  0xffffffffffffffffffffffffffffffffffffffff\n    /* \"#utility.yul\":2747:2752   */\n  dup3\n    /* \"#utility.yul\":2743:2797   */\n  and\n    /* \"#utility.yul\":2732:2797   */\n  swap1\n  pop\n    /* \"#utility.yul\":2677:2803   */\n  swap2\n  swap1\n  pop\n  jump\t// out\n    /* \"#utility.yul\":2809:2905   */\ntag_27:\n    /* \"#utility.yul\":2846:2853   */\n  0x00\n    /* \"#utility.yul\":2875:2899   */\n  tag_86\n    /* \"#utility.yul\":2893:2898   */\n  dup3\n    /* \"#utility.yul\":2875:2899   */\n  tag_26\n  jump\t// in\ntag_86:\n    /* \"#utility.yul\":2864:2899   */\n  swap1\n  pop\n    /* \"#utility.yul\":2809:2905   */\n  swap2\n  swap1\n  pop\n  jump\t// out\n    /* \"#utility.yul\":2911:3033   */\ntag_28:\n    /* \"#utility.yul\":2984:3008   */\n  tag_88\n    /* \"#utility.yul\":3002:3007   */\n  dup2\n    /* \"#utility.yul\":2984:3008   */\n  tag_27\n  jump\t// in\ntag_88:\n    /* \"#utility.yul\":2977:2982   */\n  dup2\n    /* \"#utility.yul\":2974:3009   */\n  eq\n    /* \"#utility.yul\":2964:3027   */\n  tag_89\n  jumpi\n    /* \"#utility.yul\":3023:3024   */\n  0x00\n    /* \"#utility.yul\":3020:3021   */\n  dup1\n    /* \"#utility.yul\":3013:3025   */\n  revert\n    /* \"#utility.yul\":2964:3027   */\ntag_89:\n    /* \"#utility.yul\":2911:3033   */\n  pop\n  jump\t// out\n    /* \"#utility.yul\":3039:3182   */\ntag_29:\n    /* \"#utility.yul\":3096:3101   */\n  0x00\n    /* \"#utility.yul\":3127:3133   */\n  dup2\n    /* \"#utility.yul\":3121:3134   */\n  mload\n    /* \"#utility.yul\":3112:3134   */\n  swap1\n  pop\n    /* \"#utility.yul\":3143:3176   */\n  tag_91\n    /* \"#utility.yul\":3170:3175   */\n  dup2\n    /* \"#utility.yul\":3143:3176   */\n  tag_28\n  jump\t// in\ntag_91:\n    /* \"#utility.yul\":3039:3182   */\n  swap3\n  swap2\n  pop\n  pop\n  jump\t// out\n    /* \"#utility.yul\":3188:3265   */\ntag_30:\n    /* \"#utility.yul\":3225:3232   */\n  0x00\n    /* \"#utility.yul\":3254:3259   */\n  dup2\n    /* \"#utility.yul\":3243:3259   */\n  swap1\n  pop\n    /* \"#utility.yul\":3188:3265   */\n  swap2\n  swap1\n  pop\n  jump\t// out\n    /* \"#utility.yul\":3271:3393   */\ntag_31:\n    /* \"#utility.yul\":3344:3368   */\n  tag_94\n    /* \"#utility.yul\":3362:3367   */\n  dup2\n    /* \"#utility.yul\":3344:3368   */\n  tag_30\n  jump\t// in\ntag_94:\n    /* \"#utility.yul\":3337:3342   */\n  dup2\n    /* \"#utility.yul\":3334:3369   */\n  eq\n    /* \"#utility.yul\":3324:3387   */\n  tag_95\n  jumpi\n    /* \"#utility.yul\":3383:3384   */\n  0x00\n    /* \"#utility.yul\":3380:3381   */\n  dup1\n    /* \"#utility.yul\":3373:3385   */\n  revert\n    /* \"#utility.yul\":3324:3387   */\ntag_95:\n    /* \"#utility.yul\":3271:3393   */\n  pop\n  jump\t// out\n    /* \"#utility.yul\":3399:3542   */\ntag_32:\n    /* \"#utility.yul\":3456:3461   */\n  0x00\n    /* \"#utility.yul\":3487:3493   */\n  dup2\n    /* \"#utility.yul\":3481:3494   */\n  mload\n    /* \"#utility.yul\":3472:3494   */\n  swap1\n  pop\n    /* \"#utility.yul\":3503:3536   */\n  tag_97\n    /* \"#utility.yul\":3530:3535   */\n  dup2\n    /* \"#utility.yul\":3503:3536   */\n  tag_31\n  jump\t// in\ntag_97:\n    /* \"#utility.yul\":3399:3542   */\n  swap3\n  swap2\n  pop\n  pop\n  jump\t// out\n    /* \"#utility.yul\":3548:5044   */\ntag_3:\n    /* \"#utility.yul\":3684:3690   */\n  0x00\n    /* \"#utility.yul\":3692:3698   */\n  dup1\n    /* \"#utility.yul\":3700:3706   */\n  0x00\n    /* \"#utility.yul\":3708:3714   */\n  dup1\n    /* \"#utility.yul\":3716:3722   */\n  0x00\n    /* \"#utility.yul\":3765:3768   */\n  0xa0\n    /* \"#utility.yul\":3753:3762   */\n  dup7\n    /* \"#utility.yul\":3744:3751   */\n  dup9\n    /* \"#utility.yul\":3740:3763   */\n  sub\n    /* \"#utility.yul\":3736:3769   */\n  slt\n    /* \"#utility.yul\":3733:3853   */\n  iszero\n  tag_99\n  jumpi\n    /* \"#utility.yul\":3772:3851   */\n  tag_100\n  tag_14\n  jump\t// in\ntag_100:\n    /* \"#utility.yul\":3733:3853   */\ntag_99:\n    /* \"#utility.yul\":3913:3914   */\n  0x00\n    /* \"#utility.yul\":3902:3911   */\n  dup7\n    /* \"#utility.yul\":3898:3915   */\n  add\n    /* \"#utility.yul\":3892:3916   */\n  mload\n    /* \"#utility.yul\":3943:3961   */\n  0xffffffffffffffff\n    /* \"#utility.yul\":3935:3941   */\n  dup2\n    /* \"#utility.yul\":3932:3962   */\n  gt\n    /* \"#utility.yul\":3929:4046   */\n  iszero\n  tag_101\n  jumpi\n    /* \"#utility.yul\":3965:4044   */\n  tag_102\n  tag_15\n  jump\t// in\ntag_102:\n    /* \"#utility.yul\":3929:4046   */\ntag_101:\n    /* \"#utility.yul\":4070:4144   */\n  tag_103\n    /* \"#utility.yul\":4136:4143   */\n  dup9\n    /* \"#utility.yul\":4127:4133   */\n  dup3\n    /* \"#utility.yul\":4116:4125   */\n  dup10\n    /* \"#utility.yul\":4112:4134   */\n  add\n    /* \"#utility.yul\":4070:4144   */\n  tag_25\n  jump\t// in\ntag_103:\n    /* \"#utility.yul\":4060:4144   */\n  swap6\n  pop\n    /* \"#utility.yul\":3863:4154   */\n  pop\n    /* \"#utility.yul\":4193:4195   */\n  0x20\n    /* \"#utility.yul\":4219:4283   */\n  tag_104\n    /* \"#utility.yul\":4275:4282   */\n  dup9\n    /* \"#utility.yul\":4266:4272   */\n  dup3\n    /* \"#utility.yul\":4255:4264   */\n  dup10\n    /* \"#utility.yul\":4251:4273   */\n  add\n    /* \"#utility.yul\":4219:4283   */\n  tag_29\n  jump\t// in\ntag_104:\n    /* \"#utility.yul\":4209:4283   */\n  swap5\n  pop\n    /* \"#utility.yul\":4164:4293   */\n  pop\n    /* \"#utility.yul\":4353:4355   */\n  0x40\n    /* \"#utility.yul\":4342:4351   */\n  dup7\n    /* \"#utility.yul\":4338:4356   */\n  add\n    /* \"#utility.yul\":4332:4357   */\n  mload\n    /* \"#utility.yul\":4384:4402   */\n  0xffffffffffffffff\n    /* \"#utility.yul\":4376:4382   */\n  dup2\n    /* \"#utility.yul\":4373:4403   */\n  gt\n    /* \"#utility.yul\":4370:4487   */\n  iszero\n  tag_105\n  jumpi\n    /* \"#utility.yul\":4406:4485   */\n  tag_106\n  tag_15\n  jump\t// in\ntag_106:\n    /* \"#utility.yul\":4370:4487   */\ntag_105:\n    /* \"#utility.yul\":4511:4585   */\n  tag_107\n    /* \"#utility.yul\":4577:4584   */\n  dup9\n    /* \"#utility.yul\":4568:4574   */\n  dup3\n    /* \"#utility.yul\":4557:4566   */\n  dup10\n    /* \"#utility.yul\":4553:4575   */\n  add\n    /* \"#utility.yul\":4511:4585   */\n  tag_25\n  jump\t// in\ntag_107:\n    /* \"#utility.yul\":4501:4585   */\n  swap4\n  pop\n    /* \"#utility.yul\":4303:4595   */\n  pop\n    /* \"#utility.yul\":4655:4657   */\n  0x60\n    /* \"#utility.yul\":4644:4653   */\n  dup7\n    /* \"#utility.yul\":4640:4658   */\n  add\n    /* \"#utility.yul\":4634:4659   */\n  mload\n    /* \"#utility.yul\":4686:4704   */\n  0xffffffffffffffff\n    /* \"#utility.yul\":4678:4684   */\n  dup2\n    /* \"#utility.yul\":4675:4705   */\n  gt\n    /* \"#utility.yul\":4672:4789   */\n  iszero\n  tag_108\n  jumpi\n    /* \"#utility.yul\":4708:4787   */\n  tag_109\n  tag_15\n  jump\t// in\ntag_109:\n    /* \"#utility.yul\":4672:4789   */\ntag_108:\n    /* \"#utility.yul\":4813:4887   */\n  tag_110\n    /* \"#utility.yul\":4879:4886   */\n  dup9\n    /* \"#utility.yul\":4870:4876   */\n  dup3\n    /* \"#utility.yul\":4859:4868   */\n  dup10\n    /* \"#utility.yul\":4855:4877   */\n  add\n    /* \"#utility.yul\":4813:4887   */\n  tag_25\n  jump\t// in\ntag_110:\n    /* \"#utility.yul\":4803:4887   */\n  swap3\n  pop\n    /* \"#utility.yul\":4605:4897   */\n  pop\n    /* \"#utility.yul\":4936:4939   */\n  0x80\n    /* \"#utility.yul\":4963:5027   */\n  tag_111\n    /* \"#utility.yul\":5019:5026   */\n  dup9\n    /* \"#utility.yul\":5010:5016   */\n  dup3\n    /* \"#utility.yul\":4999:5008   */\n  dup10\n    /* \"#utility.yul\":4995:5017   */\n  add\n    /* \"#utility.yul\":4963:5027   */\n  tag_32\n  jump\t// in\ntag_111:\n    /* \"#utility.yul\":4953:5027   */\n  swap2\n  pop\n    /* \"#utility.yul\":4907:5037   */\n  pop\n    /* \"#utility.yul\":3548:5044   */\n  swap3\n  swap6\n  pop\n  swap3\n  swap6\n  swap1\n  swap4\n  pop\n  jump\t// out\n    /* \"#utility.yul\":5050:5149   */\ntag_33:\n    /* \"#utility.yul\":5102:5108   */\n  0x00\n    /* \"#utility.yul\":5136:5141   */\n  dup2\n    /* \"#utility.yul\":5130:5142   */\n  mload\n    /* \"#utility.yul\":5120:5142   */\n  swap1\n  pop\n    /* \"#utility.yul\":5050:5149   */\n  swap2\n  swap1\n  pop\n  jump\t// out\n    /* \"#utility.yul\":5155:5335   */\ntag_34:\n    /* \"#utility.yul\":5203:5280   */\n  0x4e487b7100000000000000000000000000000000000000000000000000000000\n    /* \"#utility.yul\":5200:5201   */\n  0x00\n    /* \"#utility.yul\":5193:5281   */\n  mstore\n    /* \"#utility.yul\":5300:5304   */\n  0x22\n    /* \"#utility.yul\":5297:5298   */\n  0x04\n    /* \"#utility.yul\":5290:5305   */\n  mstore\n    /* \"#utility.yul\":5324:5328   */\n  0x24\n    /* \"#utility.yul\":5321:5322   */\n  0x00\n    /* \"#utility.yul\":5314:5329   */\n  revert\n    /* \"#utility.yul\":5341:5661   */\ntag_35:\n    /* \"#utility.yul\":5385:5391   */\n  0x00\n    /* \"#utility.yul\":5422:5423   */\n  0x02\n    /* \"#utility.yul\":5416:5420   */\n  dup3\n    /* \"#utility.yul\":5412:5424   */\n  div\n    /* \"#utility.yul\":5402:5424   */\n  swap1\n  pop\n    /* \"#utility.yul\":5469:5470   */\n  0x01\n    /* \"#utility.yul\":5463:5467   */\n  dup3\n    /* \"#utility.yul\":5459:5471   */\n  and\n    /* \"#utility.yul\":5490:5508   */\n  dup1\n    /* \"#utility.yul\":5480:5561   */\n  tag_115\n  jumpi\n    /* \"#utility.yul\":5546:5550   */\n  0x7f\n    /* \"#utility.yul\":5538:5544   */\n  dup3\n    /* \"#utility.yul\":5534:5551   */\n  and\n    /* \"#utility.yul\":5524:5551   */\n  swap2\n  pop\n    /* \"#utility.yul\":5480:5561   */\ntag_115:\n    /* \"#utility.yul\":5608:5610   */\n  0x20\n    /* \"#utility.yul\":5600:5606   */\n  dup3\n    /* \"#utility.yul\":5597:5611   */\n  lt\n    /* \"#utility.yul\":5577:5595   */\n  dup2\n    /* \"#utility.yul\":5574:5612   */\n  sub\n    /* \"#utility.yul\":5571:5655   */\n  tag_116\n  jumpi\n    /* \"#utility.yul\":5627:5645   */\n  tag_117\n  tag_34\n  jump\t// in\ntag_117:\n    /* \"#utility.yul\":5571:5655   */\ntag_116:\n    /* \"#utility.yul\":5392:5661   */\n  pop\n    /* \"#utility.yul\":5341:5661   */\n  swap2\n  swap1\n  pop\n  jump\t// out\n    /* \"#utility.yul\":5667:5808   */\ntag_36:\n    /* \"#utility.yul\":5716:5720   */\n  0x00\n    /* \"#utility.yul\":5739:5742   */\n  dup2\n    /* \"#utility.yul\":5731:5742   */\n  swap1\n  pop\n    /* \"#utility.yul\":5762:5765   */\n  dup2\n    /* \"#utility.yul\":5759:5760   */\n  0x00\n    /* \"#utility.yul\":5752:5766   */\n  mstore\n    /* \"#utility.yul\":5796:5800   */\n  0x20\n    /* \"#utility.yul\":5793:5794   */\n  0x00\n    /* \"#utility.yul\":5783:5801   */\n  keccak256\n    /* \"#utility.yul\":5775:5801   */\n  swap1\n  pop\n    /* \"#utility.yul\":5667:5808   */\n  swap2\n  swap1\n  pop\n  jump\t// out\n    /* \"#utility.yul\":5814:5907   */\ntag_37:\n    /* \"#utility.yul\":5851:5857   */\n  0x00\n    /* \"#utility.yul\":5898:5900   */\n  0x20\n    /* \"#utility.yul\":5893:5895   */\n  0x1f\n    /* \"#utility.yul\":5886:5891   */\n  dup4\n    /* \"#utility.yul\":5882:5896   */\n  add\n    /* \"#utility.yul\":5878:5901   */\n  div\n    /* \"#utility.yul\":5868:5901   */\n  swap1\n  pop\n    /* \"#utility.yul\":5814:5907   */\n  swap2\n  swap1\n  pop\n  jump\t// out\n    /* \"#utility.yul\":5913:6020   */\ntag_38:\n    /* \"#utility.yul\":5957:5965   */\n  0x00\n    /* \"#utility.yul\":6007:6012   */\n  dup3\n    /* \"#utility.yul\":6001:6005   */\n  dup3\n    /* \"#utility.yul\":5997:6013   */\n  shl\n    /* \"#utility.yul\":5976:6013   */\n  swap1\n  pop\n    /* \"#utility.yul\":5913:6020   */\n  swap3\n  swap2\n  pop\n  pop\n  jump\t// out\n    /* \"#utility.yul\":6026:6419   */\ntag_39:\n    /* \"#utility.yul\":6095:6101   */\n  0x00\n    /* \"#utility.yul\":6145:6146   */\n  0x08\n    /* \"#utility.yul\":6133:6143   */\n  dup4\n    /* \"#utility.yul\":6129:6147   */\n  mul\n    /* \"#utility.yul\":6168:6265   */\n  tag_122\n    /* \"#utility.yul\":6198:6264   */\n  0xffffffffffffffffffffffffffffffffffffffffffffffffffffffffffffffff\n    /* \"#utility.yul\":6187:6196   */\n  dup3\n    /* \"#utility.yul\":6168:6265   */\n  tag_38\n  jump\t// in\ntag_122:\n    /* \"#utility.yul\":6286:6325   */\n  tag_123\n    /* \"#utility.yul\":6316:6324   */\n  dup7\n    /* \"#utility.yul\":6305:6314   */\n  dup4\n    /* \"#utility.yul\":6286:6325   */\n  tag_38\n  jump\t// in\ntag_123:\n    /* \"#utility.yul\":6274:6325   */\n  swap6\n  pop\n    /* \"#utility.yul\":6358:6362   */\n  dup1\n    /* \"#utility.yul\":6354:6363   */\n  not\n    /* \"#utility.yul\":6347:6352   */\n  dup5\n    /* \"#utility.yul\":6343:6364   */\n  and\n    /* \"#utility.yul\":6334:6364   */\n  swap4\n  pop\n    /* \"#utility.yul\":6407:6411   */\n  dup1\n    /* \"#utility.yul\":6397:6405   */\n  dup7\n    /* \"#utility.yul\":6393:6412   */\n  and\n    /* \"#utility.yul\":6386:6391   */\n  dup5\n    /* \"#utility.yul\":6383:6413   */\n  or\n    /* \"#utility.yul\":6373:6413   */\n  swap3\n  pop\n    /* \"#utility.yul\":6102:6419   */\n  pop\n  pop\n    /* \"#utility.yul\":6026:6419   */\n  swap4\n  swap3\n  pop\n  pop\n  pop\n  jump\t// out\n    /* \"#utility.yul\":6425:6485   */\ntag_40:\n    /* \"#utility.yul\":6453:6456   */\n  0x00\n    /* \"#utility.yul\":6474:6479   */\n  dup2\n    /* \"#utility.yul\":6467:6479   */\n  swap1\n  pop\n    /* \"#utility.yul\":6425:6485   */\n  swap2\n  swap1\n  pop\n  jump\t// out\n    /* \"#utility.yul\":6491:6633   */\ntag_41:\n    /* \"#utility.yul\":6541:6550   */\n  0x00\n    /* \"#utility.yul\":6574:6627   */\n  tag_126\n    /* \"#utility.yul\":6592:6626   */\n  tag_127\n    /* \"#utility.yul\":6601:6625   */\n  tag_128\n    /* \"#utility.yul\":6619:6624   */\n  dup5\n    /* \"#utility.yul\":6601:6625   */\n  tag_30\n  jump\t// in\ntag_128:\n    /* \"#utility.yul\":6592:6626   */\n  tag_40\n  jump\t// in\ntag_127:\n    /* \"#utility.yul\":6574:6627   */\n  tag_30\n  jump\t// in\ntag_126:\n    /* \"#utility.yul\":6561:6627   */\n  swap1\n  pop\n    /* \"#utility.yul\":6491:6633   */\n  swap2\n  swap1\n  pop\n  jump\t// out\n    /* \"#utility.yul\":6639:6714   */\ntag_42:\n    /* \"#utility.yul\":6682:6685   */\n  0x00\n    /* \"#utility.yul\":6703:6708   */\n  dup2\n    /* \"#utility.yul\":6696:6708   */\n  swap1\n  pop\n    /* \"#utility.yul\":6639:6714   */\n  swap2\n  swap1\n  pop\n  jump\t// out\n    /* \"#utility.yul\":6720:6989   */\ntag_43:\n    /* \"#utility.yul\":6830:6869   */\n  tag_131\n    /* \"#utility.yul\":6861:6868   */\n  dup4\n    /* \"#utility.yul\":6830:6869   */\n  tag_41\n  jump\t// in\ntag_131:\n    /* \"#utility.yul\":6891:6982   */\n  tag_132\n    /* \"#utility.yul\":6940:6981   */\n  tag_133\n    /* \"#utility.yul\":6964:6980   */\n  dup3\n    /* \"#utility.yul\":6940:6981   */\n  tag_42\n  jump\t// in\ntag_133:\n    /* \"#utility.yul\":6932:6938   */\n  dup5\n    /* \"#utility.yul\":6925:6929   */\n  dup5\n    /* \"#utility.yul\":6919:6930   */\n  sload\n    /* \"#utility.yul\":6891:6982   */\n  tag_39\n  jump\t// in\ntag_132:\n    /* \"#utility.yul\":6885:6889   */\n  dup3\n    /* \"#utility.yul\":6878:6983   */\n  sstore\n    /* \"#utility.yul\":6796:6989   */\n  pop\n    /* \"#utility.yul\":6720:6989   */\n  pop\n  pop\n  pop\n  jump\t// out\n    /* \"#utility.yul\":6995:7068   */\ntag_44:\n    /* \"#utility.yul\":7040:7043   */\n  0x00\n    /* \"#utility.yul\":6995:7068   */\n  swap1\n  jump\t// out\n    /* \"#utility.yul\":7074:7263   */\ntag_45:\n    /* \"#utility.yul\":7151:7183   */\n  tag_136\n  tag_44\n  jump\t// in\ntag_136:\n    /* \"#utility.yul\":7192:7257   */\n  tag_137\n    /* \"#utility.yul\":7250:7256   */\n  dup2\n    /* \"#utility.yul\":7242:7248   */\n  dup5\n    /* \"#utility.yul\":7236:7240   */\n  dup5\n    /* \"#utility.yul\":7192:7257   */\n  tag_43\n  jump\t// in\ntag_137:\n    /* \"#utility.yul\":7127:7263   */\n  pop\n    /* \"#utility.yul\":7074:7263   */\n  pop\n  pop\n  jump\t// out\n    /* \"#utility.yul\":7269:7455   */\ntag_46:\n    /* \"#utility.yul\":7329:7449   */\ntag_139:\n    /* \"#utility.yul\":7346:7349   */\n  dup2\n    /* \"#utility.yul\":7339:7344   */\n  dup2\n    /* \"#utility.yul\":7336:7350   */\n  lt\n    /* \"#utility.yul\":7329:7449   */\n  iszero\n  tag_141\n  jumpi\n    /* \"#utility.yul\":7400:7439   */\n  tag_142\n    /* \"#utility.yul\":7437:7438   */\n  0x00\n    /* \"#utility.yul\":7430:7435   */\n  dup3\n    /* \"#utility.yul\":7400:7439   */\n  tag_45\n  jump\t// in\ntag_142:\n    /* \"#utility.yul\":7373:7374   */\n  0x01\n    /* \"#utility.yul\":7366:7371   */\n  dup2\n    /* \"#utility.yul\":7362:7375   */\n  add\n    /* \"#utility.yul\":7353:7375   */\n  swap1\n  pop\n    /* \"#utility.yul\":7329:7449   */\n  jump(tag_139)\ntag_141:\n    /* \"#utility.yul\":7269:7455   */\n  pop\n  pop\n  jump\t// out\n    /* \"#utility.yul\":7461:8004   */\ntag_47:\n    /* \"#utility.yul\":7562:7564   */\n  0x1f\n    /* \"#utility.yul\":7557:7560   */\n  dup3\n    /* \"#utility.yul\":7554:7565   */\n  gt\n    /* \"#utility.yul\":7551:7997   */\n  iszero\n  tag_144\n  jumpi\n    /* \"#utility.yul\":7596:7634   */\n  tag_145\n    /* \"#utility.yul\":7628:7633   */\n  dup2\n    /* \"#utility.yul\":7596:7634   */\n  tag_36\n  jump\t// in\ntag_145:\n    /* \"#utility.yul\":7680:7709   */\n  tag_146\n    /* \"#utility.yul\":7698:7708   */\n  dup5\n    /* \"#utility.yul\":7680:7709   */\n  tag_37\n  jump\t// in\ntag_146:\n    /* \"#utility.yul\":7670:7678   */\n  dup2\n    /* \"#utility.yul\":7666:7710   */\n  add\n    /* \"#utility.yul\":7863:7865   */\n  0x20\n    /* \"#utility.yul\":7851:7861   */\n  dup6\n    /* \"#utility.yul\":7848:7866   */\n  lt\n    /* \"#utility.yul\":7845:7894   */\n  iszero\n  tag_147\n  jumpi\n    /* \"#utility.yul\":7884:7892   */\n  dup2\n    /* \"#utility.yul\":7869:7892   */\n  swap1\n  pop\n    /* \"#utility.yul\":7845:7894   */\ntag_147:\n    /* \"#utility.yul\":7907:7987   */\n  tag_148\n    /* \"#utility.yul\":7963:7985   */\n  tag_149\n    /* \"#utility.yul\":7981:7984   */\n  dup6\n    /* \"#utility.yul\":7963:7985   */\n  tag_37\n  jump\t// in\ntag_149:\n    /* \"#utility.yul\":7953:7961   */\n  dup4\n    /* \"#utility.yul\":7949:7986   */\n  add\n    /* \"#utility.yul\":7936:7947   */\n  dup3\n    /* \"#utility.yul\":7907:7987   */\n  tag_46\n  jump\t// in\ntag_148:\n    /* \"#utility.yul\":7566:7997   */\n  pop\n  pop\n    /* \"#utility.yul\":7551:7997   */\ntag_144:\n    /* \"#utility.yul\":7461:8004   */\n  pop\n  pop\n  pop\n  jump\t// out\n    /* \"#utility.yul\":8010:8127   */\ntag_48:\n    /* \"#utility.yul\":8064:8072   */\n  0x00\n    /* \"#utility.yul\":8114:8119   */\n  dup3\n    /* \"#utility.yul\":8108:8112   */\n  dup3\n    /* \"#utility.yul\":8104:8120   */\n  shr\n    /* \"#utility.yul\":8083:8120   */\n  swap1\n  pop\n    /* \"#utility.yul\":8010:8127   */\n  swap3\n  swap2\n  pop\n  pop\n  jump\t// out\n    /* \"#utility.yul\":8133:8302   */\ntag_49:\n    /* \"#utility.yul\":8177:8183   */\n  0x00\n    /* \"#utility.yul\":8210:8261   */\n  tag_152\n    /* \"#utility.yul\":8258:8259   */\n  0x00\n    /* \"#utility.yul\":8254:8260   */\n  not\n    /* \"#utility.yul\":8246:8251   */\n  dup5\n    /* \"#utility.yul\":8243:8244   */\n  0x08\n    /* \"#utility.yul\":8239:8252   */\n  mul\n    /* \"#utility.yul\":8210:8261   */\n  tag_48\n  jump\t// in\ntag_152:\n    /* \"#utility.yul\":8206:8262   */\n  not\n    /* \"#utility.yul\":8291:8295   */\n  dup1\n    /* \"#utility.yul\":8285:8289   */\n  dup4\n    /* \"#utility.yul\":8281:8296   */\n  and\n    /* \"#utility.yul\":8271:8296   */\n  swap2\n  pop\n    /* \"#utility.yul\":8184:8302   */\n  pop\n    /* \"#utility.yul\":8133:8302   */\n  swap3\n  swap2\n  pop\n  pop\n  jump\t// out\n    /* \"#utility.yul\":8307:8602   */\ntag_50:\n    /* \"#utility.yul\":8383:8387   */\n  0x00\n    /* \"#utility.yul\":8529:8558   */\n  tag_154\n    /* \"#utility.yul\":8554:8557   */\n  dup4\n    /* \"#utility.yul\":8548:8552   */\n  dup4\n    /* \"#utility.yul\":8529:8558   */\n  tag_49\n  jump\t// in\ntag_154:\n    /* \"#utility.yul\":8521:8558   */\n  swap2\n  pop\n    /* \"#utility.yul\":8591:8594   */\n  dup3\n    /* \"#utility.yul\":8588:8589   */\n  0x02\n    /* \"#utility.yul\":8584:8595   */\n  mul\n    /* \"#utility.yul\":8578:8582   */\n  dup3\n    /* \"#utility.yul\":8575:8596   */\n  or\n    /* \"#utility.yul\":8567:8596   */\n  swap1\n  pop\n    /* \"#utility.yul\":8307:8602   */\n  swap3\n  swap2\n  pop\n  pop\n  jump\t// out\n    /* \"#utility.yul\":8607:10002   */\ntag_8:\n    /* \"#utility.yul\":8724:8761   */\n  tag_156\n    /* \"#utility.yul\":8757:8760   */\n  dup3\n    /* \"#utility.yul\":8724:8761   */\n  tag_33\n  jump\t// in\ntag_156:\n    /* \"#utility.yul\":8826:8844   */\n  0xffffffffffffffff\n    /* \"#utility.yul\":8818:8824   */\n  dup2\n    /* \"#utility.yul\":8815:8845   */\n  gt\n    /* \"#utility.yul\":8812:8868   */\n  iszero\n  tag_157\n  jumpi\n    /* \"#utility.yul\":8848:8866   */\n  tag_158\n  tag_19\n  jump\t// in\ntag_158:\n    /* \"#utility.yul\":8812:8868   */\ntag_157:\n    /* \"#utility.yul\":8892:8930   */\n  tag_159\n    /* \"#utility.yul\":8924:8928   */\n  dup3\n    /* \"#utility.yul\":8918:8929   */\n  sload\n    /* \"#utility.yul\":8892:8930   */\n  tag_35\n  jump\t// in\ntag_159:\n    /* \"#utility.yul\":8977:9044   */\n  tag_160\n    /* \"#utility.yul\":9037:9043   */\n  dup3\n    /* \"#utility.yul\":9029:9035   */\n  dup3\n    /* \"#utility.yul\":9023:9027   */\n  dup6\n    /* \"#utility.yul\":8977:9044   */\n  tag_47\n  jump\t// in\ntag_160:\n    /* \"#utility.yul\":9071:9072   */\n  0x00\n    /* \"#utility.yul\":9095:9099   */\n  0x20\n    /* \"#utility.yul\":9082:9099   */\n  swap1\n  pop\n    /* \"#utility.yul\":9127:9129   */\n  0x1f\n    /* \"#utility.yul\":9119:9125   */\n  dup4\n    /* \"#utility.yul\":9116:9130   */\n  gt\n    /* \"#utility.yul\":9144:9145   */\n  0x01\n    /* \"#utility.yul\":9139:9757   */\n  dup2\n  eq\n  tag_162\n  jumpi\n    /* \"#utility.yul\":9801:9802   */\n  0x00\n    /* \"#utility.yul\":9818:9824   */\n  dup5\n    /* \"#utility.yul\":9815:9892   */\n  iszero\n  tag_163\n  jumpi\n    /* \"#utility.yul\":9867:9876   */\n  dup3\n    /* \"#utility.yul\":9862:9865   */\n  dup8\n    /* \"#utility.yul\":9858:9877   */\n  add\n    /* \"#utility.yul\":9852:9878   */\n  mload\n    /* \"#utility.yul\":9843:9878   */\n  swap1\n  pop\n    /* \"#utility.yul\":9815:9892   */\ntag_163:\n    /* \"#utility.yul\":9918:9985   */\n  tag_164\n    /* \"#utility.yul\":9978:9984   */\n  dup6\n    /* \"#utility.yul\":9971:9976   */\n  dup3\n    /* \"#utility.yul\":9918:9985   */\n  tag_50\n  jump\t// in\ntag_164:\n    /* \"#utility.yul\":9912:9916   */\n  dup7\n    /* \"#utility.yul\":9905:9986   */\n  sstore\n    /* \"#utility.yul\":9774:9996   */\n  pop\n    /* \"#utility.yul\":9109:9996   */\n  jump(tag_161)\n    /* \"#utility.yul\":9139:9757   */\ntag_162:\n    /* \"#utility.yul\":9191:9195   */\n  0x1f\n    /* \"#utility.yul\":9187:9196   */\n  not\n    /* \"#utility.yul\":9179:9185   */\n  dup5\n    /* \"#utility.yul\":9175:9197   */\n  and\n    /* \"#utility.yul\":9225:9262   */\n  tag_165\n    /* \"#utility.yul\":9257:9261   */\n  dup7\n    /* \"#utility.yul\":9225:9262   */\n  tag_36\n  jump\t// in\ntag_165:\n    /* \"#utility.yul\":9284:9285   */\n  0x00\n    /* \"#utility.yul\":9298:9506   */\ntag_166:\n    /* \"#utility.yul\":9312:9319   */\n  dup3\n    /* \"#utility.yul\":9309:9310   */\n  dup2\n    /* \"#utility.yul\":9306:9320   */\n  lt\n    /* \"#utility.yul\":9298:9506   */\n  iszero\n  tag_168\n  jumpi\n    /* \"#utility.yul\":9391:9400   */\n  dup5\n    /* \"#utility.yul\":9386:9389   */\n  dup10\n    /* \"#utility.yul\":9382:9401   */\n  add\n    /* \"#utility.yul\":9376:9402   */\n  mload\n    /* \"#utility.yul\":9368:9374   */\n  dup3\n    /* \"#utility.yul\":9361:9403   */\n  sstore\n    /* \"#utility.yul\":9442:9443   */\n  0x01\n    /* \"#utility.yul\":9434:9440   */\n  dup3\n    /* \"#utility.yul\":9430:9444   */\n  add\n    /* \"#utility.yul\":9420:9444   */\n  swap2\n  pop\n    /* \"#utility.yul\":9489:9491   */\n  0x20\n    /* \"#utility.yul\":9478:9487   */\n  dup6\n    /* \"#utility.yul\":9474:9492   */\n  add\n    /* \"#utility.yul\":9461:9492   */\n  swap5\n  pop\n    /* \"#utility.yul\":9335:9339   */\n  0x20\n    /* \"#utility.yul\":9332:9333   */\n  dup2\n    /* \"#utility.yul\":9328:9340   */\n  add\n    /* \"#utility.yul\":9323:9340   */\n  swap1\n  pop\n    /* \"#utility.yul\":9298:9506   */\n  jump(tag_166)\ntag_168:\n    /* \"#utility.yul\":9534:9540   */\n  dup7\n    /* \"#utility.yul\":9525:9532   */\n  dup4\n    /* \"#utility.yul\":9522:9541   */\n  lt\n    /* \"#utility.yul\":9519:9698   */\n  iszero\n  tag_169\n  jumpi\n    /* \"#utility.yul\":9592:9601   */\n  dup5\n    /* \"#utility.yul\":9587:9590   */\n  dup10\n    /* \"#utility.yul\":9583:9602   */\n  add\n    /* \"#utility.yul\":9577:9603   */\n  mload\n    /* \"#utility.yul\":9635:9683   */\n  tag_170\n    /* \"#utility.yul\":9677:9681   */\n  0x1f\n    /* \"#utility.yul\":9669:9675   */\n  dup10\n    /* \"#utility.yul\":9665:9682   */\n  and\n    /* \"#utility.yul\":9654:9663   */\n  dup3\n    /* \"#utility.yul\":9635:9683   */\n  tag_49\n  jump\t// in\ntag_170:\n    /* \"#utility.yul\":9627:9633   */\n  dup4\n    /* \"#utility.yul\":9620:9684   */\n  sstore\n    /* \"#utility.yul\":9542:9698   */\n  pop\n    /* \"#utility.yul\":9519:9698   */\ntag_169:\n    /* \"#utility.yul\":9744:9745   */\n  0x01\n    /* \"#utility.yul\":9740:9741   */\n  0x02\n    /* \"#utility.yul\":9732:9738   */\n  dup9\n    /* \"#utility.yul\":9728:9742   */\n  mul\n    /* \"#utility.yul\":9724:9746   */\n  add\n    /* \"#utility.yul\":9718:9722   */\n  dup9\n    /* \"#utility.yul\":9711:9747   */\n  sstore\n    /* \"#utility.yul\":9146:9757   */\n  pop\n  pop\n  pop\n    /* \"#utility.yul\":9109:9996   */\ntag_161:\n  pop\n    /* \"#utility.yul\":8699:10002   */\n  pop\n  pop\n  pop\n    /* \"#utility.yul\":8607:10002   */\n  pop\n  pop\n  jump\t// out\n    /* \"Employee.sol\":88:973  contract Employee is BaseUser {... */\ntag_12:\n  mload(0x80)\n  codecopy(0x00, dataOffset(sub_0), dataSize(sub_0))\n  0x00\n  assignImmutable(\"0x2726ee0d9b3ee0e795443293caaa4ff9f263f3eacf85b4ce306dcc7ab38b2495\")\n  return(0x00, dataSize(sub_0))\nstop\n\nsub_0: assembly {\n        /* \"Employee.sol\":88:973  contract Employee is BaseUser {... */\n      mstore(0x40, 0x80)\n      jumpi(tag_1, lt(calldatasize, 0x04))\n      shr(0xe0, calldataload(0x00))\n      dup1\n      0x38cc4831\n      eq\n      tag_3\n      jumpi\n      dup1\n      0x58b08d2e\n      eq\n      tag_4\n      jumpi\n      dup1\n      0x835fc6ca\n      eq\n      tag_5\n      jumpi\n      dup1\n      0xb93cdb7b\n      eq\n      tag_6\n      jumpi\n      jump(tag_2)\n    tag_1:\n      jumpi(tag_2, calldatasize)\n        /* \"BaseUser.sol\":389:451  EtherReceived(msg.value, address(this), address(this).balance) */\n      0x2d27851832fcac28a0d4af1344f01fed7ffcfd15171c14c564a0c42aa57ae5c0\n        /* \"BaseUser.sol\":403:412  msg.value */\n      callvalue\n        /* \"BaseUser.sol\":422:426  this */\n      address\n        /* \"BaseUser.sol\":429:450  address(this).balance */\n      selfbalance\n        /* \"BaseUser.sol\":389:451  EtherReceived(msg.value, address(this), address(this).balance) */\n      mload(0x40)\n      tag_9\n      swap4\n      swap3\n      swap2\n      swap1\n      tag_10\n      jump\t// in\n    tag_9:\n      mload(0x40)\n      dup1\n      swap2\n      sub\n      swap1\n      log1\n        /* \"Employee.sol\":88:973  contract Employee is BaseUser {... */\n      stop\n    tag_2:\n        /* \"BaseUser.sol\":541:603  EtherReceived(msg.value, address(this), address(this).balance) */\n      0x2d27851832fcac28a0d4af1344f01fed7ffcfd15171c14c564a0c42aa57ae5c0\n        /* \"BaseUser.sol\":555:564  msg.value */\n      callvalue\n        /* \"BaseUser.sol\":574:578  this */\n      address\n        /* \"BaseUser.sol\":581:602  address(this).balance */\n      selfbalance\n        /* \"BaseUser.sol\":541:603  EtherReceived(msg.value, address(this), address(this).balance) */\n      mload(0x40)\n      tag_13\n      swap4\n      swap3\n      swap2\n      swap1\n      tag_10\n      jump\t// in\n    tag_13:\n      mload(0x40)\n      dup1\n      swap2\n      sub\n      swap1\n      log1\n        /* \"Employee.sol\":88:973  contract Employee is BaseUser {... */\n      stop\n        /* \"BaseUser.sol\":1346:1435  function getAddress() public view returns(address){... */\n    tag_3:\n      callvalue\n      dup1\n      iszero\n      tag_14\n      jumpi\n      0x00\n      dup1\n      revert\n    tag_14:\n      pop\n      tag_15\n      tag_16\n      jump\t// in\n    tag_15:\n      mload(0x40)\n      tag_17\n      swap2\n      swap1\n      tag_18\n      jump\t// in\n    tag_17:\n      mload(0x40)\n      dup1\n      swap2\n      sub\n      swap1\n      return\n        /* \"Employee.sol\":891:970  function getSalary () public view returns(uint){... */\n    tag_4:\n      callvalue\n      dup1\n      iszero\n      tag_19\n      jumpi\n      0x00\n      dup1\n      revert\n    tag_19:\n      pop\n      tag_20\n      tag_21\n      jump\t// in\n    tag_20:\n      mload(0x40)\n      tag_22\n      swap2\n      swap1\n      tag_23\n      jump\t// in\n    tag_22:\n      mload(0x40)\n      dup1\n      swap2\n      sub\n      swap1\n      return\n        /* \"BaseUser.sol\":816:1340  function withdrawal (uint _amount) public {... */\n    tag_5:\n      callvalue\n      dup1\n      iszero\n      tag_24\n      jumpi\n      0x00\n      dup1\n      revert\n    tag_24:\n      pop\n      tag_25\n      0x04\n      dup1\n      calldatasize\n      sub\n      dup2\n      add\n      swap1\n      tag_26\n      swap2\n      swap1\n      tag_27\n      jump\t// in\n    tag_26:\n      tag_28\n      jump\t// in\n    tag_25:\n      stop\n        /* \"BaseUser.sol\":1441:1542  function showUserBalance() public view returns (uint) {... */\n    tag_6:\n      callvalue\n      dup1\n      iszero\n      tag_29\n      jumpi\n      0x00\n      dup1\n      revert\n    tag_29:\n      pop\n      tag_30\n      tag_31\n      jump\t// in\n    tag_30:\n      mload(0x40)\n      tag_32\n      swap2\n      swap1\n      tag_23\n      jump\t// in\n    tag_32:\n      mload(0x40)\n      dup1\n      swap2\n      sub\n      swap1\n      return\n        /* \"BaseUser.sol\":1346:1435  function getAddress() public view returns(address){... */\n    tag_16:\n        /* \"BaseUser.sol\":1388:1395  address */\n      0x00\n        /* \"BaseUser.sol\":1422:1426  this */\n      address\n        /* \"BaseUser.sol\":1407:1427  return address(this) */\n      swap1\n      pop\n        /* \"BaseUser.sol\":1346:1435  function getAddress() public view returns(address){... */\n      swap1\n      jump\t// out\n        /* \"Employee.sol\":891:970  function getSalary () public view returns(uint){... */\n    tag_21:\n        /* \"Employee.sol\":933:937  uint */\n      0x00\n        /* \"Employee.sol\":956:962  salary */\n      immutable(\"0x2726ee0d9b3ee0e795443293caaa4ff9f263f3eacf85b4ce306dcc7ab38b2495\")\n        /* \"Employee.sol\":949:962  return salary */\n      swap1\n      pop\n        /* \"Employee.sol\":891:970  function getSalary () public view returns(uint){... */\n      swap1\n      jump\t// out\n        /* \"BaseUser.sol\":816:1340  function withdrawal (uint _amount) public {... */\n    tag_28:\n        /* \"BaseUser.sol\":975:982  _amount */\n      dup1\n        /* \"BaseUser.sol\":950:971  address(this).balance */\n      selfbalance\n        /* \"BaseUser.sol\":950:982  address(this).balance >= _amount */\n      lt\n      iszero\n        /* \"BaseUser.sol\":942:1007  require(address(this).balance >= _amount, \"Fondos insuficientes\") */\n      tag_36\n      jumpi\n      mload(0x40)\n      0x08c379a000000000000000000000000000000000000000000000000000000000\n      dup2\n      mstore\n      0x04\n      add\n      tag_37\n      swap1\n      tag_38\n      jump\t// in\n    tag_37:\n      mload(0x40)\n      dup1\n      swap2\n      sub\n      swap1\n      revert\n    tag_36:\n        /* \"BaseUser.sol\":1101:1113  bool success */\n      0x00\n        /* \"BaseUser.sol\":1118:1133  withdrawAddress */\n      0x01\n      0x00\n      swap1\n      sload\n      swap1\n      0x0100\n      exp\n      swap1\n      div\n      0xffffffffffffffffffffffffffffffffffffffff\n      and\n        /* \"BaseUser.sol\":1118:1138  withdrawAddress.call */\n      0xffffffffffffffffffffffffffffffffffffffff\n      and\n        /* \"BaseUser.sol\":1164:1171  _amount */\n      dup3\n        /* \"BaseUser.sol\":1118:1190  withdrawAddress.call{... */\n      mload(0x40)\n      tag_39\n      swap1\n      tag_40\n      jump\t// in\n    tag_39:\n      0x00\n      mload(0x40)\n      dup1\n      dup4\n      sub\n      dup2\n      dup6\n      dup8\n      gas\n      call\n      swap3\n      pop\n      pop\n      pop\n      returndatasize\n      dup1\n      0x00\n      dup2\n      eq\n      tag_43\n      jumpi\n      mload(0x40)\n      swap2\n      pop\n      and(add(returndatasize, 0x3f), not(0x1f))\n      dup3\n      add\n      0x40\n      mstore\n      returndatasize\n      dup3\n      mstore\n      returndatasize\n      0x00\n      0x20\n      dup5\n      add\n      returndatacopy\n      jump(tag_42)\n    tag_43:\n      0x60\n      swap2\n      pop\n    tag_42:\n      pop\n        /* \"BaseUser.sol\":1100:1190  (bool success,) = withdrawAddress.call{... */\n      pop\n      swap1\n      pop\n        /* \"BaseUser.sol\":1283:1332  WithdrawalSuccess(success, address(this).balance) */\n      0x8fbd42aa6b9175c731efe57e141436f5bb85231b5a377e39f53f8301ade4836a\n        /* \"BaseUser.sol\":1301:1308  success */\n      dup2\n        /* \"BaseUser.sol\":1310:1331  address(this).balance */\n      selfbalance\n        /* \"BaseUser.sol\":1283:1332  WithdrawalSuccess(success, address(this).balance) */\n      mload(0x40)\n      tag_44\n      swap3\n      swap2\n      swap1\n      tag_45\n      jump\t// in\n    tag_44:\n      mload(0x40)\n      dup1\n      swap2\n      sub\n      swap1\n      log1\n        /* \"BaseUser.sol\":858:1340  {... */\n      pop\n        /* \"BaseUser.sol\":816:1340  function withdrawal (uint _amount) public {... */\n      pop\n      jump\t// out\n        /* \"BaseUser.sol\":1441:1542  function showUserBalance() public view returns (uint) {... */\n    tag_31:\n        /* \"BaseUser.sol\":1489:1493  uint */\n      0x00\n        /* \"BaseUser.sol\":1513:1534  address(this).balance */\n      selfbalance\n        /* \"BaseUser.sol\":1506:1534  return address(this).balance */\n      swap1\n      pop\n        /* \"BaseUser.sol\":1441:1542  function showUserBalance() public view returns (uint) {... */\n      swap1\n      jump\t// out\n        /* \"#utility.yul\":7:84   */\n    tag_47:\n        /* \"#utility.yul\":44:51   */\n      0x00\n        /* \"#utility.yul\":73:78   */\n      dup2\n        /* \"#utility.yul\":62:78   */\n      swap1\n      pop\n        /* \"#utility.yul\":7:84   */\n      swap2\n      swap1\n      pop\n      jump\t// out\n        /* \"#utility.yul\":90:208   */\n    tag_48:\n        /* \"#utility.yul\":177:201   */\n      tag_68\n        /* \"#utility.yul\":195:200   */\n      dup2\n        /* \"#utility.yul\":177:201   */\n      tag_47\n      jump\t// in\n    tag_68:\n        /* \"#utility.yul\":172:175   */\n      dup3\n        /* \"#utility.yul\":165:202   */\n      mstore\n        /* \"#utility.yul\":90:208   */\n      pop\n      pop\n      jump\t// out\n        /* \"#utility.yul\":214:340   */\n    tag_49:\n        /* \"#utility.yul\":251:258   */\n      0x00\n        /* \"#utility.yul\":291:333   */\n      0xffffffffffffffffffffffffffffffffffffffff\n        /* \"#utility.yul\":284:289   */\n      dup3\n        /* \"#utility.yul\":280:334   */\n      and\n        /* \"#utility.yul\":269:334   */\n      swap1\n      pop\n        /* \"#utility.yul\":214:340   */\n      swap2\n      swap1\n      pop\n      jump\t// out\n        /* \"#utility.yul\":346:442   */\n    tag_50:\n        /* \"#utility.yul\":383:390   */\n      0x00\n        /* \"#utility.yul\":412:436   */\n      tag_71\n        /* \"#utility.yul\":430:435   */\n      dup3\n        /* \"#utility.yul\":412:436   */\n      tag_49\n      jump\t// in\n    tag_71:\n        /* \"#utility.yul\":401:436   */\n      swap1\n      pop\n        /* \"#utility.yul\":346:442   */\n      swap2\n      swap1\n      pop\n      jump\t// out\n        /* \"#utility.yul\":448:566   */\n    tag_51:\n        /* \"#utility.yul\":535:559   */\n      tag_73\n        /* \"#utility.yul\":553:558   */\n      dup2\n        /* \"#utility.yul\":535:559   */\n      tag_50\n      jump\t// in\n    tag_73:\n        /* \"#utility.yul\":530:533   */\n      dup3\n        /* \"#utility.yul\":523:560   */\n      mstore\n        /* \"#utility.yul\":448:566   */\n      pop\n      pop\n      jump\t// out\n        /* \"#utility.yul\":572:1014   */\n    tag_10:\n        /* \"#utility.yul\":721:725   */\n      0x00\n        /* \"#utility.yul\":759:761   */\n      0x60\n        /* \"#utility.yul\":748:757   */\n      dup3\n        /* \"#utility.yul\":744:762   */\n      add\n        /* \"#utility.yul\":736:762   */\n      swap1\n      pop\n        /* \"#utility.yul\":772:843   */\n      tag_75\n        /* \"#utility.yul\":840:841   */\n      0x00\n        /* \"#utility.yul\":829:838   */\n      dup4\n        /* \"#utility.yul\":825:842   */\n      add\n        /* \"#utility.yul\":816:822   */\n      dup7\n        /* \"#utility.yul\":772:843   */\n      tag_48\n      jump\t// in\n    tag_75:\n        /* \"#utility.yul\":853:925   */\n      tag_76\n        /* \"#utility.yul\":921:923   */\n      0x20\n        /* \"#utility.yul\":910:919   */\n      dup4\n        /* \"#utility.yul\":906:924   */\n      add\n        /* \"#utility.yul\":897:903   */\n      dup6\n        /* \"#utility.yul\":853:925   */\n      tag_51\n      jump\t// in\n    tag_76:\n        /* \"#utility.yul\":935:1007   */\n      tag_77\n        /* \"#utility.yul\":1003:1005   */\n      0x40\n        /* \"#utility.yul\":992:1001   */\n      dup4\n        /* \"#utility.yul\":988:1006   */\n      add\n        /* \"#utility.yul\":979:985   */\n      dup5\n        /* \"#utility.yul\":935:1007   */\n      tag_48\n      jump\t// in\n    tag_77:\n        /* \"#utility.yul\":572:1014   */\n      swap5\n      swap4\n      pop\n      pop\n      pop\n      pop\n      jump\t// out\n        /* \"#utility.yul\":1020:1242   */\n    tag_18:\n        /* \"#utility.yul\":1113:1117   */\n      0x00\n        /* \"#utility.yul\":1151:1153   */\n      0x20\n        /* \"#utility.yul\":1140:1149   */\n      dup3\n        /* \"#utility.yul\":1136:1154   */\n      add\n        /* \"#utility.yul\":1128:1154   */\n      swap1\n      pop\n        /* \"#utility.yul\":1164:1235   */\n      tag_79\n        /* \"#utility.yul\":1232:1233   */\n      0x00\n        /* \"#utility.yul\":1221:1230   */\n      dup4\n        /* \"#utility.yul\":1217:1234   */\n      add\n        /* \"#utility.yul\":1208:1214   */\n      dup5\n        /* \"#utility.yul\":1164:1235   */\n      tag_51\n      jump\t// in\n    tag_79:\n        /* \"#utility.yul\":1020:1242   */\n      swap3\n      swap2\n      pop\n      pop\n      jump\t// out\n        /* \"#utility.yul\":1248:1470   */\n    tag_23:\n        /* \"#utility.yul\":1341:1345   */\n      0x00\n        /* \"#utility.yul\":1379:1381   */\n      0x20\n        /* \"#utility.yul\":1368:1377   */\n      dup3\n        /* \"#utility.yul\":1364:1382   */\n      add\n        /* \"#utility.yul\":1356:1382   */\n      swap1\n      pop\n        /* \"#utility.yul\":1392:1463   */\n      tag_81\n        /* \"#utility.yul\":1460:1461   */\n      0x00\n        /* \"#utility.yul\":1449:1458   */\n      dup4\n        /* \"#utility.yul\":1445:1462   */\n      add\n        /* \"#utility.yul\":1436:1442   */\n      dup5\n        /* \"#utility.yul\":1392:1463   */\n      tag_48\n      jump\t// in\n    tag_81:\n        /* \"#utility.yul\":1248:1470   */\n      swap3\n      swap2\n      pop\n      pop\n      jump\t// out\n        /* \"#utility.yul\":1557:1674   */\n    tag_53:\n        /* \"#utility.yul\":1666:1667   */\n      0x00\n        /* \"#utility.yul\":1663:1664   */\n      dup1\n        /* \"#utility.yul\":1656:1668   */\n      revert\n        /* \"#utility.yul\":1803:1925   */\n    tag_55:\n        /* \"#utility.yul\":1876:1900   */\n      tag_86\n        /* \"#utility.yul\":1894:1899   */\n      dup2\n        /* \"#utility.yul\":1876:1900   */\n      tag_47\n      jump\t// in\n    tag_86:\n        /* \"#utility.yul\":1869:1874   */\n      dup2\n        /* \"#utility.yul\":1866:1901   */\n      eq\n        /* \"#utility.yul\":1856:1919   */\n      tag_87\n      jumpi\n        /* \"#utility.yul\":1915:1916   */\n      0x00\n        /* \"#utility.yul\":1912:1913   */\n      dup1\n        /* \"#utility.yul\":1905:1917   */\n      revert\n        /* \"#utility.yul\":1856:1919   */\n    tag_87:\n        /* \"#utility.yul\":1803:1925   */\n      pop\n      jump\t// out\n        /* \"#utility.yul\":1931:2070   */\n    tag_56:\n        /* \"#utility.yul\":1977:1982   */\n      0x00\n        /* \"#utility.yul\":2015:2021   */\n      dup2\n        /* \"#utility.yul\":2002:2022   */\n      calldataload\n        /* \"#utility.yul\":1993:2022   */\n      swap1\n      pop\n        /* \"#utility.yul\":2031:2064   */\n      tag_89\n        /* \"#utility.yul\":2058:2063   */\n      dup2\n        /* \"#utility.yul\":2031:2064   */\n      tag_55\n      jump\t// in\n    tag_89:\n        /* \"#utility.yul\":1931:2070   */\n      swap3\n      swap2\n      pop\n      pop\n      jump\t// out\n        /* \"#utility.yul\":2076:2405   */\n    tag_27:\n        /* \"#utility.yul\":2135:2141   */\n      0x00\n        /* \"#utility.yul\":2184:2186   */\n      0x20\n        /* \"#utility.yul\":2172:2181   */\n      dup3\n        /* \"#utility.yul\":2163:2170   */\n      dup5\n        /* \"#utility.yul\":2159:2182   */\n      sub\n        /* \"#utility.yul\":2155:2187   */\n      slt\n        /* \"#utility.yul\":2152:2271   */\n      iszero\n      tag_91\n      jumpi\n        /* \"#utility.yul\":2190:2269   */\n      tag_92\n      tag_53\n      jump\t// in\n    tag_92:\n        /* \"#utility.yul\":2152:2271   */\n    tag_91:\n        /* \"#utility.yul\":2310:2311   */\n      0x00\n        /* \"#utility.yul\":2335:2388   */\n      tag_93\n        /* \"#utility.yul\":2380:2387   */\n      dup5\n        /* \"#utility.yul\":2371:2377   */\n      dup3\n        /* \"#utility.yul\":2360:2369   */\n      dup6\n        /* \"#utility.yul\":2356:2378   */\n      add\n        /* \"#utility.yul\":2335:2388   */\n      tag_56\n      jump\t// in\n    tag_93:\n        /* \"#utility.yul\":2325:2388   */\n      swap2\n      pop\n        /* \"#utility.yul\":2281:2398   */\n      pop\n        /* \"#utility.yul\":2076:2405   */\n      swap3\n      swap2\n      pop\n      pop\n      jump\t// out\n        /* \"#utility.yul\":2411:2580   */\n    tag_57:\n        /* \"#utility.yul\":2495:2506   */\n      0x00\n        /* \"#utility.yul\":2529:2535   */\n      dup3\n        /* \"#utility.yul\":2524:2527   */\n      dup3\n        /* \"#utility.yul\":2517:2536   */\n      mstore\n        /* \"#utility.yul\":2569:2573   */\n      0x20\n        /* \"#utility.yul\":2564:2567   */\n      dup3\n        /* \"#utility.yul\":2560:2574   */\n      add\n        /* \"#utility.yul\":2545:2574   */\n      swap1\n      pop\n        /* \"#utility.yul\":2411:2580   */\n      swap3\n      swap2\n      pop\n      pop\n      jump\t// out\n        /* \"#utility.yul\":2586:2756   */\n    tag_58:\n        /* \"#utility.yul\":2726:2748   */\n      0x466f6e646f7320696e737566696369656e746573000000000000000000000000\n        /* \"#utility.yul\":2722:2723   */\n      0x00\n        /* \"#utility.yul\":2714:2720   */\n      dup3\n        /* \"#utility.yul\":2710:2724   */\n      add\n        /* \"#utility.yul\":2703:2749   */\n      mstore\n        /* \"#utility.yul\":2586:2756   */\n      pop\n      jump\t// out\n        /* \"#utility.yul\":2762:3128   */\n    tag_59:\n        /* \"#utility.yul\":2904:2907   */\n      0x00\n        /* \"#utility.yul\":2925:2992   */\n      tag_97\n        /* \"#utility.yul\":2989:2991   */\n      0x14\n        /* \"#utility.yul\":2984:2987   */\n      dup4\n        /* \"#utility.yul\":2925:2992   */\n      tag_57\n      jump\t// in\n    tag_97:\n        /* \"#utility.yul\":2918:2992   */\n      swap2\n      pop\n        /* \"#utility.yul\":3001:3094   */\n      tag_98\n        /* \"#utility.yul\":3090:3093   */\n      dup3\n        /* \"#utility.yul\":3001:3094   */\n      tag_58\n      jump\t// in\n    tag_98:\n        /* \"#utility.yul\":3119:3121   */\n      0x20\n        /* \"#utility.yul\":3114:3117   */\n      dup3\n        /* \"#utility.yul\":3110:3122   */\n      add\n        /* \"#utility.yul\":3103:3122   */\n      swap1\n      pop\n        /* \"#utility.yul\":2762:3128   */\n      swap2\n      swap1\n      pop\n      jump\t// out\n        /* \"#utility.yul\":3134:3553   */\n    tag_38:\n        /* \"#utility.yul\":3300:3304   */\n      0x00\n        /* \"#utility.yul\":3338:3340   */\n      0x20\n        /* \"#utility.yul\":3327:3336   */\n      dup3\n        /* \"#utility.yul\":3323:3341   */\n      add\n        /* \"#utility.yul\":3315:3341   */\n      swap1\n      pop\n        /* \"#utility.yul\":3387:3396   */\n      dup2\n        /* \"#utility.yul\":3381:3385   */\n      dup2\n        /* \"#utility.yul\":3377:3397   */\n      sub\n        /* \"#utility.yul\":3373:3374   */\n      0x00\n        /* \"#utility.yul\":3362:3371   */\n      dup4\n        /* \"#utility.yul\":3358:3375   */\n      add\n        /* \"#utility.yul\":3351:3398   */\n      mstore\n        /* \"#utility.yul\":3415:3546   */\n      tag_100\n        /* \"#utility.yul\":3541:3545   */\n      dup2\n        /* \"#utility.yul\":3415:3546   */\n      tag_59\n      jump\t// in\n    tag_100:\n        /* \"#utility.yul\":3407:3546   */\n      swap1\n      pop\n        /* \"#utility.yul\":3134:3553   */\n      swap2\n      swap1\n      pop\n      jump\t// out\n        /* \"#utility.yul\":3559:3706   */\n    tag_60:\n        /* \"#utility.yul\":3660:3671   */\n      0x00\n        /* \"#utility.yul\":3697:3700   */\n      dup2\n        /* \"#utility.yul\":3682:3700   */\n      swap1\n      pop\n        /* \"#utility.yul\":3559:3706   */\n      swap3\n      swap2\n      pop\n      pop\n      jump\t// out\n        /* \"#utility.yul\":3712:3826   */\n    tag_61:\n      pop\n      jump\t// out\n        /* \"#utility.yul\":3832:4230   */\n    tag_62:\n        /* \"#utility.yul\":3991:3994   */\n      0x00\n        /* \"#utility.yul\":4012:4095   */\n      tag_104\n        /* \"#utility.yul\":4093:4094   */\n      0x00\n        /* \"#utility.yul\":4088:4091   */\n      dup4\n        /* \"#utility.yul\":4012:4095   */\n      tag_60\n      jump\t// in\n    tag_104:\n        /* \"#utility.yul\":4005:4095   */\n      swap2\n      pop\n        /* \"#utility.yul\":4104:4197   */\n      tag_105\n        /* \"#utility.yul\":4193:4196   */\n      dup3\n        /* \"#utility.yul\":4104:4197   */\n      tag_61\n      jump\t// in\n    tag_105:\n        /* \"#utility.yul\":4222:4223   */\n      0x00\n        /* \"#utility.yul\":4217:4220   */\n      dup3\n        /* \"#utility.yul\":4213:4224   */\n      add\n        /* \"#utility.yul\":4206:4224   */\n      swap1\n      pop\n        /* \"#utility.yul\":3832:4230   */\n      swap2\n      swap1\n      pop\n      jump\t// out\n        /* \"#utility.yul\":4236:4615   */\n    tag_40:\n        /* \"#utility.yul\":4420:4423   */\n      0x00\n        /* \"#utility.yul\":4442:4589   */\n      tag_107\n        /* \"#utility.yul\":4585:4588   */\n      dup3\n        /* \"#utility.yul\":4442:4589   */\n      tag_62\n      jump\t// in\n    tag_107:\n        /* \"#utility.yul\":4435:4589   */\n      swap2\n      pop\n        /* \"#utility.yul\":4606:4609   */\n      dup2\n        /* \"#utility.yul\":4599:4609   */\n      swap1\n      pop\n        /* \"#utility.yul\":4236:4615   */\n      swap2\n      swap1\n      pop\n      jump\t// out\n        /* \"#utility.yul\":4621:4711   */\n    tag_63:\n        /* \"#utility.yul\":4655:4662   */\n      0x00\n        /* \"#utility.yul\":4698:4703   */\n      dup2\n        /* \"#utility.yul\":4691:4704   */\n      iszero\n        /* \"#utility.yul\":4684:4705   */\n      iszero\n        /* \"#utility.yul\":4673:4705   */\n      swap1\n      pop\n        /* \"#utility.yul\":4621:4711   */\n      swap2\n      swap1\n      pop\n      jump\t// out\n        /* \"#utility.yul\":4717:4826   */\n    tag_64:\n        /* \"#utility.yul\":4798:4819   */\n      tag_110\n        /* \"#utility.yul\":4813:4818   */\n      dup2\n        /* \"#utility.yul\":4798:4819   */\n      tag_63\n      jump\t// in\n    tag_110:\n        /* \"#utility.yul\":4793:4796   */\n      dup3\n        /* \"#utility.yul\":4786:4820   */\n      mstore\n        /* \"#utility.yul\":4717:4826   */\n      pop\n      pop\n      jump\t// out\n        /* \"#utility.yul\":4832:5152   */\n    tag_45:\n        /* \"#utility.yul\":4947:4951   */\n      0x00\n        /* \"#utility.yul\":4985:4987   */\n      0x40\n        /* \"#utility.yul\":4974:4983   */\n      dup3\n        /* \"#utility.yul\":4970:4988   */\n      add\n        /* \"#utility.yul\":4962:4988   */\n      swap1\n      pop\n        /* \"#utility.yul\":4998:5063   */\n      tag_112\n        /* \"#utility.yul\":5060:5061   */\n      0x00\n        /* \"#utility.yul\":5049:5058   */\n      dup4\n        /* \"#utility.yul\":5045:5062   */\n      add\n        /* \"#utility.yul\":5036:5042   */\n      dup6\n        /* \"#utility.yul\":4998:5063   */\n      tag_64\n      jump\t// in\n    tag_112:\n        /* \"#utility.yul\":5073:5145   */\n      tag_113\n        /* \"#utility.yul\":5141:5143   */\n      0x20\n        /* \"#utility.yul\":5130:5139   */\n      dup4\n        /* \"#utility.yul\":5126:5144   */\n      add\n        /* \"#utility.yul\":5117:5123   */\n      dup5\n        /* \"#utility.yul\":5073:5145   */\n      tag_48\n      jump\t// in\n    tag_113:\n        /* \"#utility.yul\":4832:5152   */\n      swap4\n      swap3\n      pop\n      pop\n      pop\n      jump\t// out\n\n    auxdata: 0xa26469706673582212208b5589f959a6dcfa0fbc6b1df6db50205e42948dc7c8681b3103c81914ef554464736f6c63430008120033\n}\n",
				"bytecode": {
					"linkReferences": {},
					"object": "60a06040523480156200001157600080fd5b5060405162000c3538038062000c358339818101604052810190620000379190620002f8565b848481600090816200004a91906200061e565b5080600160006101000a81548173ffffffffffffffffffffffffffffffffffffffff021916908373ffffffffffffffffffffffffffffffffffffffff160217905550505082600290816200009f91906200061e565b508160039081620000b191906200061e565b508060808181525050505050505062000705565b6000604051905090565b600080fd5b600080fd5b600080fd5b600080fd5b6000601f19601f8301169050919050565b7f4e487b7100000000000000000000000000000000000000000000000000000000600052604160045260246000fd5b6200012e82620000e3565b810181811067ffffffffffffffff8211171562000150576200014f620000f4565b5b80604052505050565b600062000165620000c5565b905062000173828262000123565b919050565b600067ffffffffffffffff821115620001965762000195620000f4565b5b620001a182620000e3565b9050602081019050919050565b60005b83811015620001ce578082015181840152602081019050620001b1565b60008484015250505050565b6000620001f1620001eb8462000178565b62000159565b90508281526020810184848401111562000210576200020f620000de565b5b6200021d848285620001ae565b509392505050565b600082601f8301126200023d576200023c620000d9565b5b81516200024f848260208601620001da565b91505092915050565b600073ffffffffffffffffffffffffffffffffffffffff82169050919050565b6000620002858262000258565b9050919050565b620002978162000278565b8114620002a357600080fd5b50565b600081519050620002b7816200028c565b92915050565b6000819050919050565b620002d281620002bd565b8114620002de57600080fd5b50565b600081519050620002f281620002c7565b92915050565b600080600080600060a08688031215620003175762000316620000cf565b5b600086015167ffffffffffffffff811115620003385762000337620000d4565b5b620003468882890162000225565b95505060206200035988828901620002a6565b945050604086015167ffffffffffffffff8111156200037d576200037c620000d4565b5b6200038b8882890162000225565b935050606086015167ffffffffffffffff811115620003af57620003ae620000d4565b5b620003bd8882890162000225565b9250506080620003d088828901620002e1565b9150509295509295909350565b600081519050919050565b7f4e487b7100000000000000000000000000000000000000000000000000000000600052602260045260246000fd5b600060028204905060018216806200043057607f821691505b602082108103620004465762000445620003e8565b5b50919050565b60008190508160005260206000209050919050565b60006020601f8301049050919050565b600082821b905092915050565b600060088302620004b07fffffffffffffffffffffffffffffffffffffffffffffffffffffffffffffffff8262000471565b620004bc868362000471565b95508019841693508086168417925050509392505050565b6000819050919050565b6000620004ff620004f9620004f384620002bd565b620004d4565b620002bd565b9050919050565b6000819050919050565b6200051b83620004de565b620005336200052a8262000506565b8484546200047e565b825550505050565b600090565b6200054a6200053b565b6200055781848462000510565b505050565b5b818110156200057f576200057360008262000540565b6001810190506200055d565b5050565b601f821115620005ce5762000598816200044c565b620005a38462000461565b81016020851015620005b3578190505b620005cb620005c28562000461565b8301826200055c565b50505b505050565b600082821c905092915050565b6000620005f360001984600802620005d3565b1980831691505092915050565b60006200060e8383620005e0565b9150826002028217905092915050565b6200062982620003dd565b67ffffffffffffffff811115620006455762000644620000f4565b5b62000651825462000417565b6200065e82828562000583565b600060209050601f83116001811462000696576000841562000681578287015190505b6200068d858262000600565b865550620006fd565b601f198416620006a6866200044c565b60005b82811015620006d057848901518255600182019150602085019450602081019050620006a9565b86831015620006f05784890151620006ec601f891682620005e0565b8355505b6001600288020188555050505b505050505050565b60805161051462000721600039600061017801526105146000f3fe6080604052600436106100435760003560e01c806338cc4831146100c257806358b08d2e146100ed578063835fc6ca14610118578063b93cdb7b1461014157610085565b36610085577f2d27851832fcac28a0d4af1344f01fed7ffcfd15171c14c564a0c42aa57ae5c034304760405161007b9392919061030c565b60405180910390a1005b7f2d27851832fcac28a0d4af1344f01fed7ffcfd15171c14c564a0c42aa57ae5c03430476040516100b89392919061030c565b60405180910390a1005b3480156100ce57600080fd5b506100d761016c565b6040516100e49190610343565b60405180910390f35b3480156100f957600080fd5b50610102610174565b60405161010f919061035e565b60405180910390f35b34801561012457600080fd5b5061013f600480360381019061013a91906103aa565b61019c565b005b34801561014d57600080fd5b506101566102aa565b604051610163919061035e565b60405180910390f35b600030905090565b60007f0000000000000000000000000000000000000000000000000000000000000000905090565b804710156101df576040517f08c379a00000000000000000000000000000000000000000000000000000000081526004016101d690610434565b60405180910390fd5b6000600160009054906101000a900473ffffffffffffffffffffffffffffffffffffffff1673ffffffffffffffffffffffffffffffffffffffff168260405161022790610485565b60006040518083038185875af1925050503d8060008114610264576040519150601f19603f3d011682016040523d82523d6000602084013e610269565b606091505b505090507f8fbd42aa6b9175c731efe57e141436f5bb85231b5a377e39f53f8301ade4836a814760405161029e9291906104b5565b60405180910390a15050565b600047905090565b6000819050919050565b6102c5816102b2565b82525050565b600073ffffffffffffffffffffffffffffffffffffffff82169050919050565b60006102f6826102cb565b9050919050565b610306816102eb565b82525050565b600060608201905061032160008301866102bc565b61032e60208301856102fd565b61033b60408301846102bc565b949350505050565b600060208201905061035860008301846102fd565b92915050565b600060208201905061037360008301846102bc565b92915050565b600080fd5b610387816102b2565b811461039257600080fd5b50565b6000813590506103a48161037e565b92915050565b6000602082840312156103c0576103bf610379565b5b60006103ce84828501610395565b91505092915050565b600082825260208201905092915050565b7f466f6e646f7320696e737566696369656e746573000000000000000000000000600082015250565b600061041e6014836103d7565b9150610429826103e8565b602082019050919050565b6000602082019050818103600083015261044d81610411565b9050919050565b600081905092915050565b50565b600061046f600083610454565b915061047a8261045f565b600082019050919050565b600061049082610462565b9150819050919050565b60008115159050919050565b6104af8161049a565b82525050565b60006040820190506104ca60008301856104a6565b6104d760208301846102bc565b939250505056fea26469706673582212208b5589f959a6dcfa0fbc6b1df6db50205e42948dc7c8681b3103c81914ef554464736f6c63430008120033",
					"opcodes": "PUSH1 0xA0 PUSH1 0x40 MSTORE CALLVALUE DUP1 ISZERO PUSH3 0x11 JUMPI PUSH1 0x0 DUP1 REVERT JUMPDEST POP PUSH1 0x40 MLOAD PUSH3 0xC35 CODESIZE SUB DUP1 PUSH3 0xC35 DUP4 CODECOPY DUP2 DUP2 ADD PUSH1 0x40 MSTORE DUP2 ADD SWAP1 PUSH3 0x37 SWAP2 SWAP1 PUSH3 0x2F8 JUMP JUMPDEST DUP5 DUP5 DUP2 PUSH1 0x0 SWAP1 DUP2 PUSH3 0x4A SWAP2 SWAP1 PUSH3 0x61E JUMP JUMPDEST POP DUP1 PUSH1 0x1 PUSH1 0x0 PUSH2 0x100 EXP DUP2 SLOAD DUP2 PUSH20 0xFFFFFFFFFFFFFFFFFFFFFFFFFFFFFFFFFFFFFFFF MUL NOT AND SWAP1 DUP4 PUSH20 0xFFFFFFFFFFFFFFFFFFFFFFFFFFFFFFFFFFFFFFFF AND MUL OR SWAP1 SSTORE POP POP POP DUP3 PUSH1 0x2 SWAP1 DUP2 PUSH3 0x9F SWAP2 SWAP1 PUSH3 0x61E JUMP JUMPDEST POP DUP2 PUSH1 0x3 SWAP1 DUP2 PUSH3 0xB1 SWAP2 SWAP1 PUSH3 0x61E JUMP JUMPDEST POP DUP1 PUSH1 0x80 DUP2 DUP2 MSTORE POP POP POP POP POP POP POP PUSH3 0x705 JUMP JUMPDEST PUSH1 0x0 PUSH1 0x40 MLOAD SWAP1 POP SWAP1 JUMP JUMPDEST PUSH1 0x0 DUP1 REVERT JUMPDEST PUSH1 0x0 DUP1 REVERT JUMPDEST PUSH1 0x0 DUP1 REVERT JUMPDEST PUSH1 0x0 DUP1 REVERT JUMPDEST PUSH1 0x0 PUSH1 0x1F NOT PUSH1 0x1F DUP4 ADD AND SWAP1 POP SWAP2 SWAP1 POP JUMP JUMPDEST PUSH32 0x4E487B7100000000000000000000000000000000000000000000000000000000 PUSH1 0x0 MSTORE PUSH1 0x41 PUSH1 0x4 MSTORE PUSH1 0x24 PUSH1 0x0 REVERT JUMPDEST PUSH3 0x12E DUP3 PUSH3 0xE3 JUMP JUMPDEST DUP2 ADD DUP2 DUP2 LT PUSH8 0xFFFFFFFFFFFFFFFF DUP3 GT OR ISZERO PUSH3 0x150 JUMPI PUSH3 0x14F PUSH3 0xF4 JUMP JUMPDEST JUMPDEST DUP1 PUSH1 0x40 MSTORE POP POP POP JUMP JUMPDEST PUSH1 0x0 PUSH3 0x165 PUSH3 0xC5 JUMP JUMPDEST SWAP1 POP PUSH3 0x173 DUP3 DUP3 PUSH3 0x123 JUMP JUMPDEST SWAP2 SWAP1 POP JUMP JUMPDEST PUSH1 0x0 PUSH8 0xFFFFFFFFFFFFFFFF DUP3 GT ISZERO PUSH3 0x196 JUMPI PUSH3 0x195 PUSH3 0xF4 JUMP JUMPDEST JUMPDEST PUSH3 0x1A1 DUP3 PUSH3 0xE3 JUMP JUMPDEST SWAP1 POP PUSH1 0x20 DUP2 ADD SWAP1 POP SWAP2 SWAP1 POP JUMP JUMPDEST PUSH1 0x0 JUMPDEST DUP4 DUP2 LT ISZERO PUSH3 0x1CE JUMPI DUP1 DUP3 ADD MLOAD DUP2 DUP5 ADD MSTORE PUSH1 0x20 DUP2 ADD SWAP1 POP PUSH3 0x1B1 JUMP JUMPDEST PUSH1 0x0 DUP5 DUP5 ADD MSTORE POP POP POP POP JUMP JUMPDEST PUSH1 0x0 PUSH3 0x1F1 PUSH3 0x1EB DUP5 PUSH3 0x178 JUMP JUMPDEST PUSH3 0x159 JUMP JUMPDEST SWAP1 POP DUP3 DUP2 MSTORE PUSH1 0x20 DUP2 ADD DUP5 DUP5 DUP5 ADD GT ISZERO PUSH3 0x210 JUMPI PUSH3 0x20F PUSH3 0xDE JUMP JUMPDEST JUMPDEST PUSH3 0x21D DUP5 DUP3 DUP6 PUSH3 0x1AE JUMP JUMPDEST POP SWAP4 SWAP3 POP POP POP JUMP JUMPDEST PUSH1 0x0 DUP3 PUSH1 0x1F DUP4 ADD SLT PUSH3 0x23D JUMPI PUSH3 0x23C PUSH3 0xD9 JUMP JUMPDEST JUMPDEST DUP2 MLOAD PUSH3 0x24F DUP5 DUP3 PUSH1 0x20 DUP7 ADD PUSH3 0x1DA JUMP JUMPDEST SWAP2 POP POP SWAP3 SWAP2 POP POP JUMP JUMPDEST PUSH1 0x0 PUSH20 0xFFFFFFFFFFFFFFFFFFFFFFFFFFFFFFFFFFFFFFFF DUP3 AND SWAP1 POP SWAP2 SWAP1 POP JUMP JUMPDEST PUSH1 0x0 PUSH3 0x285 DUP3 PUSH3 0x258 JUMP JUMPDEST SWAP1 POP SWAP2 SWAP1 POP JUMP JUMPDEST PUSH3 0x297 DUP2 PUSH3 0x278 JUMP JUMPDEST DUP2 EQ PUSH3 0x2A3 JUMPI PUSH1 0x0 DUP1 REVERT JUMPDEST POP JUMP JUMPDEST PUSH1 0x0 DUP2 MLOAD SWAP1 POP PUSH3 0x2B7 DUP2 PUSH3 0x28C JUMP JUMPDEST SWAP3 SWAP2 POP POP JUMP JUMPDEST PUSH1 0x0 DUP2 SWAP1 POP SWAP2 SWAP1 POP JUMP JUMPDEST PUSH3 0x2D2 DUP2 PUSH3 0x2BD JUMP JUMPDEST DUP2 EQ PUSH3 0x2DE JUMPI PUSH1 0x0 DUP1 REVERT JUMPDEST POP JUMP JUMPDEST PUSH1 0x0 DUP2 MLOAD SWAP1 POP PUSH3 0x2F2 DUP2 PUSH3 0x2C7 JUMP JUMPDEST SWAP3 SWAP2 POP POP JUMP JUMPDEST PUSH1 0x0 DUP1 PUSH1 0x0 DUP1 PUSH1 0x0 PUSH1 0xA0 DUP7 DUP9 SUB SLT ISZERO PUSH3 0x317 JUMPI PUSH3 0x316 PUSH3 0xCF JUMP JUMPDEST JUMPDEST PUSH1 0x0 DUP7 ADD MLOAD PUSH8 0xFFFFFFFFFFFFFFFF DUP2 GT ISZERO PUSH3 0x338 JUMPI PUSH3 0x337 PUSH3 0xD4 JUMP JUMPDEST JUMPDEST PUSH3 0x346 DUP9 DUP3 DUP10 ADD PUSH3 0x225 JUMP JUMPDEST SWAP6 POP POP PUSH1 0x20 PUSH3 0x359 DUP9 DUP3 DUP10 ADD PUSH3 0x2A6 JUMP JUMPDEST SWAP5 POP POP PUSH1 0x40 DUP7 ADD MLOAD PUSH8 0xFFFFFFFFFFFFFFFF DUP2 GT ISZERO PUSH3 0x37D JUMPI PUSH3 0x37C PUSH3 0xD4 JUMP JUMPDEST JUMPDEST PUSH3 0x38B DUP9 DUP3 DUP10 ADD PUSH3 0x225 JUMP JUMPDEST SWAP4 POP POP PUSH1 0x60 DUP7 ADD MLOAD PUSH8 0xFFFFFFFFFFFFFFFF DUP2 GT ISZERO PUSH3 0x3AF JUMPI PUSH3 0x3AE PUSH3 0xD4 JUMP JUMPDEST JUMPDEST PUSH3 0x3BD DUP9 DUP3 DUP10 ADD PUSH3 0x225 JUMP JUMPDEST SWAP3 POP POP PUSH1 0x80 PUSH3 0x3D0 DUP9 DUP3 DUP10 ADD PUSH3 0x2E1 JUMP JUMPDEST SWAP2 POP POP SWAP3 SWAP6 POP SWAP3 SWAP6 SWAP1 SWAP4 POP JUMP JUMPDEST PUSH1 0x0 DUP2 MLOAD SWAP1 POP SWAP2 SWAP1 POP JUMP JUMPDEST PUSH32 0x4E487B7100000000000000000000000000000000000000000000000000000000 PUSH1 0x0 MSTORE PUSH1 0x22 PUSH1 0x4 MSTORE PUSH1 0x24 PUSH1 0x0 REVERT JUMPDEST PUSH1 0x0 PUSH1 0x2 DUP3 DIV SWAP1 POP PUSH1 0x1 DUP3 AND DUP1 PUSH3 0x430 JUMPI PUSH1 0x7F DUP3 AND SWAP2 POP JUMPDEST PUSH1 0x20 DUP3 LT DUP2 SUB PUSH3 0x446 JUMPI PUSH3 0x445 PUSH3 0x3E8 JUMP JUMPDEST JUMPDEST POP SWAP2 SWAP1 POP JUMP JUMPDEST PUSH1 0x0 DUP2 SWAP1 POP DUP2 PUSH1 0x0 MSTORE PUSH1 0x20 PUSH1 0x0 KECCAK256 SWAP1 POP SWAP2 SWAP1 POP JUMP JUMPDEST PUSH1 0x0 PUSH1 0x20 PUSH1 0x1F DUP4 ADD DIV SWAP1 POP SWAP2 SWAP1 POP JUMP JUMPDEST PUSH1 0x0 DUP3 DUP3 SHL SWAP1 POP SWAP3 SWAP2 POP POP JUMP JUMPDEST PUSH1 0x0 PUSH1 0x8 DUP4 MUL PUSH3 0x4B0 PUSH32 0xFFFFFFFFFFFFFFFFFFFFFFFFFFFFFFFFFFFFFFFFFFFFFFFFFFFFFFFFFFFFFFFF DUP3 PUSH3 0x471 JUMP JUMPDEST PUSH3 0x4BC DUP7 DUP4 PUSH3 0x471 JUMP JUMPDEST SWAP6 POP DUP1 NOT DUP5 AND SWAP4 POP DUP1 DUP7 AND DUP5 OR SWAP3 POP POP POP SWAP4 SWAP3 POP POP POP JUMP JUMPDEST PUSH1 0x0 DUP2 SWAP1 POP SWAP2 SWAP1 POP JUMP JUMPDEST PUSH1 0x0 PUSH3 0x4FF PUSH3 0x4F9 PUSH3 0x4F3 DUP5 PUSH3 0x2BD JUMP JUMPDEST PUSH3 0x4D4 JUMP JUMPDEST PUSH3 0x2BD JUMP JUMPDEST SWAP1 POP SWAP2 SWAP1 POP JUMP JUMPDEST PUSH1 0x0 DUP2 SWAP1 POP SWAP2 SWAP1 POP JUMP JUMPDEST PUSH3 0x51B DUP4 PUSH3 0x4DE JUMP JUMPDEST PUSH3 0x533 PUSH3 0x52A DUP3 PUSH3 0x506 JUMP JUMPDEST DUP5 DUP5 SLOAD PUSH3 0x47E JUMP JUMPDEST DUP3 SSTORE POP POP POP POP JUMP JUMPDEST PUSH1 0x0 SWAP1 JUMP JUMPDEST PUSH3 0x54A PUSH3 0x53B JUMP JUMPDEST PUSH3 0x557 DUP2 DUP5 DUP5 PUSH3 0x510 JUMP JUMPDEST POP POP POP JUMP JUMPDEST JUMPDEST DUP2 DUP2 LT ISZERO PUSH3 0x57F JUMPI PUSH3 0x573 PUSH1 0x0 DUP3 PUSH3 0x540 JUMP JUMPDEST PUSH1 0x1 DUP2 ADD SWAP1 POP PUSH3 0x55D JUMP JUMPDEST POP POP JUMP JUMPDEST PUSH1 0x1F DUP3 GT ISZERO PUSH3 0x5CE JUMPI PUSH3 0x598 DUP2 PUSH3 0x44C JUMP JUMPDEST PUSH3 0x5A3 DUP5 PUSH3 0x461 JUMP JUMPDEST DUP2 ADD PUSH1 0x20 DUP6 LT ISZERO PUSH3 0x5B3 JUMPI DUP2 SWAP1 POP JUMPDEST PUSH3 0x5CB PUSH3 0x5C2 DUP6 PUSH3 0x461 JUMP JUMPDEST DUP4 ADD DUP3 PUSH3 0x55C JUMP JUMPDEST POP POP JUMPDEST POP POP POP JUMP JUMPDEST PUSH1 0x0 DUP3 DUP3 SHR SWAP1 POP SWAP3 SWAP2 POP POP JUMP JUMPDEST PUSH1 0x0 PUSH3 0x5F3 PUSH1 0x0 NOT DUP5 PUSH1 0x8 MUL PUSH3 0x5D3 JUMP JUMPDEST NOT DUP1 DUP4 AND SWAP2 POP POP SWAP3 SWAP2 POP POP JUMP JUMPDEST PUSH1 0x0 PUSH3 0x60E DUP4 DUP4 PUSH3 0x5E0 JUMP JUMPDEST SWAP2 POP DUP3 PUSH1 0x2 MUL DUP3 OR SWAP1 POP SWAP3 SWAP2 POP POP JUMP JUMPDEST PUSH3 0x629 DUP3 PUSH3 0x3DD JUMP JUMPDEST PUSH8 0xFFFFFFFFFFFFFFFF DUP2 GT ISZERO PUSH3 0x645 JUMPI PUSH3 0x644 PUSH3 0xF4 JUMP JUMPDEST JUMPDEST PUSH3 0x651 DUP3 SLOAD PUSH3 0x417 JUMP JUMPDEST PUSH3 0x65E DUP3 DUP3 DUP6 PUSH3 0x583 JUMP JUMPDEST PUSH1 0x0 PUSH1 0x20 SWAP1 POP PUSH1 0x1F DUP4 GT PUSH1 0x1 DUP2 EQ PUSH3 0x696 JUMPI PUSH1 0x0 DUP5 ISZERO PUSH3 0x681 JUMPI DUP3 DUP8 ADD MLOAD SWAP1 POP JUMPDEST PUSH3 0x68D DUP6 DUP3 PUSH3 0x600 JUMP JUMPDEST DUP7 SSTORE POP PUSH3 0x6FD JUMP JUMPDEST PUSH1 0x1F NOT DUP5 AND PUSH3 0x6A6 DUP7 PUSH3 0x44C JUMP JUMPDEST PUSH1 0x0 JUMPDEST DUP3 DUP2 LT ISZERO PUSH3 0x6D0 JUMPI DUP5 DUP10 ADD MLOAD DUP3 SSTORE PUSH1 0x1 DUP3 ADD SWAP2 POP PUSH1 0x20 DUP6 ADD SWAP5 POP PUSH1 0x20 DUP2 ADD SWAP1 POP PUSH3 0x6A9 JUMP JUMPDEST DUP7 DUP4 LT ISZERO PUSH3 0x6F0 JUMPI DUP5 DUP10 ADD MLOAD PUSH3 0x6EC PUSH1 0x1F DUP10 AND DUP3 PUSH3 0x5E0 JUMP JUMPDEST DUP4 SSTORE POP JUMPDEST PUSH1 0x1 PUSH1 0x2 DUP9 MUL ADD DUP9 SSTORE POP POP POP JUMPDEST POP POP POP POP POP POP JUMP JUMPDEST PUSH1 0x80 MLOAD PUSH2 0x514 PUSH3 0x721 PUSH1 0x0 CODECOPY PUSH1 0x0 PUSH2 0x178 ADD MSTORE PUSH2 0x514 PUSH1 0x0 RETURN INVALID PUSH1 0x80 PUSH1 0x40 MSTORE PUSH1 0x4 CALLDATASIZE LT PUSH2 0x43 JUMPI PUSH1 0x0 CALLDATALOAD PUSH1 0xE0 SHR DUP1 PUSH4 0x38CC4831 EQ PUSH2 0xC2 JUMPI DUP1 PUSH4 0x58B08D2E EQ PUSH2 0xED JUMPI DUP1 PUSH4 0x835FC6CA EQ PUSH2 0x118 JUMPI DUP1 PUSH4 0xB93CDB7B EQ PUSH2 0x141 JUMPI PUSH2 0x85 JUMP JUMPDEST CALLDATASIZE PUSH2 0x85 JUMPI PUSH32 0x2D27851832FCAC28A0D4AF1344F01FED7FFCFD15171C14C564A0C42AA57AE5C0 CALLVALUE ADDRESS SELFBALANCE PUSH1 0x40 MLOAD PUSH2 0x7B SWAP4 SWAP3 SWAP2 SWAP1 PUSH2 0x30C JUMP JUMPDEST PUSH1 0x40 MLOAD DUP1 SWAP2 SUB SWAP1 LOG1 STOP JUMPDEST PUSH32 0x2D27851832FCAC28A0D4AF1344F01FED7FFCFD15171C14C564A0C42AA57AE5C0 CALLVALUE ADDRESS SELFBALANCE PUSH1 0x40 MLOAD PUSH2 0xB8 SWAP4 SWAP3 SWAP2 SWAP1 PUSH2 0x30C JUMP JUMPDEST PUSH1 0x40 MLOAD DUP1 SWAP2 SUB SWAP1 LOG1 STOP JUMPDEST CALLVALUE DUP1 ISZERO PUSH2 0xCE JUMPI PUSH1 0x0 DUP1 REVERT JUMPDEST POP PUSH2 0xD7 PUSH2 0x16C JUMP JUMPDEST PUSH1 0x40 MLOAD PUSH2 0xE4 SWAP2 SWAP1 PUSH2 0x343 JUMP JUMPDEST PUSH1 0x40 MLOAD DUP1 SWAP2 SUB SWAP1 RETURN JUMPDEST CALLVALUE DUP1 ISZERO PUSH2 0xF9 JUMPI PUSH1 0x0 DUP1 REVERT JUMPDEST POP PUSH2 0x102 PUSH2 0x174 JUMP JUMPDEST PUSH1 0x40 MLOAD PUSH2 0x10F SWAP2 SWAP1 PUSH2 0x35E JUMP JUMPDEST PUSH1 0x40 MLOAD DUP1 SWAP2 SUB SWAP1 RETURN JUMPDEST CALLVALUE DUP1 ISZERO PUSH2 0x124 JUMPI PUSH1 0x0 DUP1 REVERT JUMPDEST POP PUSH2 0x13F PUSH1 0x4 DUP1 CALLDATASIZE SUB DUP2 ADD SWAP1 PUSH2 0x13A SWAP2 SWAP1 PUSH2 0x3AA JUMP JUMPDEST PUSH2 0x19C JUMP JUMPDEST STOP JUMPDEST CALLVALUE DUP1 ISZERO PUSH2 0x14D JUMPI PUSH1 0x0 DUP1 REVERT JUMPDEST POP PUSH2 0x156 PUSH2 0x2AA JUMP JUMPDEST PUSH1 0x40 MLOAD PUSH2 0x163 SWAP2 SWAP1 PUSH2 0x35E JUMP JUMPDEST PUSH1 0x40 MLOAD DUP1 SWAP2 SUB SWAP1 RETURN JUMPDEST PUSH1 0x0 ADDRESS SWAP1 POP SWAP1 JUMP JUMPDEST PUSH1 0x0 PUSH32 0x0 SWAP1 POP SWAP1 JUMP JUMPDEST DUP1 SELFBALANCE LT ISZERO PUSH2 0x1DF JUMPI PUSH1 0x40 MLOAD PUSH32 0x8C379A000000000000000000000000000000000000000000000000000000000 DUP2 MSTORE PUSH1 0x4 ADD PUSH2 0x1D6 SWAP1 PUSH2 0x434 JUMP JUMPDEST PUSH1 0x40 MLOAD DUP1 SWAP2 SUB SWAP1 REVERT JUMPDEST PUSH1 0x0 PUSH1 0x1 PUSH1 0x0 SWAP1 SLOAD SWAP1 PUSH2 0x100 EXP SWAP1 DIV PUSH20 0xFFFFFFFFFFFFFFFFFFFFFFFFFFFFFFFFFFFFFFFF AND PUSH20 0xFFFFFFFFFFFFFFFFFFFFFFFFFFFFFFFFFFFFFFFF AND DUP3 PUSH1 0x40 MLOAD PUSH2 0x227 SWAP1 PUSH2 0x485 JUMP JUMPDEST PUSH1 0x0 PUSH1 0x40 MLOAD DUP1 DUP4 SUB DUP2 DUP6 DUP8 GAS CALL SWAP3 POP POP POP RETURNDATASIZE DUP1 PUSH1 0x0 DUP2 EQ PUSH2 0x264 JUMPI PUSH1 0x40 MLOAD SWAP2 POP PUSH1 0x1F NOT PUSH1 0x3F RETURNDATASIZE ADD AND DUP3 ADD PUSH1 0x40 MSTORE RETURNDATASIZE DUP3 MSTORE RETURNDATASIZE PUSH1 0x0 PUSH1 0x20 DUP5 ADD RETURNDATACOPY PUSH2 0x269 JUMP JUMPDEST PUSH1 0x60 SWAP2 POP JUMPDEST POP POP SWAP1 POP PUSH32 0x8FBD42AA6B9175C731EFE57E141436F5BB85231B5A377E39F53F8301ADE4836A DUP2 SELFBALANCE PUSH1 0x40 MLOAD PUSH2 0x29E SWAP3 SWAP2 SWAP1 PUSH2 0x4B5 JUMP JUMPDEST PUSH1 0x40 MLOAD DUP1 SWAP2 SUB SWAP1 LOG1 POP POP JUMP JUMPDEST PUSH1 0x0 SELFBALANCE SWAP1 POP SWAP1 JUMP JUMPDEST PUSH1 0x0 DUP2 SWAP1 POP SWAP2 SWAP1 POP JUMP JUMPDEST PUSH2 0x2C5 DUP2 PUSH2 0x2B2 JUMP JUMPDEST DUP3 MSTORE POP POP JUMP JUMPDEST PUSH1 0x0 PUSH20 0xFFFFFFFFFFFFFFFFFFFFFFFFFFFFFFFFFFFFFFFF DUP3 AND SWAP1 POP SWAP2 SWAP1 POP JUMP JUMPDEST PUSH1 0x0 PUSH2 0x2F6 DUP3 PUSH2 0x2CB JUMP JUMPDEST SWAP1 POP SWAP2 SWAP1 POP JUMP JUMPDEST PUSH2 0x306 DUP2 PUSH2 0x2EB JUMP JUMPDEST DUP3 MSTORE POP POP JUMP JUMPDEST PUSH1 0x0 PUSH1 0x60 DUP3 ADD SWAP1 POP PUSH2 0x321 PUSH1 0x0 DUP4 ADD DUP7 PUSH2 0x2BC JUMP JUMPDEST PUSH2 0x32E PUSH1 0x20 DUP4 ADD DUP6 PUSH2 0x2FD JUMP JUMPDEST PUSH2 0x33B PUSH1 0x40 DUP4 ADD DUP5 PUSH2 0x2BC JUMP JUMPDEST SWAP5 SWAP4 POP POP POP POP JUMP JUMPDEST PUSH1 0x0 PUSH1 0x20 DUP3 ADD SWAP1 POP PUSH2 0x358 PUSH1 0x0 DUP4 ADD DUP5 PUSH2 0x2FD JUMP JUMPDEST SWAP3 SWAP2 POP POP JUMP JUMPDEST PUSH1 0x0 PUSH1 0x20 DUP3 ADD SWAP1 POP PUSH2 0x373 PUSH1 0x0 DUP4 ADD DUP5 PUSH2 0x2BC JUMP JUMPDEST SWAP3 SWAP2 POP POP JUMP JUMPDEST PUSH1 0x0 DUP1 REVERT JUMPDEST PUSH2 0x387 DUP2 PUSH2 0x2B2 JUMP JUMPDEST DUP2 EQ PUSH2 0x392 JUMPI PUSH1 0x0 DUP1 REVERT JUMPDEST POP JUMP JUMPDEST PUSH1 0x0 DUP2 CALLDATALOAD SWAP1 POP PUSH2 0x3A4 DUP2 PUSH2 0x37E JUMP JUMPDEST SWAP3 SWAP2 POP POP JUMP JUMPDEST PUSH1 0x0 PUSH1 0x20 DUP3 DUP5 SUB SLT ISZERO PUSH2 0x3C0 JUMPI PUSH2 0x3BF PUSH2 0x379 JUMP JUMPDEST JUMPDEST PUSH1 0x0 PUSH2 0x3CE DUP5 DUP3 DUP6 ADD PUSH2 0x395 JUMP JUMPDEST SWAP2 POP POP SWAP3 SWAP2 POP POP JUMP JUMPDEST PUSH1 0x0 DUP3 DUP3 MSTORE PUSH1 0x20 DUP3 ADD SWAP1 POP SWAP3 SWAP2 POP POP JUMP JUMPDEST PUSH32 0x466F6E646F7320696E737566696369656E746573000000000000000000000000 PUSH1 0x0 DUP3 ADD MSTORE POP JUMP JUMPDEST PUSH1 0x0 PUSH2 0x41E PUSH1 0x14 DUP4 PUSH2 0x3D7 JUMP JUMPDEST SWAP2 POP PUSH2 0x429 DUP3 PUSH2 0x3E8 JUMP JUMPDEST PUSH1 0x20 DUP3 ADD SWAP1 POP SWAP2 SWAP1 POP JUMP JUMPDEST PUSH1 0x0 PUSH1 0x20 DUP3 ADD SWAP1 POP DUP2 DUP2 SUB PUSH1 0x0 DUP4 ADD MSTORE PUSH2 0x44D DUP2 PUSH2 0x411 JUMP JUMPDEST SWAP1 POP SWAP2 SWAP1 POP JUMP JUMPDEST PUSH1 0x0 DUP2 SWAP1 POP SWAP3 SWAP2 POP POP JUMP JUMPDEST POP JUMP JUMPDEST PUSH1 0x0 PUSH2 0x46F PUSH1 0x0 DUP4 PUSH2 0x454 JUMP JUMPDEST SWAP2 POP PUSH2 0x47A DUP3 PUSH2 0x45F JUMP JUMPDEST PUSH1 0x0 DUP3 ADD SWAP1 POP SWAP2 SWAP1 POP JUMP JUMPDEST PUSH1 0x0 PUSH2 0x490 DUP3 PUSH2 0x462 JUMP JUMPDEST SWAP2 POP DUP2 SWAP1 POP SWAP2 SWAP1 POP JUMP JUMPDEST PUSH1 0x0 DUP2 ISZERO ISZERO SWAP1 POP SWAP2 SWAP1 POP JUMP JUMPDEST PUSH2 0x4AF DUP2 PUSH2 0x49A JUMP JUMPDEST DUP3 MSTORE POP POP JUMP JUMPDEST PUSH1 0x0 PUSH1 0x40 DUP3 ADD SWAP1 POP PUSH2 0x4CA PUSH1 0x0 DUP4 ADD DUP6 PUSH2 0x4A6 JUMP JUMPDEST PUSH2 0x4D7 PUSH1 0x20 DUP4 ADD DUP5 PUSH2 0x2BC JUMP JUMPDEST SWAP4 SWAP3 POP POP POP JUMP INVALID LOG2 PUSH5 0x6970667358 0x22 SLT KECCAK256 DUP12 SSTORE DUP10 0xF9 MSIZE 0xA6 0xDC STATICCALL 0xF 0xBC PUSH12 0x1DF6DB50205E42948DC7C868 SHL BALANCE SUB 0xC8 NOT EQ 0xEF SSTORE PREVRANDAO PUSH5 0x736F6C6343 STOP ADDMOD SLT STOP CALLER "
				},
				"gasEstimates": {
					"creation": {
						"codeDepositCost": "260000",
						"executionCost": "infinite",
						"totalCost": "infinite"
					},
					"external": {
						"": "infinite",
						"getAddress()": "363",
						"getSalary()": "infinite",
						"showUserBalance()": "383",
						"withdrawal(uint256)": "infinite"
					}
				},
				"methodIdentifiers": {
					"getAddress()": "38cc4831",
					"getSalary()": "58b08d2e",
					"showUserBalance()": "b93cdb7b",
					"withdrawal(uint256)": "835fc6ca"
				}
			},
			"storageLayout": {
				"storage": [
					{
						"astId": 3,
						"contract": "Employee.sol:Employee",
						"label": "name",
						"offset": 0,
						"slot": "0",
						"type": "t_string_storage"
					},
					{
						"astId": 5,
						"contract": "Employee.sol:Employee",
						"label": "withdrawAddress",
						"offset": 0,
						"slot": "1",
						"type": "t_address"
					},
					{
						"astId": 139,
						"contract": "Employee.sol:Employee",
						"label": "profession",
						"offset": 0,
						"slot": "2",
						"type": "t_string_storage"
					},
					{
						"astId": 141,
						"contract": "Employee.sol:Employee",
						"label": "schedule",
						"offset": 0,
						"slot": "3",
						"type": "t_string_storage"
					}
				],
				"types": {
					"t_address": {
						"encoding": "inplace",
						"label": "address",
						"numberOfBytes": "20"
					},
					"t_string_storage": {
						"encoding": "bytes",
						"label": "string",
						"numberOfBytes": "32"
					}
				}
			},
			"userdoc": {
				"kind": "user",
				"methods": {},
				"version": 1
			}
		}
	}
}