{
	".learneth/Solidity para principiantes/10.3 Transacciones - Enviar Ether/sendingEther.sol": {
		"Charity": {
			"abi": [
				{
					"inputs": [],
					"stateMutability": "nonpayable",
					"type": "constructor"
				},
				{
					"inputs": [],
					"name": "donar",
					"outputs": [],
					"stateMutability": "payable",
					"type": "function"
				},
				{
					"inputs": [],
					"name": "owner",
					"outputs": [
						{
							"internalType": "address",
							"name": "",
							"type": "address"
						}
					],
					"stateMutability": "view",
					"type": "function"
				},
				{
					"inputs": [
						{
							"internalType": "address",
							"name": "newAddress",
							"type": "address"
						}
					],
					"name": "withdraw",
					"outputs": [],
					"stateMutability": "payable",
					"type": "function"
				}
			],
			"devdoc": {
				"kind": "dev",
				"methods": {},
				"version": 1
			},
			"evm": {
				"assembly": "    /* \".learneth/Solidity para principiantes/10.3 Transacciones - Enviar Ether/sendingEther.sol\":1485:1846  contract Charity {... */\n  mstore(0x40, 0x80)\n    /* \".learneth/Solidity para principiantes/10.3 Transacciones - Enviar Ether/sendingEther.sol\":1536:1585  constructor() {... */\n  callvalue\n  dup1\n  iszero\n  tag_1\n  jumpi\n  0x00\n  dup1\n  revert\ntag_1:\n  pop\n    /* \".learneth/Solidity para principiantes/10.3 Transacciones - Enviar Ether/sendingEther.sol\":1568:1578  msg.sender */\n  caller\n    /* \".learneth/Solidity para principiantes/10.3 Transacciones - Enviar Ether/sendingEther.sol\":1560:1565  owner */\n  0x00\n  dup1\n    /* \".learneth/Solidity para principiantes/10.3 Transacciones - Enviar Ether/sendingEther.sol\":1560:1578  owner = msg.sender */\n  0x0100\n  exp\n  dup2\n  sload\n  dup2\n  0xffffffffffffffffffffffffffffffffffffffff\n  mul\n  not\n  and\n  swap1\n  dup4\n  0xffffffffffffffffffffffffffffffffffffffff\n  and\n  mul\n  or\n  swap1\n  sstore\n  pop\n    /* \".learneth/Solidity para principiantes/10.3 Transacciones - Enviar Ether/sendingEther.sol\":1485:1846  contract Charity {... */\n  dataSize(sub_0)\n  dup1\n  dataOffset(sub_0)\n  0x00\n  codecopy\n  0x00\n  return\nstop\n\nsub_0: assembly {\n        /* \".learneth/Solidity para principiantes/10.3 Transacciones - Enviar Ether/sendingEther.sol\":1485:1846  contract Charity {... */\n      mstore(0x40, 0x80)\n      jumpi(tag_1, lt(calldatasize, 0x04))\n      shr(0xe0, calldataload(0x00))\n      dup1\n      0x13fc9b12\n      eq\n      tag_2\n      jumpi\n      dup1\n      0x51cff8d9\n      eq\n      tag_3\n      jumpi\n      dup1\n      0x8da5cb5b\n      eq\n      tag_4\n      jumpi\n    tag_1:\n      0x00\n      dup1\n      revert\n        /* \".learneth/Solidity para principiantes/10.3 Transacciones - Enviar Ether/sendingEther.sol\":1591:1625  function donar() public payable {} */\n    tag_2:\n      tag_5\n      tag_6\n      jump\t// in\n    tag_5:\n      stop\n        /* \".learneth/Solidity para principiantes/10.3 Transacciones - Enviar Ether/sendingEther.sol\":1631:1844  function withdraw(address newAddress) public payable {... */\n    tag_3:\n      tag_7\n      0x04\n      dup1\n      calldatasize\n      sub\n      dup2\n      add\n      swap1\n      tag_8\n      swap2\n      swap1\n      tag_9\n      jump\t// in\n    tag_8:\n      tag_10\n      jump\t// in\n    tag_7:\n      stop\n        /* \".learneth/Solidity para principiantes/10.3 Transacciones - Enviar Ether/sendingEther.sol\":1509:1529  address public owner */\n    tag_4:\n      callvalue\n      dup1\n      iszero\n      tag_11\n      jumpi\n      0x00\n      dup1\n      revert\n    tag_11:\n      pop\n      tag_12\n      tag_13\n      jump\t// in\n    tag_12:\n      mload(0x40)\n      tag_14\n      swap2\n      swap1\n      tag_15\n      jump\t// in\n    tag_14:\n      mload(0x40)\n      dup1\n      swap2\n      sub\n      swap1\n      return\n        /* \".learneth/Solidity para principiantes/10.3 Transacciones - Enviar Ether/sendingEther.sol\":1591:1625  function donar() public payable {} */\n    tag_6:\n      jump\t// out\n        /* \".learneth/Solidity para principiantes/10.3 Transacciones - Enviar Ether/sendingEther.sol\":1631:1844  function withdraw(address newAddress) public payable {... */\n    tag_10:\n        /* \".learneth/Solidity para principiantes/10.3 Transacciones - Enviar Ether/sendingEther.sol\":1695:1706  uint amount */\n      0x00\n        /* \".learneth/Solidity para principiantes/10.3 Transacciones - Enviar Ether/sendingEther.sol\":1709:1730  address(this).balance */\n      selfbalance\n        /* \".learneth/Solidity para principiantes/10.3 Transacciones - Enviar Ether/sendingEther.sol\":1695:1730  uint amount = address(this).balance */\n      swap1\n      pop\n        /* \".learneth/Solidity para principiantes/10.3 Transacciones - Enviar Ether/sendingEther.sol\":1742:1751  bool sent */\n      0x00\n        /* \".learneth/Solidity para principiantes/10.3 Transacciones - Enviar Ether/sendingEther.sol\":1756:1766  newAddress */\n      dup3\n        /* \".learneth/Solidity para principiantes/10.3 Transacciones - Enviar Ether/sendingEther.sol\":1756:1771  newAddress.call */\n      0xffffffffffffffffffffffffffffffffffffffff\n      and\n        /* \".learneth/Solidity para principiantes/10.3 Transacciones - Enviar Ether/sendingEther.sol\":1779:1785  amount */\n      dup3\n        /* \".learneth/Solidity para principiantes/10.3 Transacciones - Enviar Ether/sendingEther.sol\":1756:1790  newAddress.call{value: amount}(\"\") */\n      mload(0x40)\n      tag_18\n      swap1\n      tag_19\n      jump\t// in\n    tag_18:\n      0x00\n      mload(0x40)\n      dup1\n      dup4\n      sub\n      dup2\n      dup6\n      dup8\n      gas\n      call\n      swap3\n      pop\n      pop\n      pop\n      returndatasize\n      dup1\n      0x00\n      dup2\n      eq\n      tag_22\n      jumpi\n      mload(0x40)\n      swap2\n      pop\n      and(add(returndatasize, 0x3f), not(0x1f))\n      dup3\n      add\n      0x40\n      mstore\n      returndatasize\n      dup3\n      mstore\n      returndatasize\n      0x00\n      0x20\n      dup5\n      add\n      returndatacopy\n      jump(tag_21)\n    tag_22:\n      0x60\n      swap2\n      pop\n    tag_21:\n      pop\n        /* \".learneth/Solidity para principiantes/10.3 Transacciones - Enviar Ether/sendingEther.sol\":1741:1790  (bool sent,) = newAddress.call{value: amount}(\"\") */\n      pop\n      swap1\n      pop\n        /* \".learneth/Solidity para principiantes/10.3 Transacciones - Enviar Ether/sendingEther.sol\":1808:1812  sent */\n      dup1\n        /* \".learneth/Solidity para principiantes/10.3 Transacciones - Enviar Ether/sendingEther.sol\":1800:1837  require(sent, \"Failed to send Ether\") */\n      tag_23\n      jumpi\n      mload(0x40)\n      0x08c379a000000000000000000000000000000000000000000000000000000000\n      dup2\n      mstore\n      0x04\n      add\n      tag_24\n      swap1\n      tag_25\n      jump\t// in\n    tag_24:\n      mload(0x40)\n      dup1\n      swap2\n      sub\n      swap1\n      revert\n    tag_23:\n        /* \".learneth/Solidity para principiantes/10.3 Transacciones - Enviar Ether/sendingEther.sol\":1684:1844  {... */\n      pop\n      pop\n        /* \".learneth/Solidity para principiantes/10.3 Transacciones - Enviar Ether/sendingEther.sol\":1631:1844  function withdraw(address newAddress) public payable {... */\n      pop\n      jump\t// out\n        /* \".learneth/Solidity para principiantes/10.3 Transacciones - Enviar Ether/sendingEther.sol\":1509:1529  address public owner */\n    tag_13:\n      0x00\n      dup1\n      sload\n      swap1\n      0x0100\n      exp\n      swap1\n      div\n      0xffffffffffffffffffffffffffffffffffffffff\n      and\n      dup2\n      jump\t// out\n        /* \"#utility.yul\":7:146   */\n    tag_27:\n        /* \"#utility.yul\":53:58   */\n      0x00\n        /* \"#utility.yul\":91:97   */\n      dup2\n        /* \"#utility.yul\":78:98   */\n      calldataload\n        /* \"#utility.yul\":69:98   */\n      swap1\n      pop\n        /* \"#utility.yul\":107:140   */\n      tag_29\n        /* \"#utility.yul\":134:139   */\n      dup2\n        /* \"#utility.yul\":107:140   */\n      tag_30\n      jump\t// in\n    tag_29:\n        /* \"#utility.yul\":7:146   */\n      swap3\n      swap2\n      pop\n      pop\n      jump\t// out\n        /* \"#utility.yul\":152:481   */\n    tag_9:\n        /* \"#utility.yul\":211:217   */\n      0x00\n        /* \"#utility.yul\":260:262   */\n      0x20\n        /* \"#utility.yul\":248:257   */\n      dup3\n        /* \"#utility.yul\":239:246   */\n      dup5\n        /* \"#utility.yul\":235:258   */\n      sub\n        /* \"#utility.yul\":231:263   */\n      slt\n        /* \"#utility.yul\":228:347   */\n      iszero\n      tag_32\n      jumpi\n        /* \"#utility.yul\":266:345   */\n      tag_33\n      tag_34\n      jump\t// in\n    tag_33:\n        /* \"#utility.yul\":228:347   */\n    tag_32:\n        /* \"#utility.yul\":386:387   */\n      0x00\n        /* \"#utility.yul\":411:464   */\n      tag_35\n        /* \"#utility.yul\":456:463   */\n      dup5\n        /* \"#utility.yul\":447:453   */\n      dup3\n        /* \"#utility.yul\":436:445   */\n      dup6\n        /* \"#utility.yul\":432:454   */\n      add\n        /* \"#utility.yul\":411:464   */\n      tag_27\n      jump\t// in\n    tag_35:\n        /* \"#utility.yul\":401:464   */\n      swap2\n      pop\n        /* \"#utility.yul\":357:474   */\n      pop\n        /* \"#utility.yul\":152:481   */\n      swap3\n      swap2\n      pop\n      pop\n      jump\t// out\n        /* \"#utility.yul\":487:605   */\n    tag_36:\n        /* \"#utility.yul\":574:598   */\n      tag_38\n        /* \"#utility.yul\":592:597   */\n      dup2\n        /* \"#utility.yul\":574:598   */\n      tag_39\n      jump\t// in\n    tag_38:\n        /* \"#utility.yul\":569:572   */\n      dup3\n        /* \"#utility.yul\":562:599   */\n      mstore\n        /* \"#utility.yul\":487:605   */\n      pop\n      pop\n      jump\t// out\n        /* \"#utility.yul\":611:977   */\n    tag_40:\n        /* \"#utility.yul\":753:756   */\n      0x00\n        /* \"#utility.yul\":774:841   */\n      tag_42\n        /* \"#utility.yul\":838:840   */\n      0x14\n        /* \"#utility.yul\":833:836   */\n      dup4\n        /* \"#utility.yul\":774:841   */\n      tag_43\n      jump\t// in\n    tag_42:\n        /* \"#utility.yul\":767:841   */\n      swap2\n      pop\n        /* \"#utility.yul\":850:943   */\n      tag_44\n        /* \"#utility.yul\":939:942   */\n      dup3\n        /* \"#utility.yul\":850:943   */\n      tag_45\n      jump\t// in\n    tag_44:\n        /* \"#utility.yul\":968:970   */\n      0x20\n        /* \"#utility.yul\":963:966   */\n      dup3\n        /* \"#utility.yul\":959:971   */\n      add\n        /* \"#utility.yul\":952:971   */\n      swap1\n      pop\n        /* \"#utility.yul\":611:977   */\n      swap2\n      swap1\n      pop\n      jump\t// out\n        /* \"#utility.yul\":983:1381   */\n    tag_46:\n        /* \"#utility.yul\":1142:1145   */\n      0x00\n        /* \"#utility.yul\":1163:1246   */\n      tag_48\n        /* \"#utility.yul\":1244:1245   */\n      0x00\n        /* \"#utility.yul\":1239:1242   */\n      dup4\n        /* \"#utility.yul\":1163:1246   */\n      tag_49\n      jump\t// in\n    tag_48:\n        /* \"#utility.yul\":1156:1246   */\n      swap2\n      pop\n        /* \"#utility.yul\":1255:1348   */\n      tag_50\n        /* \"#utility.yul\":1344:1347   */\n      dup3\n        /* \"#utility.yul\":1255:1348   */\n      tag_51\n      jump\t// in\n    tag_50:\n        /* \"#utility.yul\":1373:1374   */\n      0x00\n        /* \"#utility.yul\":1368:1371   */\n      dup3\n        /* \"#utility.yul\":1364:1375   */\n      add\n        /* \"#utility.yul\":1357:1375   */\n      swap1\n      pop\n        /* \"#utility.yul\":983:1381   */\n      swap2\n      swap1\n      pop\n      jump\t// out\n        /* \"#utility.yul\":1387:1766   */\n    tag_19:\n        /* \"#utility.yul\":1571:1574   */\n      0x00\n        /* \"#utility.yul\":1593:1740   */\n      tag_53\n        /* \"#utility.yul\":1736:1739   */\n      dup3\n        /* \"#utility.yul\":1593:1740   */\n      tag_46\n      jump\t// in\n    tag_53:\n        /* \"#utility.yul\":1586:1740   */\n      swap2\n      pop\n        /* \"#utility.yul\":1757:1760   */\n      dup2\n        /* \"#utility.yul\":1750:1760   */\n      swap1\n      pop\n        /* \"#utility.yul\":1387:1766   */\n      swap2\n      swap1\n      pop\n      jump\t// out\n        /* \"#utility.yul\":1772:1994   */\n    tag_15:\n        /* \"#utility.yul\":1865:1869   */\n      0x00\n        /* \"#utility.yul\":1903:1905   */\n      0x20\n        /* \"#utility.yul\":1892:1901   */\n      dup3\n        /* \"#utility.yul\":1888:1906   */\n      add\n        /* \"#utility.yul\":1880:1906   */\n      swap1\n      pop\n        /* \"#utility.yul\":1916:1987   */\n      tag_55\n        /* \"#utility.yul\":1984:1985   */\n      0x00\n        /* \"#utility.yul\":1973:1982   */\n      dup4\n        /* \"#utility.yul\":1969:1986   */\n      add\n        /* \"#utility.yul\":1960:1966   */\n      dup5\n        /* \"#utility.yul\":1916:1987   */\n      tag_36\n      jump\t// in\n    tag_55:\n        /* \"#utility.yul\":1772:1994   */\n      swap3\n      swap2\n      pop\n      pop\n      jump\t// out\n        /* \"#utility.yul\":2000:2419   */\n    tag_25:\n        /* \"#utility.yul\":2166:2170   */\n      0x00\n        /* \"#utility.yul\":2204:2206   */\n      0x20\n        /* \"#utility.yul\":2193:2202   */\n      dup3\n        /* \"#utility.yul\":2189:2207   */\n      add\n        /* \"#utility.yul\":2181:2207   */\n      swap1\n      pop\n        /* \"#utility.yul\":2253:2262   */\n      dup2\n        /* \"#utility.yul\":2247:2251   */\n      dup2\n        /* \"#utility.yul\":2243:2263   */\n      sub\n        /* \"#utility.yul\":2239:2240   */\n      0x00\n        /* \"#utility.yul\":2228:2237   */\n      dup4\n        /* \"#utility.yul\":2224:2241   */\n      add\n        /* \"#utility.yul\":2217:2264   */\n      mstore\n        /* \"#utility.yul\":2281:2412   */\n      tag_57\n        /* \"#utility.yul\":2407:2411   */\n      dup2\n        /* \"#utility.yul\":2281:2412   */\n      tag_40\n      jump\t// in\n    tag_57:\n        /* \"#utility.yul\":2273:2412   */\n      swap1\n      pop\n        /* \"#utility.yul\":2000:2419   */\n      swap2\n      swap1\n      pop\n      jump\t// out\n        /* \"#utility.yul\":2506:2653   */\n    tag_49:\n        /* \"#utility.yul\":2607:2618   */\n      0x00\n        /* \"#utility.yul\":2644:2647   */\n      dup2\n        /* \"#utility.yul\":2629:2647   */\n      swap1\n      pop\n        /* \"#utility.yul\":2506:2653   */\n      swap3\n      swap2\n      pop\n      pop\n      jump\t// out\n        /* \"#utility.yul\":2659:2828   */\n    tag_43:\n        /* \"#utility.yul\":2743:2754   */\n      0x00\n        /* \"#utility.yul\":2777:2783   */\n      dup3\n        /* \"#utility.yul\":2772:2775   */\n      dup3\n        /* \"#utility.yul\":2765:2784   */\n      mstore\n        /* \"#utility.yul\":2817:2821   */\n      0x20\n        /* \"#utility.yul\":2812:2815   */\n      dup3\n        /* \"#utility.yul\":2808:2822   */\n      add\n        /* \"#utility.yul\":2793:2822   */\n      swap1\n      pop\n        /* \"#utility.yul\":2659:2828   */\n      swap3\n      swap2\n      pop\n      pop\n      jump\t// out\n        /* \"#utility.yul\":2834:2930   */\n    tag_39:\n        /* \"#utility.yul\":2871:2878   */\n      0x00\n        /* \"#utility.yul\":2900:2924   */\n      tag_63\n        /* \"#utility.yul\":2918:2923   */\n      dup3\n        /* \"#utility.yul\":2900:2924   */\n      tag_64\n      jump\t// in\n    tag_63:\n        /* \"#utility.yul\":2889:2924   */\n      swap1\n      pop\n        /* \"#utility.yul\":2834:2930   */\n      swap2\n      swap1\n      pop\n      jump\t// out\n        /* \"#utility.yul\":2936:3062   */\n    tag_64:\n        /* \"#utility.yul\":2973:2980   */\n      0x00\n        /* \"#utility.yul\":3013:3055   */\n      0xffffffffffffffffffffffffffffffffffffffff\n        /* \"#utility.yul\":3006:3011   */\n      dup3\n        /* \"#utility.yul\":3002:3056   */\n      and\n        /* \"#utility.yul\":2991:3056   */\n      swap1\n      pop\n        /* \"#utility.yul\":2936:3062   */\n      swap2\n      swap1\n      pop\n      jump\t// out\n        /* \"#utility.yul\":3191:3308   */\n    tag_34:\n        /* \"#utility.yul\":3300:3301   */\n      0x00\n        /* \"#utility.yul\":3297:3298   */\n      dup1\n        /* \"#utility.yul\":3290:3302   */\n      revert\n        /* \"#utility.yul\":3314:3484   */\n    tag_45:\n        /* \"#utility.yul\":3454:3476   */\n      0x4661696c656420746f2073656e64204574686572000000000000000000000000\n        /* \"#utility.yul\":3450:3451   */\n      0x00\n        /* \"#utility.yul\":3442:3448   */\n      dup3\n        /* \"#utility.yul\":3438:3452   */\n      add\n        /* \"#utility.yul\":3431:3477   */\n      mstore\n        /* \"#utility.yul\":3314:3484   */\n      pop\n      jump\t// out\n        /* \"#utility.yul\":3490:3604   */\n    tag_51:\n      pop\n      jump\t// out\n        /* \"#utility.yul\":3610:3732   */\n    tag_30:\n        /* \"#utility.yul\":3683:3707   */\n      tag_72\n        /* \"#utility.yul\":3701:3706   */\n      dup2\n        /* \"#utility.yul\":3683:3707   */\n      tag_39\n      jump\t// in\n    tag_72:\n        /* \"#utility.yul\":3676:3681   */\n      dup2\n        /* \"#utility.yul\":3673:3708   */\n      eq\n        /* \"#utility.yul\":3663:3726   */\n      tag_73\n      jumpi\n        /* \"#utility.yul\":3722:3723   */\n      0x00\n        /* \"#utility.yul\":3719:3720   */\n      dup1\n        /* \"#utility.yul\":3712:3724   */\n      revert\n        /* \"#utility.yul\":3663:3726   */\n    tag_73:\n        /* \"#utility.yul\":3610:3732   */\n      pop\n      jump\t// out\n\n    auxdata: 0xa26469706673582212207f0732541ede1e1748bcda65d589b436662bdb6b6fd585638c09ac21d20273db64736f6c63430008070033\n}\n",
				"bytecode": {
					"linkReferences": {},
					"object": "608060405234801561001057600080fd5b50336000806101000a81548173ffffffffffffffffffffffffffffffffffffffff021916908373ffffffffffffffffffffffffffffffffffffffff160217905550610319806100606000396000f3fe6080604052600436106100345760003560e01c806313fc9b121461003957806351cff8d9146100435780638da5cb5b1461005f575b600080fd5b61004161008a565b005b61005d6004803603810190610058919061017b565b61008c565b005b34801561006b57600080fd5b50610074610142565b6040516100819190610212565b60405180910390f35b565b600047905060008273ffffffffffffffffffffffffffffffffffffffff16826040516100b7906101fd565b60006040518083038185875af1925050503d80600081146100f4576040519150601f19603f3d011682016040523d82523d6000602084013e6100f9565b606091505b505090508061013d576040517f08c379a00000000000000000000000000000000000000000000000000000000081526004016101349061022d565b60405180910390fd5b505050565b60008054906101000a900473ffffffffffffffffffffffffffffffffffffffff1681565b600081359050610175816102cc565b92915050565b6000602082840312156101915761019061029b565b5b600061019f84828501610166565b91505092915050565b6101b181610269565b82525050565b60006101c4601483610258565b91506101cf826102a0565b602082019050919050565b60006101e760008361024d565b91506101f2826102c9565b600082019050919050565b6000610208826101da565b9150819050919050565b600060208201905061022760008301846101a8565b92915050565b60006020820190508181036000830152610246816101b7565b9050919050565b600081905092915050565b600082825260208201905092915050565b60006102748261027b565b9050919050565b600073ffffffffffffffffffffffffffffffffffffffff82169050919050565b600080fd5b7f4661696c656420746f2073656e64204574686572000000000000000000000000600082015250565b50565b6102d581610269565b81146102e057600080fd5b5056fea26469706673582212207f0732541ede1e1748bcda65d589b436662bdb6b6fd585638c09ac21d20273db64736f6c63430008070033",
					"opcodes": "PUSH1 0x80 PUSH1 0x40 MSTORE CALLVALUE DUP1 ISZERO PUSH2 0x10 JUMPI PUSH1 0x0 DUP1 REVERT JUMPDEST POP CALLER PUSH1 0x0 DUP1 PUSH2 0x100 EXP DUP2 SLOAD DUP2 PUSH20 0xFFFFFFFFFFFFFFFFFFFFFFFFFFFFFFFFFFFFFFFF MUL NOT AND SWAP1 DUP4 PUSH20 0xFFFFFFFFFFFFFFFFFFFFFFFFFFFFFFFFFFFFFFFF AND MUL OR SWAP1 SSTORE POP PUSH2 0x319 DUP1 PUSH2 0x60 PUSH1 0x0 CODECOPY PUSH1 0x0 RETURN INVALID PUSH1 0x80 PUSH1 0x40 MSTORE PUSH1 0x4 CALLDATASIZE LT PUSH2 0x34 JUMPI PUSH1 0x0 CALLDATALOAD PUSH1 0xE0 SHR DUP1 PUSH4 0x13FC9B12 EQ PUSH2 0x39 JUMPI DUP1 PUSH4 0x51CFF8D9 EQ PUSH2 0x43 JUMPI DUP1 PUSH4 0x8DA5CB5B EQ PUSH2 0x5F JUMPI JUMPDEST PUSH1 0x0 DUP1 REVERT JUMPDEST PUSH2 0x41 PUSH2 0x8A JUMP JUMPDEST STOP JUMPDEST PUSH2 0x5D PUSH1 0x4 DUP1 CALLDATASIZE SUB DUP2 ADD SWAP1 PUSH2 0x58 SWAP2 SWAP1 PUSH2 0x17B JUMP JUMPDEST PUSH2 0x8C JUMP JUMPDEST STOP JUMPDEST CALLVALUE DUP1 ISZERO PUSH2 0x6B JUMPI PUSH1 0x0 DUP1 REVERT JUMPDEST POP PUSH2 0x74 PUSH2 0x142 JUMP JUMPDEST PUSH1 0x40 MLOAD PUSH2 0x81 SWAP2 SWAP1 PUSH2 0x212 JUMP JUMPDEST PUSH1 0x40 MLOAD DUP1 SWAP2 SUB SWAP1 RETURN JUMPDEST JUMP JUMPDEST PUSH1 0x0 SELFBALANCE SWAP1 POP PUSH1 0x0 DUP3 PUSH20 0xFFFFFFFFFFFFFFFFFFFFFFFFFFFFFFFFFFFFFFFF AND DUP3 PUSH1 0x40 MLOAD PUSH2 0xB7 SWAP1 PUSH2 0x1FD JUMP JUMPDEST PUSH1 0x0 PUSH1 0x40 MLOAD DUP1 DUP4 SUB DUP2 DUP6 DUP8 GAS CALL SWAP3 POP POP POP RETURNDATASIZE DUP1 PUSH1 0x0 DUP2 EQ PUSH2 0xF4 JUMPI PUSH1 0x40 MLOAD SWAP2 POP PUSH1 0x1F NOT PUSH1 0x3F RETURNDATASIZE ADD AND DUP3 ADD PUSH1 0x40 MSTORE RETURNDATASIZE DUP3 MSTORE RETURNDATASIZE PUSH1 0x0 PUSH1 0x20 DUP5 ADD RETURNDATACOPY PUSH2 0xF9 JUMP JUMPDEST PUSH1 0x60 SWAP2 POP JUMPDEST POP POP SWAP1 POP DUP1 PUSH2 0x13D JUMPI PUSH1 0x40 MLOAD PUSH32 0x8C379A000000000000000000000000000000000000000000000000000000000 DUP2 MSTORE PUSH1 0x4 ADD PUSH2 0x134 SWAP1 PUSH2 0x22D JUMP JUMPDEST PUSH1 0x40 MLOAD DUP1 SWAP2 SUB SWAP1 REVERT JUMPDEST POP POP POP JUMP JUMPDEST PUSH1 0x0 DUP1 SLOAD SWAP1 PUSH2 0x100 EXP SWAP1 DIV PUSH20 0xFFFFFFFFFFFFFFFFFFFFFFFFFFFFFFFFFFFFFFFF AND DUP2 JUMP JUMPDEST PUSH1 0x0 DUP2 CALLDATALOAD SWAP1 POP PUSH2 0x175 DUP2 PUSH2 0x2CC JUMP JUMPDEST SWAP3 SWAP2 POP POP JUMP JUMPDEST PUSH1 0x0 PUSH1 0x20 DUP3 DUP5 SUB SLT ISZERO PUSH2 0x191 JUMPI PUSH2 0x190 PUSH2 0x29B JUMP JUMPDEST JUMPDEST PUSH1 0x0 PUSH2 0x19F DUP5 DUP3 DUP6 ADD PUSH2 0x166 JUMP JUMPDEST SWAP2 POP POP SWAP3 SWAP2 POP POP JUMP JUMPDEST PUSH2 0x1B1 DUP2 PUSH2 0x269 JUMP JUMPDEST DUP3 MSTORE POP POP JUMP JUMPDEST PUSH1 0x0 PUSH2 0x1C4 PUSH1 0x14 DUP4 PUSH2 0x258 JUMP JUMPDEST SWAP2 POP PUSH2 0x1CF DUP3 PUSH2 0x2A0 JUMP JUMPDEST PUSH1 0x20 DUP3 ADD SWAP1 POP SWAP2 SWAP1 POP JUMP JUMPDEST PUSH1 0x0 PUSH2 0x1E7 PUSH1 0x0 DUP4 PUSH2 0x24D JUMP JUMPDEST SWAP2 POP PUSH2 0x1F2 DUP3 PUSH2 0x2C9 JUMP JUMPDEST PUSH1 0x0 DUP3 ADD SWAP1 POP SWAP2 SWAP1 POP JUMP JUMPDEST PUSH1 0x0 PUSH2 0x208 DUP3 PUSH2 0x1DA JUMP JUMPDEST SWAP2 POP DUP2 SWAP1 POP SWAP2 SWAP1 POP JUMP JUMPDEST PUSH1 0x0 PUSH1 0x20 DUP3 ADD SWAP1 POP PUSH2 0x227 PUSH1 0x0 DUP4 ADD DUP5 PUSH2 0x1A8 JUMP JUMPDEST SWAP3 SWAP2 POP POP JUMP JUMPDEST PUSH1 0x0 PUSH1 0x20 DUP3 ADD SWAP1 POP DUP2 DUP2 SUB PUSH1 0x0 DUP4 ADD MSTORE PUSH2 0x246 DUP2 PUSH2 0x1B7 JUMP JUMPDEST SWAP1 POP SWAP2 SWAP1 POP JUMP JUMPDEST PUSH1 0x0 DUP2 SWAP1 POP SWAP3 SWAP2 POP POP JUMP JUMPDEST PUSH1 0x0 DUP3 DUP3 MSTORE PUSH1 0x20 DUP3 ADD SWAP1 POP SWAP3 SWAP2 POP POP JUMP JUMPDEST PUSH1 0x0 PUSH2 0x274 DUP3 PUSH2 0x27B JUMP JUMPDEST SWAP1 POP SWAP2 SWAP1 POP JUMP JUMPDEST PUSH1 0x0 PUSH20 0xFFFFFFFFFFFFFFFFFFFFFFFFFFFFFFFFFFFFFFFF DUP3 AND SWAP1 POP SWAP2 SWAP1 POP JUMP JUMPDEST PUSH1 0x0 DUP1 REVERT JUMPDEST PUSH32 0x4661696C656420746F2073656E64204574686572000000000000000000000000 PUSH1 0x0 DUP3 ADD MSTORE POP JUMP JUMPDEST POP JUMP JUMPDEST PUSH2 0x2D5 DUP2 PUSH2 0x269 JUMP JUMPDEST DUP2 EQ PUSH2 0x2E0 JUMPI PUSH1 0x0 DUP1 REVERT JUMPDEST POP JUMP INVALID LOG2 PUSH5 0x6970667358 0x22 SLT KECCAK256 PUSH32 0x732541EDE1E1748BCDA65D589B436662BDB6B6FD585638C09AC21D20273DB64 PUSH20 0x6F6C634300080700330000000000000000000000 "
				},
				"gasEstimates": {
					"creation": {
						"codeDepositCost": "158600",
						"executionCost": "24468",
						"totalCost": "183068"
					},
					"external": {
						"donar()": "98",
						"owner()": "2533",
						"withdraw(address)": "infinite"
					}
				},
				"methodIdentifiers": {
					"donar()": "13fc9b12",
					"owner()": "8da5cb5b",
					"withdraw(address)": "51cff8d9"
				}
			},
			"storageLayout": {
				"storage": [
					{
						"astId": 80,
						"contract": ".learneth/Solidity para principiantes/10.3 Transacciones - Enviar Ether/sendingEther.sol:Charity",
						"label": "owner",
						"offset": 0,
						"slot": "0",
						"type": "t_address"
					}
				],
				"types": {
					"t_address": {
						"encoding": "inplace",
						"label": "address",
						"numberOfBytes": "20"
					}
				}
			},
			"userdoc": {
				"kind": "user",
				"methods": {},
				"version": 1
			}
		}
	}
}