{
	"data": {
		"bytecode": {
			"linkReferences": {},
			"object": "608060405261002061001561002560201b60201c565b61002d60201b60201c565b6100f1565b600033905090565b60008060009054906101000a900473ffffffffffffffffffffffffffffffffffffffff169050816000806101000a81548173ffffffffffffffffffffffffffffffffffffffff021916908373ffffffffffffffffffffffffffffffffffffffff1602179055508173ffffffffffffffffffffffffffffffffffffffff168173ffffffffffffffffffffffffffffffffffffffff167f8be0079c531659141344cd1fd0a4f28419497f9722a3daafe3b4186f6b6457e060405160405180910390a35050565b613b69806101006000396000f3fe6080604052600436106200010f5760003560e01c8063a968b2b81162000097578063cd7d77c51162000061578063cd7d77c514620002dd578063eb20f21a146200030b578063ec3ab2741462000325578063f2fde38b146200033f5762000117565b8063a968b2b81462000245578063acef60371462000275578063b8d76b0314620002a3578063c2d2a83c14620002d15762000117565b806372673e3111620000d957806372673e311462000187578063805d0de414620001b557806385ffebd714620001e55780638da5cb5b14620002155762000117565b80632db3361b1462000119578063307ffa10146200012557806342e36b3b1462000153578063715018a6146200016d5762000117565b366200011757005b005b620001236200036d565b005b3480156200013257600080fd5b506200015160048036038101906200014b9190620012b0565b620004bd565b005b3480156200016057600080fd5b506200016b62000571565b005b3480156200017a57600080fd5b506200018562000721565b005b3480156200019457600080fd5b50620001b36004803603810190620001ad919062001376565b62000739565b005b348015620001c257600080fd5b50620001cd62000805565b604051620001dc9190620013ed565b60405180910390f35b348015620001f257600080fd5b50620001fd62000817565b6040516200020c91906200141b565b60405180910390f35b3480156200022257600080fd5b506200022d6200081f565b6040516200023c91906200141b565b60405180910390f35b3480156200025257600080fd5b506200025d62000848565b6040516200026c9190620013ed565b60405180910390f35b3480156200028257600080fd5b50620002a160048036038101906200029b919062001438565b6200085a565b005b348015620002b057600080fd5b50620002cf6004803603810190620002c991906200147f565b62000919565b005b620002db620009cd565b005b348015620002ea57600080fd5b5062000309600480360381019062000303919062001564565b62000b1d565b005b3480156200031857600080fd5b506200032362000c61565b005b3480156200033257600080fd5b506200033d62000cf6565b005b3480156200034c57600080fd5b506200036b600480360381019062000365919062001596565b62000d8f565b005b6000600760009054906101000a900473ffffffffffffffffffffffffffffffffffffffff1673ffffffffffffffffffffffffffffffffffffffff166338cc48316040518163ffffffff1660e01b8152600401602060405180830381865afa158015620003dd573d6000803e3d6000fd5b505050506040513d601f19601f82011682018060405250810190620004039190620015df565b73ffffffffffffffffffffffffffffffffffffffff1634604051620004289062001646565b60006040518083038185875af1925050503d806000811462000467576040519150601f19603f3d011682016040523d82523d6000602084013e6200046c565b606091505b505090506001151581151514620004ba576040517f08c379a0000000000000000000000000000000000000000000000000000000008152600401620004b190620016be565b60405180910390fd5b50565b620004c762000e19565b60048585858585604051620004dc906200107e565b620004ec95949392919062001758565b604051809103906000f08015801562000509573d6000803e3d6000fd5b509080600181540180825580915050600190039060005260206000200160009091909190916101000a81548173ffffffffffffffffffffffffffffffffffffffff021916908373ffffffffffffffffffffffffffffffffffffffff1602179055505050505050565b6200057b62000e19565b6200058562000e9e565b80471015620005cb576040517f08c379a0000000000000000000000000000000000000000000000000000000008152600401620005c29062001813565b60405180910390fd5b60005b600380549050811015620006f157620006db60038281548110620005f757620005f662001835565b5b9060005260206000200160009054906101000a900473ffffffffffffffffffffffffffffffffffffffff166003838154811062000639576200063862001835565b5b9060005260206000200160009054906101000a900473ffffffffffffffffffffffffffffffffffffffff1673ffffffffffffffffffffffffffffffffffffffff166358b08d2e6040518163ffffffff1660e01b8152600401602060405180830381865afa158015620006af573d6000803e3d6000fd5b505050506040513d601f19601f82011682018060405250810190620006d591906200187b565b6200085a565b8080620006e890620018dc565b915050620005ce565b507fac99d248d2229c2e3884679f08dfc1179a84bc4ab4f7d353ba4727301a0e92c860405160405180910390a150565b6200072b62000e19565b62000737600062000f96565b565b6200074362000e19565b60006040518060400160405280848152602001838152509050600581908060018154018082558091505060019003906000526020600020906002020160009091909190915060008201518160000190816200079f919062001b5f565b506020820151816001015550508160086000828254620007c0919062001c46565b925050819055507f0725855d9f6079b6055c84596852ab37b25e88a70077b4ce145b714da69952e583604051620007f8919062001c81565b60405180910390a1505050565b60008060038054905090508091505090565b600030905090565b60008060009054906101000a900473ffffffffffffffffffffffffffffffffffffffff16905090565b60008060048054905090508091505090565b60008273ffffffffffffffffffffffffffffffffffffffff1682604051620008829062001646565b60006040518083038185875af1925050503d8060008114620008c1576040519150601f19603f3d011682016040523d82523d6000602084013e620008c6565b606091505b50509050600115158115151462000914576040517f08c379a00000000000000000000000000000000000000000000000000000000081526004016200090b9062001cf5565b60405180910390fd5b505050565b6200092362000e19565b6003858585858560405162000938906200108c565b6200094895949392919062001d17565b604051809103906000f08015801562000965573d6000803e3d6000fd5b509080600181540180825580915050600190039060005260206000200160009091909190916101000a81548173ffffffffffffffffffffffffffffffffffffffff021916908373ffffffffffffffffffffffffffffffffffffffff1602179055505050505050565b6000600660009054906101000a900473ffffffffffffffffffffffffffffffffffffffff1673ffffffffffffffffffffffffffffffffffffffff166338cc48316040518163ffffffff1660e01b8152600401602060405180830381865afa15801562000a3d573d6000803e3d6000fd5b505050506040513d601f19601f8201168201806040525081019062000a639190620015df565b73ffffffffffffffffffffffffffffffffffffffff163460405162000a889062001646565b60006040518083038185875af1925050503d806000811462000ac7576040519150601f19603f3d011682016040523d82523d6000602084013e62000acc565b606091505b50509050600115158115151462000b1a576040517f08c379a000000000000000000000000000000000000000000000000000000000815260040162000b119062001dd9565b60405180910390fd5b50565b62000b2762000e19565b6005818154811062000b3e5762000b3d62001835565b5b9060005260206000209060020201600101548047101562000b96576040517f08c379a000000000000000000000000000000000000000000000000000000000815260040162000b8d9062001813565b60405180910390fd5b62000bd362000ba46200105a565b6005848154811062000bbb5762000bba62001835565b5b9060005260206000209060020201600101546200085a565b7fbdd3ce6daef876e6f1020c19e2c701e589832b856fa45c7bfc8934d9b2fc83236005838154811062000c0b5762000c0a62001835565b5b90600052602060002090600202016000016005848154811062000c335762000c3262001835565b5b90600052602060002090600202016001015460405162000c5592919062001e8b565b60405180910390a15050565b600760009054906101000a900473ffffffffffffffffffffffffffffffffffffffff1673ffffffffffffffffffffffffffffffffffffffff1663835fc6ca6103e86040518263ffffffff1660e01b815260040162000cc0919062001f02565b600060405180830381600087803b15801562000cdb57600080fd5b505af115801562000cf0573d6000803e3d6000fd5b50505050565b62000d0062000e19565b6008548047101562000d49576040517f08c379a000000000000000000000000000000000000000000000000000000000815260040162000d409062001813565b60405180910390fd5b62000d6062000d576200105a565b6008546200085a565b7fde91a2bb353cf3aa2530ccc4798647518c4db80e0ff05616c0f16e44fcf9df2560405160405180910390a150565b62000d9962000e19565b600073ffffffffffffffffffffffffffffffffffffffff168173ffffffffffffffffffffffffffffffffffffffff160362000e0b576040517f08c379a000000000000000000000000000000000000000000000000000000000815260040162000e029062001f95565b60405180910390fd5b62000e168162000f96565b50565b62000e2362001076565b73ffffffffffffffffffffffffffffffffffffffff1662000e436200081f565b73ffffffffffffffffffffffffffffffffffffffff161462000e9c576040517f08c379a000000000000000000000000000000000000000000000000000000000815260040162000e939062002007565b60405180910390fd5b565b6000806000905060005b60038054905081111562000f8e576003818154811062000ecd5762000ecc62001835565b5b9060005260206000200160009054906101000a900473ffffffffffffffffffffffffffffffffffffffff1673ffffffffffffffffffffffffffffffffffffffff166358b08d2e6040518163ffffffff1660e01b8152600401602060405180830381865afa15801562000f43573d6000803e3d6000fd5b505050506040513d601f19601f8201168201806040525081019062000f6991906200187b565b8262000f76919062001c46565b9150808062000f8590620018dc565b91505062000ea8565b508091505090565b60008060009054906101000a900473ffffffffffffffffffffffffffffffffffffffff169050816000806101000a81548173ffffffffffffffffffffffffffffffffffffffff021916908373ffffffffffffffffffffffffffffffffffffffff1602179055508173ffffffffffffffffffffffffffffffffffffffff168173ffffffffffffffffffffffffffffffffffffffff167f8be0079c531659141344cd1fd0a4f28419497f9722a3daafe3b4186f6b6457e060405160405180910390a35050565b600073dd870fa1b7c4700f2bd7f44238821c26f7392148905090565b600033905090565b610ed5806200202a83390190565b610c358062002eff83390190565b6000604051905090565b600080fd5b600080fd5b600080fd5b600080fd5b6000601f19601f8301169050919050565b7f4e487b7100000000000000000000000000000000000000000000000000000000600052604160045260246000fd5b6200110382620010b8565b810181811067ffffffffffffffff82111715620011255762001124620010c9565b5b80604052505050565b60006200113a6200109a565b9050620011488282620010f8565b919050565b600067ffffffffffffffff8211156200116b576200116a620010c9565b5b6200117682620010b8565b9050602081019050919050565b82818337600083830152505050565b6000620011a9620011a3846200114d565b6200112e565b905082815260208101848484011115620011c857620011c7620010b3565b5b620011d584828562001183565b509392505050565b600082601f830112620011f557620011f4620010ae565b5b81356200120784826020860162001192565b91505092915050565b600073ffffffffffffffffffffffffffffffffffffffff82169050919050565b60006200123d8262001210565b9050919050565b6200124f8162001230565b81146200125b57600080fd5b50565b6000813590506200126f8162001244565b92915050565b6000819050919050565b6200128a8162001275565b81146200129657600080fd5b50565b600081359050620012aa816200127f565b92915050565b600080600080600060a08688031215620012cf57620012ce620010a4565b5b600086013567ffffffffffffffff811115620012f057620012ef620010a9565b5b620012fe88828901620011dd565b955050602062001311888289016200125e565b9450506040620013248882890162001299565b935050606086013567ffffffffffffffff811115620013485762001347620010a9565b5b6200135688828901620011dd565b925050608062001369888289016200125e565b9150509295509295909350565b6000806040838503121562001390576200138f620010a4565b5b600083013567ffffffffffffffff811115620013b157620013b0620010a9565b5b620013bf85828601620011dd565b9250506020620013d28582860162001299565b9150509250929050565b620013e78162001275565b82525050565b6000602082019050620014046000830184620013dc565b92915050565b620014158162001230565b82525050565b60006020820190506200143260008301846200140a565b92915050565b60008060408385031215620014525762001451620010a4565b5b600062001462858286016200125e565b9250506020620014758582860162001299565b9150509250929050565b600080600080600060a086880312156200149e576200149d620010a4565b5b600086013567ffffffffffffffff811115620014bf57620014be620010a9565b5b620014cd88828901620011dd565b9550506020620014e0888289016200125e565b945050604086013567ffffffffffffffff811115620015045762001503620010a9565b5b6200151288828901620011dd565b935050606086013567ffffffffffffffff811115620015365762001535620010a9565b5b6200154488828901620011dd565b9250506080620015578882890162001299565b9150509295509295909350565b6000602082840312156200157d576200157c620010a4565b5b60006200158d8482850162001299565b91505092915050565b600060208284031215620015af57620015ae620010a4565b5b6000620015bf848285016200125e565b91505092915050565b600081519050620015d98162001244565b92915050565b600060208284031215620015f857620015f7620010a4565b5b60006200160884828501620015c8565b91505092915050565b600081905092915050565b50565b60006200162e60008362001611565b91506200163b826200161c565b600082019050919050565b600062001653826200161f565b9150819050919050565b600082825260208201905092915050565b7f54656e616e74206e6f207075646f207265636962697220666f6e646f73000000600082015250565b6000620016a6601d836200165d565b9150620016b3826200166e565b602082019050919050565b60006020820190508181036000830152620016d98162001697565b9050919050565b600081519050919050565b60005b838110156200170b578082015181840152602081019050620016ee565b60008484015250505050565b60006200172482620016e0565b6200173081856200165d565b935062001742818560208601620016eb565b6200174d81620010b8565b840191505092915050565b600060a082019050818103600083015262001774818862001717565b90506200178560208301876200140a565b620017946040830186620013dc565b8181036060830152620017a8818562001717565b9050620017b960808301846200140a565b9695505050505050565b7f466f6e646f7320696e737566696369656e746573000000000000000000000000600082015250565b6000620017fb6014836200165d565b91506200180882620017c3565b602082019050919050565b600060208201905081810360008301526200182e81620017ec565b9050919050565b7f4e487b7100000000000000000000000000000000000000000000000000000000600052603260045260246000fd5b60008151905062001875816200127f565b92915050565b600060208284031215620018945762001893620010a4565b5b6000620018a48482850162001864565b91505092915050565b7f4e487b7100000000000000000000000000000000000000000000000000000000600052601160045260246000fd5b6000620018e98262001275565b91507fffffffffffffffffffffffffffffffffffffffffffffffffffffffffffffffff82036200191e576200191d620018ad565b5b600182019050919050565b7f4e487b7100000000000000000000000000000000000000000000000000000000600052602260045260246000fd5b600060028204905060018216806200197157607f821691505b60208210810362001987576200198662001929565b5b50919050565b60008190508160005260206000209050919050565b60006020601f8301049050919050565b600082821b905092915050565b600060088302620019f17fffffffffffffffffffffffffffffffffffffffffffffffffffffffffffffffff82620019b2565b620019fd8683620019b2565b95508019841693508086168417925050509392505050565b6000819050919050565b600062001a4062001a3a62001a348462001275565b62001a15565b62001275565b9050919050565b6000819050919050565b62001a5c8362001a1f565b62001a7462001a6b8262001a47565b848454620019bf565b825550505050565b600090565b62001a8b62001a7c565b62001a9881848462001a51565b505050565b5b8181101562001ac05762001ab460008262001a81565b60018101905062001a9e565b5050565b601f82111562001b0f5762001ad9816200198d565b62001ae484620019a2565b8101602085101562001af4578190505b62001b0c62001b0385620019a2565b83018262001a9d565b50505b505050565b600082821c905092915050565b600062001b346000198460080262001b14565b1980831691505092915050565b600062001b4f838362001b21565b9150826002028217905092915050565b62001b6a82620016e0565b67ffffffffffffffff81111562001b865762001b85620010c9565b5b62001b92825462001958565b62001b9f82828562001ac4565b600060209050601f83116001811462001bd7576000841562001bc2578287015190505b62001bce858262001b41565b86555062001c3e565b601f19841662001be7866200198d565b60005b8281101562001c115784890151825560018201915060208501945060208101905062001bea565b8683101562001c31578489015162001c2d601f89168262001b21565b8355505b6001600288020188555050505b505050505050565b600062001c538262001275565b915062001c608362001275565b925082820190508082111562001c7b5762001c7a620018ad565b5b92915050565b6000602082019050818103600083015262001c9d818462001717565b905092915050565b7f46616c6c6f206c61207472616e73666572656e63696100000000000000000000600082015250565b600062001cdd6016836200165d565b915062001cea8262001ca5565b602082019050919050565b6000602082019050818103600083015262001d108162001cce565b9050919050565b600060a082019050818103600083015262001d33818862001717565b905062001d4460208301876200140a565b818103604083015262001d58818662001717565b9050818103606083015262001d6e818562001717565b905062001d7f6080830184620013dc565b9695505050505050565b7f456d706c6f796565206e6f207075646f207265636962697220666f6e646f7300600082015250565b600062001dc1601f836200165d565b915062001dce8262001d89565b602082019050919050565b6000602082019050818103600083015262001df48162001db2565b9050919050565b6000815462001e0a8162001958565b62001e1681866200165d565b9450600182166000811462001e34576001811462001e4b5762001e82565b60ff19831686528115156020028601935062001e82565b62001e56856200198d565b60005b8381101562001e7a5781548189015260018201915060208101905062001e59565b808801955050505b50505092915050565b6000604082019050818103600083015262001ea7818562001dfb565b905062001eb86020830184620013dc565b9392505050565b6000819050919050565b600062001eea62001ee462001ede8462001ebf565b62001a15565b62001275565b9050919050565b62001efc8162001ec9565b82525050565b600060208201905062001f19600083018462001ef1565b92915050565b7f4f776e61626c653a206e6577206f776e657220697320746865207a65726f206160008201527f6464726573730000000000000000000000000000000000000000000000000000602082015250565b600062001f7d6026836200165d565b915062001f8a8262001f1f565b604082019050919050565b6000602082019050818103600083015262001fb08162001f6e565b9050919050565b7f4f776e61626c653a2063616c6c6572206973206e6f7420746865206f776e6572600082015250565b600062001fef6020836200165d565b915062001ffc8262001fb7565b602082019050919050565b60006020820190508181036000830152620020228162001fe0565b905091905056fe608060405260405162000ed538038062000ed5833981810160405281019062000029919062000318565b848481600090816200003c91906200061f565b5080600160006101000a81548173ffffffffffffffffffffffffffffffffffffffff021916908373ffffffffffffffffffffffffffffffffffffffff16021790555050508260028190555081600390816200009891906200061f565b5080600460006101000a81548173ffffffffffffffffffffffffffffffffffffffff021916908373ffffffffffffffffffffffffffffffffffffffff160217905550505050505062000706565b6000604051905090565b600080fd5b600080fd5b600080fd5b600080fd5b6000601f19601f8301169050919050565b7f4e487b7100000000000000000000000000000000000000000000000000000000600052604160045260246000fd5b6200014e8262000103565b810181811067ffffffffffffffff8211171562000170576200016f62000114565b5b80604052505050565b600062000185620000e5565b905062000193828262000143565b919050565b600067ffffffffffffffff821115620001b657620001b562000114565b5b620001c18262000103565b9050602081019050919050565b60005b83811015620001ee578082015181840152602081019050620001d1565b60008484015250505050565b6000620002116200020b8462000198565b62000179565b90508281526020810184848401111562000230576200022f620000fe565b5b6200023d848285620001ce565b509392505050565b600082601f8301126200025d576200025c620000f9565b5b81516200026f848260208601620001fa565b91505092915050565b600073ffffffffffffffffffffffffffffffffffffffff82169050919050565b6000620002a58262000278565b9050919050565b620002b78162000298565b8114620002c357600080fd5b50565b600081519050620002d781620002ac565b92915050565b6000819050919050565b620002f281620002dd565b8114620002fe57600080fd5b50565b6000815190506200031281620002e7565b92915050565b600080600080600060a08688031215620003375762000336620000ef565b5b600086015167ffffffffffffffff811115620003585762000357620000f4565b5b620003668882890162000245565b95505060206200037988828901620002c6565b94505060406200038c8882890162000301565b935050606086015167ffffffffffffffff811115620003b057620003af620000f4565b5b620003be8882890162000245565b9250506080620003d188828901620002c6565b9150509295509295909350565b600081519050919050565b7f4e487b7100000000000000000000000000000000000000000000000000000000600052602260045260246000fd5b600060028204905060018216806200043157607f821691505b602082108103620004475762000446620003e9565b5b50919050565b60008190508160005260206000209050919050565b60006020601f8301049050919050565b600082821b905092915050565b600060088302620004b17fffffffffffffffffffffffffffffffffffffffffffffffffffffffffffffffff8262000472565b620004bd868362000472565b95508019841693508086168417925050509392505050565b6000819050919050565b600062000500620004fa620004f484620002dd565b620004d5565b620002dd565b9050919050565b6000819050919050565b6200051c83620004df565b620005346200052b8262000507565b8484546200047f565b825550505050565b600090565b6200054b6200053c565b6200055881848462000511565b505050565b5b8181101562000580576200057460008262000541565b6001810190506200055e565b5050565b601f821115620005cf5762000599816200044d565b620005a48462000462565b81016020851015620005b4578190505b620005cc620005c38562000462565b8301826200055d565b50505b505050565b600082821c905092915050565b6000620005f460001984600802620005d4565b1980831691505092915050565b60006200060f8383620005e1565b9150826002028217905092915050565b6200062a82620003de565b67ffffffffffffffff81111562000646576200064562000114565b5b62000652825462000418565b6200065f82828562000584565b600060209050601f83116001811462000697576000841562000682578287015190505b6200068e858262000601565b865550620006fe565b601f198416620006a7866200044d565b60005b82811015620006d157848901518255600182019150602085019450602081019050620006aa565b86831015620006f15784890151620006ed601f891682620005e1565b8355505b6001600288020188555050505b505050505050565b6107bf80620007166000396000f3fe6080604052600436106100595760003560e01c806338cc4831146100d85780636c213b6114610103578063835fc6ca1461012c578063b93cdb7b14610155578063d0e30db014610180578063da6e75c21461018a5761009b565b3661009b577f2d27851832fcac28a0d4af1344f01fed7ffcfd15171c14c564a0c42aa57ae5c0343047604051610091939291906104f2565b60405180910390a1005b7f2d27851832fcac28a0d4af1344f01fed7ffcfd15171c14c564a0c42aa57ae5c03430476040516100ce939291906104f2565b60405180910390a1005b3480156100e457600080fd5b506100ed6101a1565b6040516100fa9190610529565b60405180910390f35b34801561010f57600080fd5b5061012a60048036038101906101259190610575565b6101a9565b005b34801561013857600080fd5b50610153600480360381019061014e91906105ce565b6101ed565b005b34801561016157600080fd5b5061016a6102fb565b60405161017791906105fb565b60405180910390f35b610188610303565b005b34801561019657600080fd5b5061019f610340565b005b600030905090565b80600460006101000a81548173ffffffffffffffffffffffffffffffffffffffff021916908373ffffffffffffffffffffffffffffffffffffffff16021790555050565b80471015610230576040517f08c379a000000000000000000000000000000000000000000000000000000000815260040161022790610673565b60405180910390fd5b6000600160009054906101000a900473ffffffffffffffffffffffffffffffffffffffff1673ffffffffffffffffffffffffffffffffffffffff1682604051610278906106c4565b60006040518083038185875af1925050503d80600081146102b5576040519150601f19603f3d011682016040523d82523d6000602084013e6102ba565b606091505b505090507f8fbd42aa6b9175c731efe57e141436f5bb85231b5a377e39f53f8301ade4836a81476040516102ef9291906106f4565b60405180910390a15050565b600047905090565b7f2d27851832fcac28a0d4af1344f01fed7ffcfd15171c14c564a0c42aa57ae5c0343047604051610336939291906104f2565b60405180910390a1565b600254471015610385576040517f08c379a000000000000000000000000000000000000000000000000000000000815260040161037c90610673565b60405180910390fd5b6000600460009054906101000a900473ffffffffffffffffffffffffffffffffffffffff1673ffffffffffffffffffffffffffffffffffffffff166002546040516103cf906106c4565b60006040518083038185875af1925050503d806000811461040c576040519150601f19603f3d011682016040523d82523d6000602084013e610411565b606091505b50509050600115158115151461045c576040517f08c379a000000000000000000000000000000000000000000000000000000000815260040161045390610769565b60405180910390fd5b7f56e1cf8a52e84572ff49b950fa9a1a1867319bf8eba3bf8c77bc4354678a34c560025460405161048d91906105fb565b60405180910390a150565b6000819050919050565b6104ab81610498565b82525050565b600073ffffffffffffffffffffffffffffffffffffffff82169050919050565b60006104dc826104b1565b9050919050565b6104ec816104d1565b82525050565b600060608201905061050760008301866104a2565b61051460208301856104e3565b61052160408301846104a2565b949350505050565b600060208201905061053e60008301846104e3565b92915050565b600080fd5b610552816104d1565b811461055d57600080fd5b50565b60008135905061056f81610549565b92915050565b60006020828403121561058b5761058a610544565b5b600061059984828501610560565b91505092915050565b6105ab81610498565b81146105b657600080fd5b50565b6000813590506105c8816105a2565b92915050565b6000602082840312156105e4576105e3610544565b5b60006105f2848285016105b9565b91505092915050565b600060208201905061061060008301846104a2565b92915050565b600082825260208201905092915050565b7f466f6e646f7320696e737566696369656e746573000000000000000000000000600082015250565b600061065d601483610616565b915061066882610627565b602082019050919050565b6000602082019050818103600083015261068c81610650565b9050919050565b600081905092915050565b50565b60006106ae600083610693565b91506106b98261069e565b600082019050919050565b60006106cf826106a1565b9150819050919050565b60008115159050919050565b6106ee816106d9565b82525050565b600060408201905061070960008301856106e5565b61071660208301846104a2565b9392505050565b7f46616c6c6f206c61207472616e73666572656e63696100000000000000000000600082015250565b6000610753601683610616565b915061075e8261071d565b602082019050919050565b6000602082019050818103600083015261078281610746565b905091905056fea26469706673582212208b73cceb4ec10a7c62f6132af7ac097536ca297d18ae01b8dd3020b702ab6cff64736f6c6343000812003360a06040523480156200001157600080fd5b5060405162000c3538038062000c358339818101604052810190620000379190620002f8565b848481600090816200004a91906200061e565b5080600160006101000a81548173ffffffffffffffffffffffffffffffffffffffff021916908373ffffffffffffffffffffffffffffffffffffffff160217905550505082600290816200009f91906200061e565b508160039081620000b191906200061e565b508060808181525050505050505062000705565b6000604051905090565b600080fd5b600080fd5b600080fd5b600080fd5b6000601f19601f8301169050919050565b7f4e487b7100000000000000000000000000000000000000000000000000000000600052604160045260246000fd5b6200012e82620000e3565b810181811067ffffffffffffffff8211171562000150576200014f620000f4565b5b80604052505050565b600062000165620000c5565b905062000173828262000123565b919050565b600067ffffffffffffffff821115620001965762000195620000f4565b5b620001a182620000e3565b9050602081019050919050565b60005b83811015620001ce578082015181840152602081019050620001b1565b60008484015250505050565b6000620001f1620001eb8462000178565b62000159565b90508281526020810184848401111562000210576200020f620000de565b5b6200021d848285620001ae565b509392505050565b600082601f8301126200023d576200023c620000d9565b5b81516200024f848260208601620001da565b91505092915050565b600073ffffffffffffffffffffffffffffffffffffffff82169050919050565b6000620002858262000258565b9050919050565b620002978162000278565b8114620002a357600080fd5b50565b600081519050620002b7816200028c565b92915050565b6000819050919050565b620002d281620002bd565b8114620002de57600080fd5b50565b600081519050620002f281620002c7565b92915050565b600080600080600060a08688031215620003175762000316620000cf565b5b600086015167ffffffffffffffff811115620003385762000337620000d4565b5b620003468882890162000225565b95505060206200035988828901620002a6565b945050604086015167ffffffffffffffff8111156200037d576200037c620000d4565b5b6200038b8882890162000225565b935050606086015167ffffffffffffffff811115620003af57620003ae620000d4565b5b620003bd8882890162000225565b9250506080620003d088828901620002e1565b9150509295509295909350565b600081519050919050565b7f4e487b7100000000000000000000000000000000000000000000000000000000600052602260045260246000fd5b600060028204905060018216806200043057607f821691505b602082108103620004465762000445620003e8565b5b50919050565b60008190508160005260206000209050919050565b60006020601f8301049050919050565b600082821b905092915050565b600060088302620004b07fffffffffffffffffffffffffffffffffffffffffffffffffffffffffffffffff8262000471565b620004bc868362000471565b95508019841693508086168417925050509392505050565b6000819050919050565b6000620004ff620004f9620004f384620002bd565b620004d4565b620002bd565b9050919050565b6000819050919050565b6200051b83620004de565b620005336200052a8262000506565b8484546200047e565b825550505050565b600090565b6200054a6200053b565b6200055781848462000510565b505050565b5b818110156200057f576200057360008262000540565b6001810190506200055d565b5050565b601f821115620005ce5762000598816200044c565b620005a38462000461565b81016020851015620005b3578190505b620005cb620005c28562000461565b8301826200055c565b50505b505050565b600082821c905092915050565b6000620005f360001984600802620005d3565b1980831691505092915050565b60006200060e8383620005e0565b9150826002028217905092915050565b6200062982620003dd565b67ffffffffffffffff811115620006455762000644620000f4565b5b62000651825462000417565b6200065e82828562000583565b600060209050601f83116001811462000696576000841562000681578287015190505b6200068d858262000600565b865550620006fd565b601f198416620006a6866200044c565b60005b82811015620006d057848901518255600182019150602085019450602081019050620006a9565b86831015620006f05784890151620006ec601f891682620005e0565b8355505b6001600288020188555050505b505050505050565b60805161051462000721600039600061017801526105146000f3fe6080604052600436106100435760003560e01c806338cc4831146100c257806358b08d2e146100ed578063835fc6ca14610118578063b93cdb7b1461014157610085565b36610085577f2d27851832fcac28a0d4af1344f01fed7ffcfd15171c14c564a0c42aa57ae5c034304760405161007b9392919061030c565b60405180910390a1005b7f2d27851832fcac28a0d4af1344f01fed7ffcfd15171c14c564a0c42aa57ae5c03430476040516100b89392919061030c565b60405180910390a1005b3480156100ce57600080fd5b506100d761016c565b6040516100e49190610343565b60405180910390f35b3480156100f957600080fd5b50610102610174565b60405161010f919061035e565b60405180910390f35b34801561012457600080fd5b5061013f600480360381019061013a91906103aa565b61019c565b005b34801561014d57600080fd5b506101566102aa565b604051610163919061035e565b60405180910390f35b600030905090565b60007f0000000000000000000000000000000000000000000000000000000000000000905090565b804710156101df576040517f08c379a00000000000000000000000000000000000000000000000000000000081526004016101d690610434565b60405180910390fd5b6000600160009054906101000a900473ffffffffffffffffffffffffffffffffffffffff1673ffffffffffffffffffffffffffffffffffffffff168260405161022790610485565b60006040518083038185875af1925050503d8060008114610264576040519150601f19603f3d011682016040523d82523d6000602084013e610269565b606091505b505090507f8fbd42aa6b9175c731efe57e141436f5bb85231b5a377e39f53f8301ade4836a814760405161029e9291906104b5565b60405180910390a15050565b600047905090565b6000819050919050565b6102c5816102b2565b82525050565b600073ffffffffffffffffffffffffffffffffffffffff82169050919050565b60006102f6826102cb565b9050919050565b610306816102eb565b82525050565b600060608201905061032160008301866102bc565b61032e60208301856102fd565b61033b60408301846102bc565b949350505050565b600060208201905061035860008301846102fd565b92915050565b600060208201905061037360008301846102bc565b92915050565b600080fd5b610387816102b2565b811461039257600080fd5b50565b6000813590506103a48161037e565b92915050565b6000602082840312156103c0576103bf610379565b5b60006103ce84828501610395565b91505092915050565b600082825260208201905092915050565b7f466f6e646f7320696e737566696369656e746573000000000000000000000000600082015250565b600061041e6014836103d7565b9150610429826103e8565b602082019050919050565b6000602082019050818103600083015261044d81610411565b9050919050565b600081905092915050565b50565b600061046f600083610454565b915061047a8261045f565b600082019050919050565b600061049082610462565b9150819050919050565b60008115159050919050565b6104af8161049a565b82525050565b60006040820190506104ca60008301856104a6565b6104d760208301846102bc565b939250505056fea26469706673582212208b5589f959a6dcfa0fbc6b1df6db50205e42948dc7c8681b3103c81914ef554464736f6c63430008120033a2646970667358221220846355cf541eed94b5a39c95e3c6b25b578f62082f1ceb6833ae0dd492e2cacb64736f6c63430008120033",
			"opcodes": "PUSH1 0x80 PUSH1 0x40 MSTORE PUSH2 0x20 PUSH2 0x15 PUSH2 0x25 PUSH1 0x20 SHL PUSH1 0x20 SHR JUMP JUMPDEST PUSH2 0x2D PUSH1 0x20 SHL PUSH1 0x20 SHR JUMP JUMPDEST PUSH2 0xF1 JUMP JUMPDEST PUSH1 0x0 CALLER SWAP1 POP SWAP1 JUMP JUMPDEST PUSH1 0x0 DUP1 PUSH1 0x0 SWAP1 SLOAD SWAP1 PUSH2 0x100 EXP SWAP1 DIV PUSH20 0xFFFFFFFFFFFFFFFFFFFFFFFFFFFFFFFFFFFFFFFF AND SWAP1 POP DUP2 PUSH1 0x0 DUP1 PUSH2 0x100 EXP DUP2 SLOAD DUP2 PUSH20 0xFFFFFFFFFFFFFFFFFFFFFFFFFFFFFFFFFFFFFFFF MUL NOT AND SWAP1 DUP4 PUSH20 0xFFFFFFFFFFFFFFFFFFFFFFFFFFFFFFFFFFFFFFFF AND MUL OR SWAP1 SSTORE POP DUP2 PUSH20 0xFFFFFFFFFFFFFFFFFFFFFFFFFFFFFFFFFFFFFFFF AND DUP2 PUSH20 0xFFFFFFFFFFFFFFFFFFFFFFFFFFFFFFFFFFFFFFFF AND PUSH32 0x8BE0079C531659141344CD1FD0A4F28419497F9722A3DAAFE3B4186F6B6457E0 PUSH1 0x40 MLOAD PUSH1 0x40 MLOAD DUP1 SWAP2 SUB SWAP1 LOG3 POP POP JUMP JUMPDEST PUSH2 0x3B69 DUP1 PUSH2 0x100 PUSH1 0x0 CODECOPY PUSH1 0x0 RETURN INVALID PUSH1 0x80 PUSH1 0x40 MSTORE PUSH1 0x4 CALLDATASIZE LT PUSH3 0x10F JUMPI PUSH1 0x0 CALLDATALOAD PUSH1 0xE0 SHR DUP1 PUSH4 0xA968B2B8 GT PUSH3 0x97 JUMPI DUP1 PUSH4 0xCD7D77C5 GT PUSH3 0x61 JUMPI DUP1 PUSH4 0xCD7D77C5 EQ PUSH3 0x2DD JUMPI DUP1 PUSH4 0xEB20F21A EQ PUSH3 0x30B JUMPI DUP1 PUSH4 0xEC3AB274 EQ PUSH3 0x325 JUMPI DUP1 PUSH4 0xF2FDE38B EQ PUSH3 0x33F JUMPI PUSH3 0x117 JUMP JUMPDEST DUP1 PUSH4 0xA968B2B8 EQ PUSH3 0x245 JUMPI DUP1 PUSH4 0xACEF6037 EQ PUSH3 0x275 JUMPI DUP1 PUSH4 0xB8D76B03 EQ PUSH3 0x2A3 JUMPI DUP1 PUSH4 0xC2D2A83C EQ PUSH3 0x2D1 JUMPI PUSH3 0x117 JUMP JUMPDEST DUP1 PUSH4 0x72673E31 GT PUSH3 0xD9 JUMPI DUP1 PUSH4 0x72673E31 EQ PUSH3 0x187 JUMPI DUP1 PUSH4 0x805D0DE4 EQ PUSH3 0x1B5 JUMPI DUP1 PUSH4 0x85FFEBD7 EQ PUSH3 0x1E5 JUMPI DUP1 PUSH4 0x8DA5CB5B EQ PUSH3 0x215 JUMPI PUSH3 0x117 JUMP JUMPDEST DUP1 PUSH4 0x2DB3361B EQ PUSH3 0x119 JUMPI DUP1 PUSH4 0x307FFA10 EQ PUSH3 0x125 JUMPI DUP1 PUSH4 0x42E36B3B EQ PUSH3 0x153 JUMPI DUP1 PUSH4 0x715018A6 EQ PUSH3 0x16D JUMPI PUSH3 0x117 JUMP JUMPDEST CALLDATASIZE PUSH3 0x117 JUMPI STOP JUMPDEST STOP JUMPDEST PUSH3 0x123 PUSH3 0x36D JUMP JUMPDEST STOP JUMPDEST CALLVALUE DUP1 ISZERO PUSH3 0x132 JUMPI PUSH1 0x0 DUP1 REVERT JUMPDEST POP PUSH3 0x151 PUSH1 0x4 DUP1 CALLDATASIZE SUB DUP2 ADD SWAP1 PUSH3 0x14B SWAP2 SWAP1 PUSH3 0x12B0 JUMP JUMPDEST PUSH3 0x4BD JUMP JUMPDEST STOP JUMPDEST CALLVALUE DUP1 ISZERO PUSH3 0x160 JUMPI PUSH1 0x0 DUP1 REVERT JUMPDEST POP PUSH3 0x16B PUSH3 0x571 JUMP JUMPDEST STOP JUMPDEST CALLVALUE DUP1 ISZERO PUSH3 0x17A JUMPI PUSH1 0x0 DUP1 REVERT JUMPDEST POP PUSH3 0x185 PUSH3 0x721 JUMP JUMPDEST STOP JUMPDEST CALLVALUE DUP1 ISZERO PUSH3 0x194 JUMPI PUSH1 0x0 DUP1 REVERT JUMPDEST POP PUSH3 0x1B3 PUSH1 0x4 DUP1 CALLDATASIZE SUB DUP2 ADD SWAP1 PUSH3 0x1AD SWAP2 SWAP1 PUSH3 0x1376 JUMP JUMPDEST PUSH3 0x739 JUMP JUMPDEST STOP JUMPDEST CALLVALUE DUP1 ISZERO PUSH3 0x1C2 JUMPI PUSH1 0x0 DUP1 REVERT JUMPDEST POP PUSH3 0x1CD PUSH3 0x805 JUMP JUMPDEST PUSH1 0x40 MLOAD PUSH3 0x1DC SWAP2 SWAP1 PUSH3 0x13ED JUMP JUMPDEST PUSH1 0x40 MLOAD DUP1 SWAP2 SUB SWAP1 RETURN JUMPDEST CALLVALUE DUP1 ISZERO PUSH3 0x1F2 JUMPI PUSH1 0x0 DUP1 REVERT JUMPDEST POP PUSH3 0x1FD PUSH3 0x817 JUMP JUMPDEST PUSH1 0x40 MLOAD PUSH3 0x20C SWAP2 SWAP1 PUSH3 0x141B JUMP JUMPDEST PUSH1 0x40 MLOAD DUP1 SWAP2 SUB SWAP1 RETURN JUMPDEST CALLVALUE DUP1 ISZERO PUSH3 0x222 JUMPI PUSH1 0x0 DUP1 REVERT JUMPDEST POP PUSH3 0x22D PUSH3 0x81F JUMP JUMPDEST PUSH1 0x40 MLOAD PUSH3 0x23C SWAP2 SWAP1 PUSH3 0x141B JUMP JUMPDEST PUSH1 0x40 MLOAD DUP1 SWAP2 SUB SWAP1 RETURN JUMPDEST CALLVALUE DUP1 ISZERO PUSH3 0x252 JUMPI PUSH1 0x0 DUP1 REVERT JUMPDEST POP PUSH3 0x25D PUSH3 0x848 JUMP JUMPDEST PUSH1 0x40 MLOAD PUSH3 0x26C SWAP2 SWAP1 PUSH3 0x13ED JUMP JUMPDEST PUSH1 0x40 MLOAD DUP1 SWAP2 SUB SWAP1 RETURN JUMPDEST CALLVALUE DUP1 ISZERO PUSH3 0x282 JUMPI PUSH1 0x0 DUP1 REVERT JUMPDEST POP PUSH3 0x2A1 PUSH1 0x4 DUP1 CALLDATASIZE SUB DUP2 ADD SWAP1 PUSH3 0x29B SWAP2 SWAP1 PUSH3 0x1438 JUMP JUMPDEST PUSH3 0x85A JUMP JUMPDEST STOP JUMPDEST CALLVALUE DUP1 ISZERO PUSH3 0x2B0 JUMPI PUSH1 0x0 DUP1 REVERT JUMPDEST POP PUSH3 0x2CF PUSH1 0x4 DUP1 CALLDATASIZE SUB DUP2 ADD SWAP1 PUSH3 0x2C9 SWAP2 SWAP1 PUSH3 0x147F JUMP JUMPDEST PUSH3 0x919 JUMP JUMPDEST STOP JUMPDEST PUSH3 0x2DB PUSH3 0x9CD JUMP JUMPDEST STOP JUMPDEST CALLVALUE DUP1 ISZERO PUSH3 0x2EA JUMPI PUSH1 0x0 DUP1 REVERT JUMPDEST POP PUSH3 0x309 PUSH1 0x4 DUP1 CALLDATASIZE SUB DUP2 ADD SWAP1 PUSH3 0x303 SWAP2 SWAP1 PUSH3 0x1564 JUMP JUMPDEST PUSH3 0xB1D JUMP JUMPDEST STOP JUMPDEST CALLVALUE DUP1 ISZERO PUSH3 0x318 JUMPI PUSH1 0x0 DUP1 REVERT JUMPDEST POP PUSH3 0x323 PUSH3 0xC61 JUMP JUMPDEST STOP JUMPDEST CALLVALUE DUP1 ISZERO PUSH3 0x332 JUMPI PUSH1 0x0 DUP1 REVERT JUMPDEST POP PUSH3 0x33D PUSH3 0xCF6 JUMP JUMPDEST STOP JUMPDEST CALLVALUE DUP1 ISZERO PUSH3 0x34C JUMPI PUSH1 0x0 DUP1 REVERT JUMPDEST POP PUSH3 0x36B PUSH1 0x4 DUP1 CALLDATASIZE SUB DUP2 ADD SWAP1 PUSH3 0x365 SWAP2 SWAP1 PUSH3 0x1596 JUMP JUMPDEST PUSH3 0xD8F JUMP JUMPDEST STOP JUMPDEST PUSH1 0x0 PUSH1 0x7 PUSH1 0x0 SWAP1 SLOAD SWAP1 PUSH2 0x100 EXP SWAP1 DIV PUSH20 0xFFFFFFFFFFFFFFFFFFFFFFFFFFFFFFFFFFFFFFFF AND PUSH20 0xFFFFFFFFFFFFFFFFFFFFFFFFFFFFFFFFFFFFFFFF AND PUSH4 0x38CC4831 PUSH1 0x40 MLOAD DUP2 PUSH4 0xFFFFFFFF AND PUSH1 0xE0 SHL DUP2 MSTORE PUSH1 0x4 ADD PUSH1 0x20 PUSH1 0x40 MLOAD DUP1 DUP4 SUB DUP2 DUP7 GAS STATICCALL ISZERO DUP1 ISZERO PUSH3 0x3DD JUMPI RETURNDATASIZE PUSH1 0x0 DUP1 RETURNDATACOPY RETURNDATASIZE PUSH1 0x0 REVERT JUMPDEST POP POP POP POP PUSH1 0x40 MLOAD RETURNDATASIZE PUSH1 0x1F NOT PUSH1 0x1F DUP3 ADD AND DUP3 ADD DUP1 PUSH1 0x40 MSTORE POP DUP2 ADD SWAP1 PUSH3 0x403 SWAP2 SWAP1 PUSH3 0x15DF JUMP JUMPDEST PUSH20 0xFFFFFFFFFFFFFFFFFFFFFFFFFFFFFFFFFFFFFFFF AND CALLVALUE PUSH1 0x40 MLOAD PUSH3 0x428 SWAP1 PUSH3 0x1646 JUMP JUMPDEST PUSH1 0x0 PUSH1 0x40 MLOAD DUP1 DUP4 SUB DUP2 DUP6 DUP8 GAS CALL SWAP3 POP POP POP RETURNDATASIZE DUP1 PUSH1 0x0 DUP2 EQ PUSH3 0x467 JUMPI PUSH1 0x40 MLOAD SWAP2 POP PUSH1 0x1F NOT PUSH1 0x3F RETURNDATASIZE ADD AND DUP3 ADD PUSH1 0x40 MSTORE RETURNDATASIZE DUP3 MSTORE RETURNDATASIZE PUSH1 0x0 PUSH1 0x20 DUP5 ADD RETURNDATACOPY PUSH3 0x46C JUMP JUMPDEST PUSH1 0x60 SWAP2 POP JUMPDEST POP POP SWAP1 POP PUSH1 0x1 ISZERO ISZERO DUP2 ISZERO ISZERO EQ PUSH3 0x4BA JUMPI PUSH1 0x40 MLOAD PUSH32 0x8C379A000000000000000000000000000000000000000000000000000000000 DUP2 MSTORE PUSH1 0x4 ADD PUSH3 0x4B1 SWAP1 PUSH3 0x16BE JUMP JUMPDEST PUSH1 0x40 MLOAD DUP1 SWAP2 SUB SWAP1 REVERT JUMPDEST POP JUMP JUMPDEST PUSH3 0x4C7 PUSH3 0xE19 JUMP JUMPDEST PUSH1 0x4 DUP6 DUP6 DUP6 DUP6 DUP6 PUSH1 0x40 MLOAD PUSH3 0x4DC SWAP1 PUSH3 0x107E JUMP JUMPDEST PUSH3 0x4EC SWAP6 SWAP5 SWAP4 SWAP3 SWAP2 SWAP1 PUSH3 0x1758 JUMP JUMPDEST PUSH1 0x40 MLOAD DUP1 SWAP2 SUB SWAP1 PUSH1 0x0 CREATE DUP1 ISZERO DUP1 ISZERO PUSH3 0x509 JUMPI RETURNDATASIZE PUSH1 0x0 DUP1 RETURNDATACOPY RETURNDATASIZE PUSH1 0x0 REVERT JUMPDEST POP SWAP1 DUP1 PUSH1 0x1 DUP2 SLOAD ADD DUP1 DUP3 SSTORE DUP1 SWAP2 POP POP PUSH1 0x1 SWAP1 SUB SWAP1 PUSH1 0x0 MSTORE PUSH1 0x20 PUSH1 0x0 KECCAK256 ADD PUSH1 0x0 SWAP1 SWAP2 SWAP1 SWAP2 SWAP1 SWAP2 PUSH2 0x100 EXP DUP2 SLOAD DUP2 PUSH20 0xFFFFFFFFFFFFFFFFFFFFFFFFFFFFFFFFFFFFFFFF MUL NOT AND SWAP1 DUP4 PUSH20 0xFFFFFFFFFFFFFFFFFFFFFFFFFFFFFFFFFFFFFFFF AND MUL OR SWAP1 SSTORE POP POP POP POP POP POP JUMP JUMPDEST PUSH3 0x57B PUSH3 0xE19 JUMP JUMPDEST PUSH3 0x585 PUSH3 0xE9E JUMP JUMPDEST DUP1 SELFBALANCE LT ISZERO PUSH3 0x5CB JUMPI PUSH1 0x40 MLOAD PUSH32 0x8C379A000000000000000000000000000000000000000000000000000000000 DUP2 MSTORE PUSH1 0x4 ADD PUSH3 0x5C2 SWAP1 PUSH3 0x1813 JUMP JUMPDEST PUSH1 0x40 MLOAD DUP1 SWAP2 SUB SWAP1 REVERT JUMPDEST PUSH1 0x0 JUMPDEST PUSH1 0x3 DUP1 SLOAD SWAP1 POP DUP2 LT ISZERO PUSH3 0x6F1 JUMPI PUSH3 0x6DB PUSH1 0x3 DUP3 DUP2 SLOAD DUP2 LT PUSH3 0x5F7 JUMPI PUSH3 0x5F6 PUSH3 0x1835 JUMP JUMPDEST JUMPDEST SWAP1 PUSH1 0x0 MSTORE PUSH1 0x20 PUSH1 0x0 KECCAK256 ADD PUSH1 0x0 SWAP1 SLOAD SWAP1 PUSH2 0x100 EXP SWAP1 DIV PUSH20 0xFFFFFFFFFFFFFFFFFFFFFFFFFFFFFFFFFFFFFFFF AND PUSH1 0x3 DUP4 DUP2 SLOAD DUP2 LT PUSH3 0x639 JUMPI PUSH3 0x638 PUSH3 0x1835 JUMP JUMPDEST JUMPDEST SWAP1 PUSH1 0x0 MSTORE PUSH1 0x20 PUSH1 0x0 KECCAK256 ADD PUSH1 0x0 SWAP1 SLOAD SWAP1 PUSH2 0x100 EXP SWAP1 DIV PUSH20 0xFFFFFFFFFFFFFFFFFFFFFFFFFFFFFFFFFFFFFFFF AND PUSH20 0xFFFFFFFFFFFFFFFFFFFFFFFFFFFFFFFFFFFFFFFF AND PUSH4 0x58B08D2E PUSH1 0x40 MLOAD DUP2 PUSH4 0xFFFFFFFF AND PUSH1 0xE0 SHL DUP2 MSTORE PUSH1 0x4 ADD PUSH1 0x20 PUSH1 0x40 MLOAD DUP1 DUP4 SUB DUP2 DUP7 GAS STATICCALL ISZERO DUP1 ISZERO PUSH3 0x6AF JUMPI RETURNDATASIZE PUSH1 0x0 DUP1 RETURNDATACOPY RETURNDATASIZE PUSH1 0x0 REVERT JUMPDEST POP POP POP POP PUSH1 0x40 MLOAD RETURNDATASIZE PUSH1 0x1F NOT PUSH1 0x1F DUP3 ADD AND DUP3 ADD DUP1 PUSH1 0x40 MSTORE POP DUP2 ADD SWAP1 PUSH3 0x6D5 SWAP2 SWAP1 PUSH3 0x187B JUMP JUMPDEST PUSH3 0x85A JUMP JUMPDEST DUP1 DUP1 PUSH3 0x6E8 SWAP1 PUSH3 0x18DC JUMP JUMPDEST SWAP2 POP POP PUSH3 0x5CE JUMP JUMPDEST POP PUSH32 0xAC99D248D2229C2E3884679F08DFC1179A84BC4AB4F7D353BA4727301A0E92C8 PUSH1 0x40 MLOAD PUSH1 0x40 MLOAD DUP1 SWAP2 SUB SWAP1 LOG1 POP JUMP JUMPDEST PUSH3 0x72B PUSH3 0xE19 JUMP JUMPDEST PUSH3 0x737 PUSH1 0x0 PUSH3 0xF96 JUMP JUMPDEST JUMP JUMPDEST PUSH3 0x743 PUSH3 0xE19 JUMP JUMPDEST PUSH1 0x0 PUSH1 0x40 MLOAD DUP1 PUSH1 0x40 ADD PUSH1 0x40 MSTORE DUP1 DUP5 DUP2 MSTORE PUSH1 0x20 ADD DUP4 DUP2 MSTORE POP SWAP1 POP PUSH1 0x5 DUP2 SWAP1 DUP1 PUSH1 0x1 DUP2 SLOAD ADD DUP1 DUP3 SSTORE DUP1 SWAP2 POP POP PUSH1 0x1 SWAP1 SUB SWAP1 PUSH1 0x0 MSTORE PUSH1 0x20 PUSH1 0x0 KECCAK256 SWAP1 PUSH1 0x2 MUL ADD PUSH1 0x0 SWAP1 SWAP2 SWAP1 SWAP2 SWAP1 SWAP2 POP PUSH1 0x0 DUP3 ADD MLOAD DUP2 PUSH1 0x0 ADD SWAP1 DUP2 PUSH3 0x79F SWAP2 SWAP1 PUSH3 0x1B5F JUMP JUMPDEST POP PUSH1 0x20 DUP3 ADD MLOAD DUP2 PUSH1 0x1 ADD SSTORE POP POP DUP2 PUSH1 0x8 PUSH1 0x0 DUP3 DUP3 SLOAD PUSH3 0x7C0 SWAP2 SWAP1 PUSH3 0x1C46 JUMP JUMPDEST SWAP3 POP POP DUP2 SWAP1 SSTORE POP PUSH32 0x725855D9F6079B6055C84596852AB37B25E88A70077B4CE145B714DA69952E5 DUP4 PUSH1 0x40 MLOAD PUSH3 0x7F8 SWAP2 SWAP1 PUSH3 0x1C81 JUMP JUMPDEST PUSH1 0x40 MLOAD DUP1 SWAP2 SUB SWAP1 LOG1 POP POP POP JUMP JUMPDEST PUSH1 0x0 DUP1 PUSH1 0x3 DUP1 SLOAD SWAP1 POP SWAP1 POP DUP1 SWAP2 POP POP SWAP1 JUMP JUMPDEST PUSH1 0x0 ADDRESS SWAP1 POP SWAP1 JUMP JUMPDEST PUSH1 0x0 DUP1 PUSH1 0x0 SWAP1 SLOAD SWAP1 PUSH2 0x100 EXP SWAP1 DIV PUSH20 0xFFFFFFFFFFFFFFFFFFFFFFFFFFFFFFFFFFFFFFFF AND SWAP1 POP SWAP1 JUMP JUMPDEST PUSH1 0x0 DUP1 PUSH1 0x4 DUP1 SLOAD SWAP1 POP SWAP1 POP DUP1 SWAP2 POP POP SWAP1 JUMP JUMPDEST PUSH1 0x0 DUP3 PUSH20 0xFFFFFFFFFFFFFFFFFFFFFFFFFFFFFFFFFFFFFFFF AND DUP3 PUSH1 0x40 MLOAD PUSH3 0x882 SWAP1 PUSH3 0x1646 JUMP JUMPDEST PUSH1 0x0 PUSH1 0x40 MLOAD DUP1 DUP4 SUB DUP2 DUP6 DUP8 GAS CALL SWAP3 POP POP POP RETURNDATASIZE DUP1 PUSH1 0x0 DUP2 EQ PUSH3 0x8C1 JUMPI PUSH1 0x40 MLOAD SWAP2 POP PUSH1 0x1F NOT PUSH1 0x3F RETURNDATASIZE ADD AND DUP3 ADD PUSH1 0x40 MSTORE RETURNDATASIZE DUP3 MSTORE RETURNDATASIZE PUSH1 0x0 PUSH1 0x20 DUP5 ADD RETURNDATACOPY PUSH3 0x8C6 JUMP JUMPDEST PUSH1 0x60 SWAP2 POP JUMPDEST POP POP SWAP1 POP PUSH1 0x1 ISZERO ISZERO DUP2 ISZERO ISZERO EQ PUSH3 0x914 JUMPI PUSH1 0x40 MLOAD PUSH32 0x8C379A000000000000000000000000000000000000000000000000000000000 DUP2 MSTORE PUSH1 0x4 ADD PUSH3 0x90B SWAP1 PUSH3 0x1CF5 JUMP JUMPDEST PUSH1 0x40 MLOAD DUP1 SWAP2 SUB SWAP1 REVERT JUMPDEST POP POP POP JUMP JUMPDEST PUSH3 0x923 PUSH3 0xE19 JUMP JUMPDEST PUSH1 0x3 DUP6 DUP6 DUP6 DUP6 DUP6 PUSH1 0x40 MLOAD PUSH3 0x938 SWAP1 PUSH3 0x108C JUMP JUMPDEST PUSH3 0x948 SWAP6 SWAP5 SWAP4 SWAP3 SWAP2 SWAP1 PUSH3 0x1D17 JUMP JUMPDEST PUSH1 0x40 MLOAD DUP1 SWAP2 SUB SWAP1 PUSH1 0x0 CREATE DUP1 ISZERO DUP1 ISZERO PUSH3 0x965 JUMPI RETURNDATASIZE PUSH1 0x0 DUP1 RETURNDATACOPY RETURNDATASIZE PUSH1 0x0 REVERT JUMPDEST POP SWAP1 DUP1 PUSH1 0x1 DUP2 SLOAD ADD DUP1 DUP3 SSTORE DUP1 SWAP2 POP POP PUSH1 0x1 SWAP1 SUB SWAP1 PUSH1 0x0 MSTORE PUSH1 0x20 PUSH1 0x0 KECCAK256 ADD PUSH1 0x0 SWAP1 SWAP2 SWAP1 SWAP2 SWAP1 SWAP2 PUSH2 0x100 EXP DUP2 SLOAD DUP2 PUSH20 0xFFFFFFFFFFFFFFFFFFFFFFFFFFFFFFFFFFFFFFFF MUL NOT AND SWAP1 DUP4 PUSH20 0xFFFFFFFFFFFFFFFFFFFFFFFFFFFFFFFFFFFFFFFF AND MUL OR SWAP1 SSTORE POP POP POP POP POP POP JUMP JUMPDEST PUSH1 0x0 PUSH1 0x6 PUSH1 0x0 SWAP1 SLOAD SWAP1 PUSH2 0x100 EXP SWAP1 DIV PUSH20 0xFFFFFFFFFFFFFFFFFFFFFFFFFFFFFFFFFFFFFFFF AND PUSH20 0xFFFFFFFFFFFFFFFFFFFFFFFFFFFFFFFFFFFFFFFF AND PUSH4 0x38CC4831 PUSH1 0x40 MLOAD DUP2 PUSH4 0xFFFFFFFF AND PUSH1 0xE0 SHL DUP2 MSTORE PUSH1 0x4 ADD PUSH1 0x20 PUSH1 0x40 MLOAD DUP1 DUP4 SUB DUP2 DUP7 GAS STATICCALL ISZERO DUP1 ISZERO PUSH3 0xA3D JUMPI RETURNDATASIZE PUSH1 0x0 DUP1 RETURNDATACOPY RETURNDATASIZE PUSH1 0x0 REVERT JUMPDEST POP POP POP POP PUSH1 0x40 MLOAD RETURNDATASIZE PUSH1 0x1F NOT PUSH1 0x1F DUP3 ADD AND DUP3 ADD DUP1 PUSH1 0x40 MSTORE POP DUP2 ADD SWAP1 PUSH3 0xA63 SWAP2 SWAP1 PUSH3 0x15DF JUMP JUMPDEST PUSH20 0xFFFFFFFFFFFFFFFFFFFFFFFFFFFFFFFFFFFFFFFF AND CALLVALUE PUSH1 0x40 MLOAD PUSH3 0xA88 SWAP1 PUSH3 0x1646 JUMP JUMPDEST PUSH1 0x0 PUSH1 0x40 MLOAD DUP1 DUP4 SUB DUP2 DUP6 DUP8 GAS CALL SWAP3 POP POP POP RETURNDATASIZE DUP1 PUSH1 0x0 DUP2 EQ PUSH3 0xAC7 JUMPI PUSH1 0x40 MLOAD SWAP2 POP PUSH1 0x1F NOT PUSH1 0x3F RETURNDATASIZE ADD AND DUP3 ADD PUSH1 0x40 MSTORE RETURNDATASIZE DUP3 MSTORE RETURNDATASIZE PUSH1 0x0 PUSH1 0x20 DUP5 ADD RETURNDATACOPY PUSH3 0xACC JUMP JUMPDEST PUSH1 0x60 SWAP2 POP JUMPDEST POP POP SWAP1 POP PUSH1 0x1 ISZERO ISZERO DUP2 ISZERO ISZERO EQ PUSH3 0xB1A JUMPI PUSH1 0x40 MLOAD PUSH32 0x8C379A000000000000000000000000000000000000000000000000000000000 DUP2 MSTORE PUSH1 0x4 ADD PUSH3 0xB11 SWAP1 PUSH3 0x1DD9 JUMP JUMPDEST PUSH1 0x40 MLOAD DUP1 SWAP2 SUB SWAP1 REVERT JUMPDEST POP JUMP JUMPDEST PUSH3 0xB27 PUSH3 0xE19 JUMP JUMPDEST PUSH1 0x5 DUP2 DUP2 SLOAD DUP2 LT PUSH3 0xB3E JUMPI PUSH3 0xB3D PUSH3 0x1835 JUMP JUMPDEST JUMPDEST SWAP1 PUSH1 0x0 MSTORE PUSH1 0x20 PUSH1 0x0 KECCAK256 SWAP1 PUSH1 0x2 MUL ADD PUSH1 0x1 ADD SLOAD DUP1 SELFBALANCE LT ISZERO PUSH3 0xB96 JUMPI PUSH1 0x40 MLOAD PUSH32 0x8C379A000000000000000000000000000000000000000000000000000000000 DUP2 MSTORE PUSH1 0x4 ADD PUSH3 0xB8D SWAP1 PUSH3 0x1813 JUMP JUMPDEST PUSH1 0x40 MLOAD DUP1 SWAP2 SUB SWAP1 REVERT JUMPDEST PUSH3 0xBD3 PUSH3 0xBA4 PUSH3 0x105A JUMP JUMPDEST PUSH1 0x5 DUP5 DUP2 SLOAD DUP2 LT PUSH3 0xBBB JUMPI PUSH3 0xBBA PUSH3 0x1835 JUMP JUMPDEST JUMPDEST SWAP1 PUSH1 0x0 MSTORE PUSH1 0x20 PUSH1 0x0 KECCAK256 SWAP1 PUSH1 0x2 MUL ADD PUSH1 0x1 ADD SLOAD PUSH3 0x85A JUMP JUMPDEST PUSH32 0xBDD3CE6DAEF876E6F1020C19E2C701E589832B856FA45C7BFC8934D9B2FC8323 PUSH1 0x5 DUP4 DUP2 SLOAD DUP2 LT PUSH3 0xC0B JUMPI PUSH3 0xC0A PUSH3 0x1835 JUMP JUMPDEST JUMPDEST SWAP1 PUSH1 0x0 MSTORE PUSH1 0x20 PUSH1 0x0 KECCAK256 SWAP1 PUSH1 0x2 MUL ADD PUSH1 0x0 ADD PUSH1 0x5 DUP5 DUP2 SLOAD DUP2 LT PUSH3 0xC33 JUMPI PUSH3 0xC32 PUSH3 0x1835 JUMP JUMPDEST JUMPDEST SWAP1 PUSH1 0x0 MSTORE PUSH1 0x20 PUSH1 0x0 KECCAK256 SWAP1 PUSH1 0x2 MUL ADD PUSH1 0x1 ADD SLOAD PUSH1 0x40 MLOAD PUSH3 0xC55 SWAP3 SWAP2 SWAP1 PUSH3 0x1E8B JUMP JUMPDEST PUSH1 0x40 MLOAD DUP1 SWAP2 SUB SWAP1 LOG1 POP POP JUMP JUMPDEST PUSH1 0x7 PUSH1 0x0 SWAP1 SLOAD SWAP1 PUSH2 0x100 EXP SWAP1 DIV PUSH20 0xFFFFFFFFFFFFFFFFFFFFFFFFFFFFFFFFFFFFFFFF AND PUSH20 0xFFFFFFFFFFFFFFFFFFFFFFFFFFFFFFFFFFFFFFFF AND PUSH4 0x835FC6CA PUSH2 0x3E8 PUSH1 0x40 MLOAD DUP3 PUSH4 0xFFFFFFFF AND PUSH1 0xE0 SHL DUP2 MSTORE PUSH1 0x4 ADD PUSH3 0xCC0 SWAP2 SWAP1 PUSH3 0x1F02 JUMP JUMPDEST PUSH1 0x0 PUSH1 0x40 MLOAD DUP1 DUP4 SUB DUP2 PUSH1 0x0 DUP8 DUP1 EXTCODESIZE ISZERO DUP1 ISZERO PUSH3 0xCDB JUMPI PUSH1 0x0 DUP1 REVERT JUMPDEST POP GAS CALL ISZERO DUP1 ISZERO PUSH3 0xCF0 JUMPI RETURNDATASIZE PUSH1 0x0 DUP1 RETURNDATACOPY RETURNDATASIZE PUSH1 0x0 REVERT JUMPDEST POP POP POP POP JUMP JUMPDEST PUSH3 0xD00 PUSH3 0xE19 JUMP JUMPDEST PUSH1 0x8 SLOAD DUP1 SELFBALANCE LT ISZERO PUSH3 0xD49 JUMPI PUSH1 0x40 MLOAD PUSH32 0x8C379A000000000000000000000000000000000000000000000000000000000 DUP2 MSTORE PUSH1 0x4 ADD PUSH3 0xD40 SWAP1 PUSH3 0x1813 JUMP JUMPDEST PUSH1 0x40 MLOAD DUP1 SWAP2 SUB SWAP1 REVERT JUMPDEST PUSH3 0xD60 PUSH3 0xD57 PUSH3 0x105A JUMP JUMPDEST PUSH1 0x8 SLOAD PUSH3 0x85A JUMP JUMPDEST PUSH32 0xDE91A2BB353CF3AA2530CCC4798647518C4DB80E0FF05616C0F16E44FCF9DF25 PUSH1 0x40 MLOAD PUSH1 0x40 MLOAD DUP1 SWAP2 SUB SWAP1 LOG1 POP JUMP JUMPDEST PUSH3 0xD99 PUSH3 0xE19 JUMP JUMPDEST PUSH1 0x0 PUSH20 0xFFFFFFFFFFFFFFFFFFFFFFFFFFFFFFFFFFFFFFFF AND DUP2 PUSH20 0xFFFFFFFFFFFFFFFFFFFFFFFFFFFFFFFFFFFFFFFF AND SUB PUSH3 0xE0B JUMPI PUSH1 0x40 MLOAD PUSH32 0x8C379A000000000000000000000000000000000000000000000000000000000 DUP2 MSTORE PUSH1 0x4 ADD PUSH3 0xE02 SWAP1 PUSH3 0x1F95 JUMP JUMPDEST PUSH1 0x40 MLOAD DUP1 SWAP2 SUB SWAP1 REVERT JUMPDEST PUSH3 0xE16 DUP2 PUSH3 0xF96 JUMP JUMPDEST POP JUMP JUMPDEST PUSH3 0xE23 PUSH3 0x1076 JUMP JUMPDEST PUSH20 0xFFFFFFFFFFFFFFFFFFFFFFFFFFFFFFFFFFFFFFFF AND PUSH3 0xE43 PUSH3 0x81F JUMP JUMPDEST PUSH20 0xFFFFFFFFFFFFFFFFFFFFFFFFFFFFFFFFFFFFFFFF AND EQ PUSH3 0xE9C JUMPI PUSH1 0x40 MLOAD PUSH32 0x8C379A000000000000000000000000000000000000000000000000000000000 DUP2 MSTORE PUSH1 0x4 ADD PUSH3 0xE93 SWAP1 PUSH3 0x2007 JUMP JUMPDEST PUSH1 0x40 MLOAD DUP1 SWAP2 SUB SWAP1 REVERT JUMPDEST JUMP JUMPDEST PUSH1 0x0 DUP1 PUSH1 0x0 SWAP1 POP PUSH1 0x0 JUMPDEST PUSH1 0x3 DUP1 SLOAD SWAP1 POP DUP2 GT ISZERO PUSH3 0xF8E JUMPI PUSH1 0x3 DUP2 DUP2 SLOAD DUP2 LT PUSH3 0xECD JUMPI PUSH3 0xECC PUSH3 0x1835 JUMP JUMPDEST JUMPDEST SWAP1 PUSH1 0x0 MSTORE PUSH1 0x20 PUSH1 0x0 KECCAK256 ADD PUSH1 0x0 SWAP1 SLOAD SWAP1 PUSH2 0x100 EXP SWAP1 DIV PUSH20 0xFFFFFFFFFFFFFFFFFFFFFFFFFFFFFFFFFFFFFFFF AND PUSH20 0xFFFFFFFFFFFFFFFFFFFFFFFFFFFFFFFFFFFFFFFF AND PUSH4 0x58B08D2E PUSH1 0x40 MLOAD DUP2 PUSH4 0xFFFFFFFF AND PUSH1 0xE0 SHL DUP2 MSTORE PUSH1 0x4 ADD PUSH1 0x20 PUSH1 0x40 MLOAD DUP1 DUP4 SUB DUP2 DUP7 GAS STATICCALL ISZERO DUP1 ISZERO PUSH3 0xF43 JUMPI RETURNDATASIZE PUSH1 0x0 DUP1 RETURNDATACOPY RETURNDATASIZE PUSH1 0x0 REVERT JUMPDEST POP POP POP POP PUSH1 0x40 MLOAD RETURNDATASIZE PUSH1 0x1F NOT PUSH1 0x1F DUP3 ADD AND DUP3 ADD DUP1 PUSH1 0x40 MSTORE POP DUP2 ADD SWAP1 PUSH3 0xF69 SWAP2 SWAP1 PUSH3 0x187B JUMP JUMPDEST DUP3 PUSH3 0xF76 SWAP2 SWAP1 PUSH3 0x1C46 JUMP JUMPDEST SWAP2 POP DUP1 DUP1 PUSH3 0xF85 SWAP1 PUSH3 0x18DC JUMP JUMPDEST SWAP2 POP POP PUSH3 0xEA8 JUMP JUMPDEST POP DUP1 SWAP2 POP POP SWAP1 JUMP JUMPDEST PUSH1 0x0 DUP1 PUSH1 0x0 SWAP1 SLOAD SWAP1 PUSH2 0x100 EXP SWAP1 DIV PUSH20 0xFFFFFFFFFFFFFFFFFFFFFFFFFFFFFFFFFFFFFFFF AND SWAP1 POP DUP2 PUSH1 0x0 DUP1 PUSH2 0x100 EXP DUP2 SLOAD DUP2 PUSH20 0xFFFFFFFFFFFFFFFFFFFFFFFFFFFFFFFFFFFFFFFF MUL NOT AND SWAP1 DUP4 PUSH20 0xFFFFFFFFFFFFFFFFFFFFFFFFFFFFFFFFFFFFFFFF AND MUL OR SWAP1 SSTORE POP DUP2 PUSH20 0xFFFFFFFFFFFFFFFFFFFFFFFFFFFFFFFFFFFFFFFF AND DUP2 PUSH20 0xFFFFFFFFFFFFFFFFFFFFFFFFFFFFFFFFFFFFFFFF AND PUSH32 0x8BE0079C531659141344CD1FD0A4F28419497F9722A3DAAFE3B4186F6B6457E0 PUSH1 0x40 MLOAD PUSH1 0x40 MLOAD DUP1 SWAP2 SUB SWAP1 LOG3 POP POP JUMP JUMPDEST PUSH1 0x0 PUSH20 0xDD870FA1B7C4700F2BD7F44238821C26F7392148 SWAP1 POP SWAP1 JUMP JUMPDEST PUSH1 0x0 CALLER SWAP1 POP SWAP1 JUMP JUMPDEST PUSH2 0xED5 DUP1 PUSH3 0x202A DUP4 CODECOPY ADD SWAP1 JUMP JUMPDEST PUSH2 0xC35 DUP1 PUSH3 0x2EFF DUP4 CODECOPY ADD SWAP1 JUMP JUMPDEST PUSH1 0x0 PUSH1 0x40 MLOAD SWAP1 POP SWAP1 JUMP JUMPDEST PUSH1 0x0 DUP1 REVERT JUMPDEST PUSH1 0x0 DUP1 REVERT JUMPDEST PUSH1 0x0 DUP1 REVERT JUMPDEST PUSH1 0x0 DUP1 REVERT JUMPDEST PUSH1 0x0 PUSH1 0x1F NOT PUSH1 0x1F DUP4 ADD AND SWAP1 POP SWAP2 SWAP1 POP JUMP JUMPDEST PUSH32 0x4E487B7100000000000000000000000000000000000000000000000000000000 PUSH1 0x0 MSTORE PUSH1 0x41 PUSH1 0x4 MSTORE PUSH1 0x24 PUSH1 0x0 REVERT JUMPDEST PUSH3 0x1103 DUP3 PUSH3 0x10B8 JUMP JUMPDEST DUP2 ADD DUP2 DUP2 LT PUSH8 0xFFFFFFFFFFFFFFFF DUP3 GT OR ISZERO PUSH3 0x1125 JUMPI PUSH3 0x1124 PUSH3 0x10C9 JUMP JUMPDEST JUMPDEST DUP1 PUSH1 0x40 MSTORE POP POP POP JUMP JUMPDEST PUSH1 0x0 PUSH3 0x113A PUSH3 0x109A JUMP JUMPDEST SWAP1 POP PUSH3 0x1148 DUP3 DUP3 PUSH3 0x10F8 JUMP JUMPDEST SWAP2 SWAP1 POP JUMP JUMPDEST PUSH1 0x0 PUSH8 0xFFFFFFFFFFFFFFFF DUP3 GT ISZERO PUSH3 0x116B JUMPI PUSH3 0x116A PUSH3 0x10C9 JUMP JUMPDEST JUMPDEST PUSH3 0x1176 DUP3 PUSH3 0x10B8 JUMP JUMPDEST SWAP1 POP PUSH1 0x20 DUP2 ADD SWAP1 POP SWAP2 SWAP1 POP JUMP JUMPDEST DUP3 DUP2 DUP4 CALLDATACOPY PUSH1 0x0 DUP4 DUP4 ADD MSTORE POP POP POP JUMP JUMPDEST PUSH1 0x0 PUSH3 0x11A9 PUSH3 0x11A3 DUP5 PUSH3 0x114D JUMP JUMPDEST PUSH3 0x112E JUMP JUMPDEST SWAP1 POP DUP3 DUP2 MSTORE PUSH1 0x20 DUP2 ADD DUP5 DUP5 DUP5 ADD GT ISZERO PUSH3 0x11C8 JUMPI PUSH3 0x11C7 PUSH3 0x10B3 JUMP JUMPDEST JUMPDEST PUSH3 0x11D5 DUP5 DUP3 DUP6 PUSH3 0x1183 JUMP JUMPDEST POP SWAP4 SWAP3 POP POP POP JUMP JUMPDEST PUSH1 0x0 DUP3 PUSH1 0x1F DUP4 ADD SLT PUSH3 0x11F5 JUMPI PUSH3 0x11F4 PUSH3 0x10AE JUMP JUMPDEST JUMPDEST DUP2 CALLDATALOAD PUSH3 0x1207 DUP5 DUP3 PUSH1 0x20 DUP7 ADD PUSH3 0x1192 JUMP JUMPDEST SWAP2 POP POP SWAP3 SWAP2 POP POP JUMP JUMPDEST PUSH1 0x0 PUSH20 0xFFFFFFFFFFFFFFFFFFFFFFFFFFFFFFFFFFFFFFFF DUP3 AND SWAP1 POP SWAP2 SWAP1 POP JUMP JUMPDEST PUSH1 0x0 PUSH3 0x123D DUP3 PUSH3 0x1210 JUMP JUMPDEST SWAP1 POP SWAP2 SWAP1 POP JUMP JUMPDEST PUSH3 0x124F DUP2 PUSH3 0x1230 JUMP JUMPDEST DUP2 EQ PUSH3 0x125B JUMPI PUSH1 0x0 DUP1 REVERT JUMPDEST POP JUMP JUMPDEST PUSH1 0x0 DUP2 CALLDATALOAD SWAP1 POP PUSH3 0x126F DUP2 PUSH3 0x1244 JUMP JUMPDEST SWAP3 SWAP2 POP POP JUMP JUMPDEST PUSH1 0x0 DUP2 SWAP1 POP SWAP2 SWAP1 POP JUMP JUMPDEST PUSH3 0x128A DUP2 PUSH3 0x1275 JUMP JUMPDEST DUP2 EQ PUSH3 0x1296 JUMPI PUSH1 0x0 DUP1 REVERT JUMPDEST POP JUMP JUMPDEST PUSH1 0x0 DUP2 CALLDATALOAD SWAP1 POP PUSH3 0x12AA DUP2 PUSH3 0x127F JUMP JUMPDEST SWAP3 SWAP2 POP POP JUMP JUMPDEST PUSH1 0x0 DUP1 PUSH1 0x0 DUP1 PUSH1 0x0 PUSH1 0xA0 DUP7 DUP9 SUB SLT ISZERO PUSH3 0x12CF JUMPI PUSH3 0x12CE PUSH3 0x10A4 JUMP JUMPDEST JUMPDEST PUSH1 0x0 DUP7 ADD CALLDATALOAD PUSH8 0xFFFFFFFFFFFFFFFF DUP2 GT ISZERO PUSH3 0x12F0 JUMPI PUSH3 0x12EF PUSH3 0x10A9 JUMP JUMPDEST JUMPDEST PUSH3 0x12FE DUP9 DUP3 DUP10 ADD PUSH3 0x11DD JUMP JUMPDEST SWAP6 POP POP PUSH1 0x20 PUSH3 0x1311 DUP9 DUP3 DUP10 ADD PUSH3 0x125E JUMP JUMPDEST SWAP5 POP POP PUSH1 0x40 PUSH3 0x1324 DUP9 DUP3 DUP10 ADD PUSH3 0x1299 JUMP JUMPDEST SWAP4 POP POP PUSH1 0x60 DUP7 ADD CALLDATALOAD PUSH8 0xFFFFFFFFFFFFFFFF DUP2 GT ISZERO PUSH3 0x1348 JUMPI PUSH3 0x1347 PUSH3 0x10A9 JUMP JUMPDEST JUMPDEST PUSH3 0x1356 DUP9 DUP3 DUP10 ADD PUSH3 0x11DD JUMP JUMPDEST SWAP3 POP POP PUSH1 0x80 PUSH3 0x1369 DUP9 DUP3 DUP10 ADD PUSH3 0x125E JUMP JUMPDEST SWAP2 POP POP SWAP3 SWAP6 POP SWAP3 SWAP6 SWAP1 SWAP4 POP JUMP JUMPDEST PUSH1 0x0 DUP1 PUSH1 0x40 DUP4 DUP6 SUB SLT ISZERO PUSH3 0x1390 JUMPI PUSH3 0x138F PUSH3 0x10A4 JUMP JUMPDEST JUMPDEST PUSH1 0x0 DUP4 ADD CALLDATALOAD PUSH8 0xFFFFFFFFFFFFFFFF DUP2 GT ISZERO PUSH3 0x13B1 JUMPI PUSH3 0x13B0 PUSH3 0x10A9 JUMP JUMPDEST JUMPDEST PUSH3 0x13BF DUP6 DUP3 DUP7 ADD PUSH3 0x11DD JUMP JUMPDEST SWAP3 POP POP PUSH1 0x20 PUSH3 0x13D2 DUP6 DUP3 DUP7 ADD PUSH3 0x1299 JUMP JUMPDEST SWAP2 POP POP SWAP3 POP SWAP3 SWAP1 POP JUMP JUMPDEST PUSH3 0x13E7 DUP2 PUSH3 0x1275 JUMP JUMPDEST DUP3 MSTORE POP POP JUMP JUMPDEST PUSH1 0x0 PUSH1 0x20 DUP3 ADD SWAP1 POP PUSH3 0x1404 PUSH1 0x0 DUP4 ADD DUP5 PUSH3 0x13DC JUMP JUMPDEST SWAP3 SWAP2 POP POP JUMP JUMPDEST PUSH3 0x1415 DUP2 PUSH3 0x1230 JUMP JUMPDEST DUP3 MSTORE POP POP JUMP JUMPDEST PUSH1 0x0 PUSH1 0x20 DUP3 ADD SWAP1 POP PUSH3 0x1432 PUSH1 0x0 DUP4 ADD DUP5 PUSH3 0x140A JUMP JUMPDEST SWAP3 SWAP2 POP POP JUMP JUMPDEST PUSH1 0x0 DUP1 PUSH1 0x40 DUP4 DUP6 SUB SLT ISZERO PUSH3 0x1452 JUMPI PUSH3 0x1451 PUSH3 0x10A4 JUMP JUMPDEST JUMPDEST PUSH1 0x0 PUSH3 0x1462 DUP6 DUP3 DUP7 ADD PUSH3 0x125E JUMP JUMPDEST SWAP3 POP POP PUSH1 0x20 PUSH3 0x1475 DUP6 DUP3 DUP7 ADD PUSH3 0x1299 JUMP JUMPDEST SWAP2 POP POP SWAP3 POP SWAP3 SWAP1 POP JUMP JUMPDEST PUSH1 0x0 DUP1 PUSH1 0x0 DUP1 PUSH1 0x0 PUSH1 0xA0 DUP7 DUP9 SUB SLT ISZERO PUSH3 0x149E JUMPI PUSH3 0x149D PUSH3 0x10A4 JUMP JUMPDEST JUMPDEST PUSH1 0x0 DUP7 ADD CALLDATALOAD PUSH8 0xFFFFFFFFFFFFFFFF DUP2 GT ISZERO PUSH3 0x14BF JUMPI PUSH3 0x14BE PUSH3 0x10A9 JUMP JUMPDEST JUMPDEST PUSH3 0x14CD DUP9 DUP3 DUP10 ADD PUSH3 0x11DD JUMP JUMPDEST SWAP6 POP POP PUSH1 0x20 PUSH3 0x14E0 DUP9 DUP3 DUP10 ADD PUSH3 0x125E JUMP JUMPDEST SWAP5 POP POP PUSH1 0x40 DUP7 ADD CALLDATALOAD PUSH8 0xFFFFFFFFFFFFFFFF DUP2 GT ISZERO PUSH3 0x1504 JUMPI PUSH3 0x1503 PUSH3 0x10A9 JUMP JUMPDEST JUMPDEST PUSH3 0x1512 DUP9 DUP3 DUP10 ADD PUSH3 0x11DD JUMP JUMPDEST SWAP4 POP POP PUSH1 0x60 DUP7 ADD CALLDATALOAD PUSH8 0xFFFFFFFFFFFFFFFF DUP2 GT ISZERO PUSH3 0x1536 JUMPI PUSH3 0x1535 PUSH3 0x10A9 JUMP JUMPDEST JUMPDEST PUSH3 0x1544 DUP9 DUP3 DUP10 ADD PUSH3 0x11DD JUMP JUMPDEST SWAP3 POP POP PUSH1 0x80 PUSH3 0x1557 DUP9 DUP3 DUP10 ADD PUSH3 0x1299 JUMP JUMPDEST SWAP2 POP POP SWAP3 SWAP6 POP SWAP3 SWAP6 SWAP1 SWAP4 POP JUMP JUMPDEST PUSH1 0x0 PUSH1 0x20 DUP3 DUP5 SUB SLT ISZERO PUSH3 0x157D JUMPI PUSH3 0x157C PUSH3 0x10A4 JUMP JUMPDEST JUMPDEST PUSH1 0x0 PUSH3 0x158D DUP5 DUP3 DUP6 ADD PUSH3 0x1299 JUMP JUMPDEST SWAP2 POP POP SWAP3 SWAP2 POP POP JUMP JUMPDEST PUSH1 0x0 PUSH1 0x20 DUP3 DUP5 SUB SLT ISZERO PUSH3 0x15AF JUMPI PUSH3 0x15AE PUSH3 0x10A4 JUMP JUMPDEST JUMPDEST PUSH1 0x0 PUSH3 0x15BF DUP5 DUP3 DUP6 ADD PUSH3 0x125E JUMP JUMPDEST SWAP2 POP POP SWAP3 SWAP2 POP POP JUMP JUMPDEST PUSH1 0x0 DUP2 MLOAD SWAP1 POP PUSH3 0x15D9 DUP2 PUSH3 0x1244 JUMP JUMPDEST SWAP3 SWAP2 POP POP JUMP JUMPDEST PUSH1 0x0 PUSH1 0x20 DUP3 DUP5 SUB SLT ISZERO PUSH3 0x15F8 JUMPI PUSH3 0x15F7 PUSH3 0x10A4 JUMP JUMPDEST JUMPDEST PUSH1 0x0 PUSH3 0x1608 DUP5 DUP3 DUP6 ADD PUSH3 0x15C8 JUMP JUMPDEST SWAP2 POP POP SWAP3 SWAP2 POP POP JUMP JUMPDEST PUSH1 0x0 DUP2 SWAP1 POP SWAP3 SWAP2 POP POP JUMP JUMPDEST POP JUMP JUMPDEST PUSH1 0x0 PUSH3 0x162E PUSH1 0x0 DUP4 PUSH3 0x1611 JUMP JUMPDEST SWAP2 POP PUSH3 0x163B DUP3 PUSH3 0x161C JUMP JUMPDEST PUSH1 0x0 DUP3 ADD SWAP1 POP SWAP2 SWAP1 POP JUMP JUMPDEST PUSH1 0x0 PUSH3 0x1653 DUP3 PUSH3 0x161F JUMP JUMPDEST SWAP2 POP DUP2 SWAP1 POP SWAP2 SWAP1 POP JUMP JUMPDEST PUSH1 0x0 DUP3 DUP3 MSTORE PUSH1 0x20 DUP3 ADD SWAP1 POP SWAP3 SWAP2 POP POP JUMP JUMPDEST PUSH32 0x54656E616E74206E6F207075646F207265636962697220666F6E646F73000000 PUSH1 0x0 DUP3 ADD MSTORE POP JUMP JUMPDEST PUSH1 0x0 PUSH3 0x16A6 PUSH1 0x1D DUP4 PUSH3 0x165D JUMP JUMPDEST SWAP2 POP PUSH3 0x16B3 DUP3 PUSH3 0x166E JUMP JUMPDEST PUSH1 0x20 DUP3 ADD SWAP1 POP SWAP2 SWAP1 POP JUMP JUMPDEST PUSH1 0x0 PUSH1 0x20 DUP3 ADD SWAP1 POP DUP2 DUP2 SUB PUSH1 0x0 DUP4 ADD MSTORE PUSH3 0x16D9 DUP2 PUSH3 0x1697 JUMP JUMPDEST SWAP1 POP SWAP2 SWAP1 POP JUMP JUMPDEST PUSH1 0x0 DUP2 MLOAD SWAP1 POP SWAP2 SWAP1 POP JUMP JUMPDEST PUSH1 0x0 JUMPDEST DUP4 DUP2 LT ISZERO PUSH3 0x170B JUMPI DUP1 DUP3 ADD MLOAD DUP2 DUP5 ADD MSTORE PUSH1 0x20 DUP2 ADD SWAP1 POP PUSH3 0x16EE JUMP JUMPDEST PUSH1 0x0 DUP5 DUP5 ADD MSTORE POP POP POP POP JUMP JUMPDEST PUSH1 0x0 PUSH3 0x1724 DUP3 PUSH3 0x16E0 JUMP JUMPDEST PUSH3 0x1730 DUP2 DUP6 PUSH3 0x165D JUMP JUMPDEST SWAP4 POP PUSH3 0x1742 DUP2 DUP6 PUSH1 0x20 DUP7 ADD PUSH3 0x16EB JUMP JUMPDEST PUSH3 0x174D DUP2 PUSH3 0x10B8 JUMP JUMPDEST DUP5 ADD SWAP2 POP POP SWAP3 SWAP2 POP POP JUMP JUMPDEST PUSH1 0x0 PUSH1 0xA0 DUP3 ADD SWAP1 POP DUP2 DUP2 SUB PUSH1 0x0 DUP4 ADD MSTORE PUSH3 0x1774 DUP2 DUP9 PUSH3 0x1717 JUMP JUMPDEST SWAP1 POP PUSH3 0x1785 PUSH1 0x20 DUP4 ADD DUP8 PUSH3 0x140A JUMP JUMPDEST PUSH3 0x1794 PUSH1 0x40 DUP4 ADD DUP7 PUSH3 0x13DC JUMP JUMPDEST DUP2 DUP2 SUB PUSH1 0x60 DUP4 ADD MSTORE PUSH3 0x17A8 DUP2 DUP6 PUSH3 0x1717 JUMP JUMPDEST SWAP1 POP PUSH3 0x17B9 PUSH1 0x80 DUP4 ADD DUP5 PUSH3 0x140A JUMP JUMPDEST SWAP7 SWAP6 POP POP POP POP POP POP JUMP JUMPDEST PUSH32 0x466F6E646F7320696E737566696369656E746573000000000000000000000000 PUSH1 0x0 DUP3 ADD MSTORE POP JUMP JUMPDEST PUSH1 0x0 PUSH3 0x17FB PUSH1 0x14 DUP4 PUSH3 0x165D JUMP JUMPDEST SWAP2 POP PUSH3 0x1808 DUP3 PUSH3 0x17C3 JUMP JUMPDEST PUSH1 0x20 DUP3 ADD SWAP1 POP SWAP2 SWAP1 POP JUMP JUMPDEST PUSH1 0x0 PUSH1 0x20 DUP3 ADD SWAP1 POP DUP2 DUP2 SUB PUSH1 0x0 DUP4 ADD MSTORE PUSH3 0x182E DUP2 PUSH3 0x17EC JUMP JUMPDEST SWAP1 POP SWAP2 SWAP1 POP JUMP JUMPDEST PUSH32 0x4E487B7100000000000000000000000000000000000000000000000000000000 PUSH1 0x0 MSTORE PUSH1 0x32 PUSH1 0x4 MSTORE PUSH1 0x24 PUSH1 0x0 REVERT JUMPDEST PUSH1 0x0 DUP2 MLOAD SWAP1 POP PUSH3 0x1875 DUP2 PUSH3 0x127F JUMP JUMPDEST SWAP3 SWAP2 POP POP JUMP JUMPDEST PUSH1 0x0 PUSH1 0x20 DUP3 DUP5 SUB SLT ISZERO PUSH3 0x1894 JUMPI PUSH3 0x1893 PUSH3 0x10A4 JUMP JUMPDEST JUMPDEST PUSH1 0x0 PUSH3 0x18A4 DUP5 DUP3 DUP6 ADD PUSH3 0x1864 JUMP JUMPDEST SWAP2 POP POP SWAP3 SWAP2 POP POP JUMP JUMPDEST PUSH32 0x4E487B7100000000000000000000000000000000000000000000000000000000 PUSH1 0x0 MSTORE PUSH1 0x11 PUSH1 0x4 MSTORE PUSH1 0x24 PUSH1 0x0 REVERT JUMPDEST PUSH1 0x0 PUSH3 0x18E9 DUP3 PUSH3 0x1275 JUMP JUMPDEST SWAP2 POP PUSH32 0xFFFFFFFFFFFFFFFFFFFFFFFFFFFFFFFFFFFFFFFFFFFFFFFFFFFFFFFFFFFFFFFF DUP3 SUB PUSH3 0x191E JUMPI PUSH3 0x191D PUSH3 0x18AD JUMP JUMPDEST JUMPDEST PUSH1 0x1 DUP3 ADD SWAP1 POP SWAP2 SWAP1 POP JUMP JUMPDEST PUSH32 0x4E487B7100000000000000000000000000000000000000000000000000000000 PUSH1 0x0 MSTORE PUSH1 0x22 PUSH1 0x4 MSTORE PUSH1 0x24 PUSH1 0x0 REVERT JUMPDEST PUSH1 0x0 PUSH1 0x2 DUP3 DIV SWAP1 POP PUSH1 0x1 DUP3 AND DUP1 PUSH3 0x1971 JUMPI PUSH1 0x7F DUP3 AND SWAP2 POP JUMPDEST PUSH1 0x20 DUP3 LT DUP2 SUB PUSH3 0x1987 JUMPI PUSH3 0x1986 PUSH3 0x1929 JUMP JUMPDEST JUMPDEST POP SWAP2 SWAP1 POP JUMP JUMPDEST PUSH1 0x0 DUP2 SWAP1 POP DUP2 PUSH1 0x0 MSTORE PUSH1 0x20 PUSH1 0x0 KECCAK256 SWAP1 POP SWAP2 SWAP1 POP JUMP JUMPDEST PUSH1 0x0 PUSH1 0x20 PUSH1 0x1F DUP4 ADD DIV SWAP1 POP SWAP2 SWAP1 POP JUMP JUMPDEST PUSH1 0x0 DUP3 DUP3 SHL SWAP1 POP SWAP3 SWAP2 POP POP JUMP JUMPDEST PUSH1 0x0 PUSH1 0x8 DUP4 MUL PUSH3 0x19F1 PUSH32 0xFFFFFFFFFFFFFFFFFFFFFFFFFFFFFFFFFFFFFFFFFFFFFFFFFFFFFFFFFFFFFFFF DUP3 PUSH3 0x19B2 JUMP JUMPDEST PUSH3 0x19FD DUP7 DUP4 PUSH3 0x19B2 JUMP JUMPDEST SWAP6 POP DUP1 NOT DUP5 AND SWAP4 POP DUP1 DUP7 AND DUP5 OR SWAP3 POP POP POP SWAP4 SWAP3 POP POP POP JUMP JUMPDEST PUSH1 0x0 DUP2 SWAP1 POP SWAP2 SWAP1 POP JUMP JUMPDEST PUSH1 0x0 PUSH3 0x1A40 PUSH3 0x1A3A PUSH3 0x1A34 DUP5 PUSH3 0x1275 JUMP JUMPDEST PUSH3 0x1A15 JUMP JUMPDEST PUSH3 0x1275 JUMP JUMPDEST SWAP1 POP SWAP2 SWAP1 POP JUMP JUMPDEST PUSH1 0x0 DUP2 SWAP1 POP SWAP2 SWAP1 POP JUMP JUMPDEST PUSH3 0x1A5C DUP4 PUSH3 0x1A1F JUMP JUMPDEST PUSH3 0x1A74 PUSH3 0x1A6B DUP3 PUSH3 0x1A47 JUMP JUMPDEST DUP5 DUP5 SLOAD PUSH3 0x19BF JUMP JUMPDEST DUP3 SSTORE POP POP POP POP JUMP JUMPDEST PUSH1 0x0 SWAP1 JUMP JUMPDEST PUSH3 0x1A8B PUSH3 0x1A7C JUMP JUMPDEST PUSH3 0x1A98 DUP2 DUP5 DUP5 PUSH3 0x1A51 JUMP JUMPDEST POP POP POP JUMP JUMPDEST JUMPDEST DUP2 DUP2 LT ISZERO PUSH3 0x1AC0 JUMPI PUSH3 0x1AB4 PUSH1 0x0 DUP3 PUSH3 0x1A81 JUMP JUMPDEST PUSH1 0x1 DUP2 ADD SWAP1 POP PUSH3 0x1A9E JUMP JUMPDEST POP POP JUMP JUMPDEST PUSH1 0x1F DUP3 GT ISZERO PUSH3 0x1B0F JUMPI PUSH3 0x1AD9 DUP2 PUSH3 0x198D JUMP JUMPDEST PUSH3 0x1AE4 DUP5 PUSH3 0x19A2 JUMP JUMPDEST DUP2 ADD PUSH1 0x20 DUP6 LT ISZERO PUSH3 0x1AF4 JUMPI DUP2 SWAP1 POP JUMPDEST PUSH3 0x1B0C PUSH3 0x1B03 DUP6 PUSH3 0x19A2 JUMP JUMPDEST DUP4 ADD DUP3 PUSH3 0x1A9D JUMP JUMPDEST POP POP JUMPDEST POP POP POP JUMP JUMPDEST PUSH1 0x0 DUP3 DUP3 SHR SWAP1 POP SWAP3 SWAP2 POP POP JUMP JUMPDEST PUSH1 0x0 PUSH3 0x1B34 PUSH1 0x0 NOT DUP5 PUSH1 0x8 MUL PUSH3 0x1B14 JUMP JUMPDEST NOT DUP1 DUP4 AND SWAP2 POP POP SWAP3 SWAP2 POP POP JUMP JUMPDEST PUSH1 0x0 PUSH3 0x1B4F DUP4 DUP4 PUSH3 0x1B21 JUMP JUMPDEST SWAP2 POP DUP3 PUSH1 0x2 MUL DUP3 OR SWAP1 POP SWAP3 SWAP2 POP POP JUMP JUMPDEST PUSH3 0x1B6A DUP3 PUSH3 0x16E0 JUMP JUMPDEST PUSH8 0xFFFFFFFFFFFFFFFF DUP2 GT ISZERO PUSH3 0x1B86 JUMPI PUSH3 0x1B85 PUSH3 0x10C9 JUMP JUMPDEST JUMPDEST PUSH3 0x1B92 DUP3 SLOAD PUSH3 0x1958 JUMP JUMPDEST PUSH3 0x1B9F DUP3 DUP3 DUP6 PUSH3 0x1AC4 JUMP JUMPDEST PUSH1 0x0 PUSH1 0x20 SWAP1 POP PUSH1 0x1F DUP4 GT PUSH1 0x1 DUP2 EQ PUSH3 0x1BD7 JUMPI PUSH1 0x0 DUP5 ISZERO PUSH3 0x1BC2 JUMPI DUP3 DUP8 ADD MLOAD SWAP1 POP JUMPDEST PUSH3 0x1BCE DUP6 DUP3 PUSH3 0x1B41 JUMP JUMPDEST DUP7 SSTORE POP PUSH3 0x1C3E JUMP JUMPDEST PUSH1 0x1F NOT DUP5 AND PUSH3 0x1BE7 DUP7 PUSH3 0x198D JUMP JUMPDEST PUSH1 0x0 JUMPDEST DUP3 DUP2 LT ISZERO PUSH3 0x1C11 JUMPI DUP5 DUP10 ADD MLOAD DUP3 SSTORE PUSH1 0x1 DUP3 ADD SWAP2 POP PUSH1 0x20 DUP6 ADD SWAP5 POP PUSH1 0x20 DUP2 ADD SWAP1 POP PUSH3 0x1BEA JUMP JUMPDEST DUP7 DUP4 LT ISZERO PUSH3 0x1C31 JUMPI DUP5 DUP10 ADD MLOAD PUSH3 0x1C2D PUSH1 0x1F DUP10 AND DUP3 PUSH3 0x1B21 JUMP JUMPDEST DUP4 SSTORE POP JUMPDEST PUSH1 0x1 PUSH1 0x2 DUP9 MUL ADD DUP9 SSTORE POP POP POP JUMPDEST POP POP POP POP POP POP JUMP JUMPDEST PUSH1 0x0 PUSH3 0x1C53 DUP3 PUSH3 0x1275 JUMP JUMPDEST SWAP2 POP PUSH3 0x1C60 DUP4 PUSH3 0x1275 JUMP JUMPDEST SWAP3 POP DUP3 DUP3 ADD SWAP1 POP DUP1 DUP3 GT ISZERO PUSH3 0x1C7B JUMPI PUSH3 0x1C7A PUSH3 0x18AD JUMP JUMPDEST JUMPDEST SWAP3 SWAP2 POP POP JUMP JUMPDEST PUSH1 0x0 PUSH1 0x20 DUP3 ADD SWAP1 POP DUP2 DUP2 SUB PUSH1 0x0 DUP4 ADD MSTORE PUSH3 0x1C9D DUP2 DUP5 PUSH3 0x1717 JUMP JUMPDEST SWAP1 POP SWAP3 SWAP2 POP POP JUMP JUMPDEST PUSH32 0x46616C6C6F206C61207472616E73666572656E63696100000000000000000000 PUSH1 0x0 DUP3 ADD MSTORE POP JUMP JUMPDEST PUSH1 0x0 PUSH3 0x1CDD PUSH1 0x16 DUP4 PUSH3 0x165D JUMP JUMPDEST SWAP2 POP PUSH3 0x1CEA DUP3 PUSH3 0x1CA5 JUMP JUMPDEST PUSH1 0x20 DUP3 ADD SWAP1 POP SWAP2 SWAP1 POP JUMP JUMPDEST PUSH1 0x0 PUSH1 0x20 DUP3 ADD SWAP1 POP DUP2 DUP2 SUB PUSH1 0x0 DUP4 ADD MSTORE PUSH3 0x1D10 DUP2 PUSH3 0x1CCE JUMP JUMPDEST SWAP1 POP SWAP2 SWAP1 POP JUMP JUMPDEST PUSH1 0x0 PUSH1 0xA0 DUP3 ADD SWAP1 POP DUP2 DUP2 SUB PUSH1 0x0 DUP4 ADD MSTORE PUSH3 0x1D33 DUP2 DUP9 PUSH3 0x1717 JUMP JUMPDEST SWAP1 POP PUSH3 0x1D44 PUSH1 0x20 DUP4 ADD DUP8 PUSH3 0x140A JUMP JUMPDEST DUP2 DUP2 SUB PUSH1 0x40 DUP4 ADD MSTORE PUSH3 0x1D58 DUP2 DUP7 PUSH3 0x1717 JUMP JUMPDEST SWAP1 POP DUP2 DUP2 SUB PUSH1 0x60 DUP4 ADD MSTORE PUSH3 0x1D6E DUP2 DUP6 PUSH3 0x1717 JUMP JUMPDEST SWAP1 POP PUSH3 0x1D7F PUSH1 0x80 DUP4 ADD DUP5 PUSH3 0x13DC JUMP JUMPDEST SWAP7 SWAP6 POP POP POP POP POP POP JUMP JUMPDEST PUSH32 0x456D706C6F796565206E6F207075646F207265636962697220666F6E646F7300 PUSH1 0x0 DUP3 ADD MSTORE POP JUMP JUMPDEST PUSH1 0x0 PUSH3 0x1DC1 PUSH1 0x1F DUP4 PUSH3 0x165D JUMP JUMPDEST SWAP2 POP PUSH3 0x1DCE DUP3 PUSH3 0x1D89 JUMP JUMPDEST PUSH1 0x20 DUP3 ADD SWAP1 POP SWAP2 SWAP1 POP JUMP JUMPDEST PUSH1 0x0 PUSH1 0x20 DUP3 ADD SWAP1 POP DUP2 DUP2 SUB PUSH1 0x0 DUP4 ADD MSTORE PUSH3 0x1DF4 DUP2 PUSH3 0x1DB2 JUMP JUMPDEST SWAP1 POP SWAP2 SWAP1 POP JUMP JUMPDEST PUSH1 0x0 DUP2 SLOAD PUSH3 0x1E0A DUP2 PUSH3 0x1958 JUMP JUMPDEST PUSH3 0x1E16 DUP2 DUP7 PUSH3 0x165D JUMP JUMPDEST SWAP5 POP PUSH1 0x1 DUP3 AND PUSH1 0x0 DUP2 EQ PUSH3 0x1E34 JUMPI PUSH1 0x1 DUP2 EQ PUSH3 0x1E4B JUMPI PUSH3 0x1E82 JUMP JUMPDEST PUSH1 0xFF NOT DUP4 AND DUP7 MSTORE DUP2 ISZERO ISZERO PUSH1 0x20 MUL DUP7 ADD SWAP4 POP PUSH3 0x1E82 JUMP JUMPDEST PUSH3 0x1E56 DUP6 PUSH3 0x198D JUMP JUMPDEST PUSH1 0x0 JUMPDEST DUP4 DUP2 LT ISZERO PUSH3 0x1E7A JUMPI DUP2 SLOAD DUP2 DUP10 ADD MSTORE PUSH1 0x1 DUP3 ADD SWAP2 POP PUSH1 0x20 DUP2 ADD SWAP1 POP PUSH3 0x1E59 JUMP JUMPDEST DUP1 DUP9 ADD SWAP6 POP POP POP JUMPDEST POP POP POP SWAP3 SWAP2 POP POP JUMP JUMPDEST PUSH1 0x0 PUSH1 0x40 DUP3 ADD SWAP1 POP DUP2 DUP2 SUB PUSH1 0x0 DUP4 ADD MSTORE PUSH3 0x1EA7 DUP2 DUP6 PUSH3 0x1DFB JUMP JUMPDEST SWAP1 POP PUSH3 0x1EB8 PUSH1 0x20 DUP4 ADD DUP5 PUSH3 0x13DC JUMP JUMPDEST SWAP4 SWAP3 POP POP POP JUMP JUMPDEST PUSH1 0x0 DUP2 SWAP1 POP SWAP2 SWAP1 POP JUMP JUMPDEST PUSH1 0x0 PUSH3 0x1EEA PUSH3 0x1EE4 PUSH3 0x1EDE DUP5 PUSH3 0x1EBF JUMP JUMPDEST PUSH3 0x1A15 JUMP JUMPDEST PUSH3 0x1275 JUMP JUMPDEST SWAP1 POP SWAP2 SWAP1 POP JUMP JUMPDEST PUSH3 0x1EFC DUP2 PUSH3 0x1EC9 JUMP JUMPDEST DUP3 MSTORE POP POP JUMP JUMPDEST PUSH1 0x0 PUSH1 0x20 DUP3 ADD SWAP1 POP PUSH3 0x1F19 PUSH1 0x0 DUP4 ADD DUP5 PUSH3 0x1EF1 JUMP JUMPDEST SWAP3 SWAP2 POP POP JUMP JUMPDEST PUSH32 0x4F776E61626C653A206E6577206F776E657220697320746865207A65726F2061 PUSH1 0x0 DUP3 ADD MSTORE PUSH32 0x6464726573730000000000000000000000000000000000000000000000000000 PUSH1 0x20 DUP3 ADD MSTORE POP JUMP JUMPDEST PUSH1 0x0 PUSH3 0x1F7D PUSH1 0x26 DUP4 PUSH3 0x165D JUMP JUMPDEST SWAP2 POP PUSH3 0x1F8A DUP3 PUSH3 0x1F1F JUMP JUMPDEST PUSH1 0x40 DUP3 ADD SWAP1 POP SWAP2 SWAP1 POP JUMP JUMPDEST PUSH1 0x0 PUSH1 0x20 DUP3 ADD SWAP1 POP DUP2 DUP2 SUB PUSH1 0x0 DUP4 ADD MSTORE PUSH3 0x1FB0 DUP2 PUSH3 0x1F6E JUMP JUMPDEST SWAP1 POP SWAP2 SWAP1 POP JUMP JUMPDEST PUSH32 0x4F776E61626C653A2063616C6C6572206973206E6F7420746865206F776E6572 PUSH1 0x0 DUP3 ADD MSTORE POP JUMP JUMPDEST PUSH1 0x0 PUSH3 0x1FEF PUSH1 0x20 DUP4 PUSH3 0x165D JUMP JUMPDEST SWAP2 POP PUSH3 0x1FFC DUP3 PUSH3 0x1FB7 JUMP JUMPDEST PUSH1 0x20 DUP3 ADD SWAP1 POP SWAP2 SWAP1 POP JUMP JUMPDEST PUSH1 0x0 PUSH1 0x20 DUP3 ADD SWAP1 POP DUP2 DUP2 SUB PUSH1 0x0 DUP4 ADD MSTORE PUSH3 0x2022 DUP2 PUSH3 0x1FE0 JUMP JUMPDEST SWAP1 POP SWAP2 SWAP1 POP JUMP INVALID PUSH1 0x80 PUSH1 0x40 MSTORE PUSH1 0x40 MLOAD PUSH3 0xED5 CODESIZE SUB DUP1 PUSH3 0xED5 DUP4 CODECOPY DUP2 DUP2 ADD PUSH1 0x40 MSTORE DUP2 ADD SWAP1 PUSH3 0x29 SWAP2 SWAP1 PUSH3 0x318 JUMP JUMPDEST DUP5 DUP5 DUP2 PUSH1 0x0 SWAP1 DUP2 PUSH3 0x3C SWAP2 SWAP1 PUSH3 0x61F JUMP JUMPDEST POP DUP1 PUSH1 0x1 PUSH1 0x0 PUSH2 0x100 EXP DUP2 SLOAD DUP2 PUSH20 0xFFFFFFFFFFFFFFFFFFFFFFFFFFFFFFFFFFFFFFFF MUL NOT AND SWAP1 DUP4 PUSH20 0xFFFFFFFFFFFFFFFFFFFFFFFFFFFFFFFFFFFFFFFF AND MUL OR SWAP1 SSTORE POP POP POP DUP3 PUSH1 0x2 DUP2 SWAP1 SSTORE POP DUP2 PUSH1 0x3 SWAP1 DUP2 PUSH3 0x98 SWAP2 SWAP1 PUSH3 0x61F JUMP JUMPDEST POP DUP1 PUSH1 0x4 PUSH1 0x0 PUSH2 0x100 EXP DUP2 SLOAD DUP2 PUSH20 0xFFFFFFFFFFFFFFFFFFFFFFFFFFFFFFFFFFFFFFFF MUL NOT AND SWAP1 DUP4 PUSH20 0xFFFFFFFFFFFFFFFFFFFFFFFFFFFFFFFFFFFFFFFF AND MUL OR SWAP1 SSTORE POP POP POP POP POP POP PUSH3 0x706 JUMP JUMPDEST PUSH1 0x0 PUSH1 0x40 MLOAD SWAP1 POP SWAP1 JUMP JUMPDEST PUSH1 0x0 DUP1 REVERT JUMPDEST PUSH1 0x0 DUP1 REVERT JUMPDEST PUSH1 0x0 DUP1 REVERT JUMPDEST PUSH1 0x0 DUP1 REVERT JUMPDEST PUSH1 0x0 PUSH1 0x1F NOT PUSH1 0x1F DUP4 ADD AND SWAP1 POP SWAP2 SWAP1 POP JUMP JUMPDEST PUSH32 0x4E487B7100000000000000000000000000000000000000000000000000000000 PUSH1 0x0 MSTORE PUSH1 0x41 PUSH1 0x4 MSTORE PUSH1 0x24 PUSH1 0x0 REVERT JUMPDEST PUSH3 0x14E DUP3 PUSH3 0x103 JUMP JUMPDEST DUP2 ADD DUP2 DUP2 LT PUSH8 0xFFFFFFFFFFFFFFFF DUP3 GT OR ISZERO PUSH3 0x170 JUMPI PUSH3 0x16F PUSH3 0x114 JUMP JUMPDEST JUMPDEST DUP1 PUSH1 0x40 MSTORE POP POP POP JUMP JUMPDEST PUSH1 0x0 PUSH3 0x185 PUSH3 0xE5 JUMP JUMPDEST SWAP1 POP PUSH3 0x193 DUP3 DUP3 PUSH3 0x143 JUMP JUMPDEST SWAP2 SWAP1 POP JUMP JUMPDEST PUSH1 0x0 PUSH8 0xFFFFFFFFFFFFFFFF DUP3 GT ISZERO PUSH3 0x1B6 JUMPI PUSH3 0x1B5 PUSH3 0x114 JUMP JUMPDEST JUMPDEST PUSH3 0x1C1 DUP3 PUSH3 0x103 JUMP JUMPDEST SWAP1 POP PUSH1 0x20 DUP2 ADD SWAP1 POP SWAP2 SWAP1 POP JUMP JUMPDEST PUSH1 0x0 JUMPDEST DUP4 DUP2 LT ISZERO PUSH3 0x1EE JUMPI DUP1 DUP3 ADD MLOAD DUP2 DUP5 ADD MSTORE PUSH1 0x20 DUP2 ADD SWAP1 POP PUSH3 0x1D1 JUMP JUMPDEST PUSH1 0x0 DUP5 DUP5 ADD MSTORE POP POP POP POP JUMP JUMPDEST PUSH1 0x0 PUSH3 0x211 PUSH3 0x20B DUP5 PUSH3 0x198 JUMP JUMPDEST PUSH3 0x179 JUMP JUMPDEST SWAP1 POP DUP3 DUP2 MSTORE PUSH1 0x20 DUP2 ADD DUP5 DUP5 DUP5 ADD GT ISZERO PUSH3 0x230 JUMPI PUSH3 0x22F PUSH3 0xFE JUMP JUMPDEST JUMPDEST PUSH3 0x23D DUP5 DUP3 DUP6 PUSH3 0x1CE JUMP JUMPDEST POP SWAP4 SWAP3 POP POP POP JUMP JUMPDEST PUSH1 0x0 DUP3 PUSH1 0x1F DUP4 ADD SLT PUSH3 0x25D JUMPI PUSH3 0x25C PUSH3 0xF9 JUMP JUMPDEST JUMPDEST DUP2 MLOAD PUSH3 0x26F DUP5 DUP3 PUSH1 0x20 DUP7 ADD PUSH3 0x1FA JUMP JUMPDEST SWAP2 POP POP SWAP3 SWAP2 POP POP JUMP JUMPDEST PUSH1 0x0 PUSH20 0xFFFFFFFFFFFFFFFFFFFFFFFFFFFFFFFFFFFFFFFF DUP3 AND SWAP1 POP SWAP2 SWAP1 POP JUMP JUMPDEST PUSH1 0x0 PUSH3 0x2A5 DUP3 PUSH3 0x278 JUMP JUMPDEST SWAP1 POP SWAP2 SWAP1 POP JUMP JUMPDEST PUSH3 0x2B7 DUP2 PUSH3 0x298 JUMP JUMPDEST DUP2 EQ PUSH3 0x2C3 JUMPI PUSH1 0x0 DUP1 REVERT JUMPDEST POP JUMP JUMPDEST PUSH1 0x0 DUP2 MLOAD SWAP1 POP PUSH3 0x2D7 DUP2 PUSH3 0x2AC JUMP JUMPDEST SWAP3 SWAP2 POP POP JUMP JUMPDEST PUSH1 0x0 DUP2 SWAP1 POP SWAP2 SWAP1 POP JUMP JUMPDEST PUSH3 0x2F2 DUP2 PUSH3 0x2DD JUMP JUMPDEST DUP2 EQ PUSH3 0x2FE JUMPI PUSH1 0x0 DUP1 REVERT JUMPDEST POP JUMP JUMPDEST PUSH1 0x0 DUP2 MLOAD SWAP1 POP PUSH3 0x312 DUP2 PUSH3 0x2E7 JUMP JUMPDEST SWAP3 SWAP2 POP POP JUMP JUMPDEST PUSH1 0x0 DUP1 PUSH1 0x0 DUP1 PUSH1 0x0 PUSH1 0xA0 DUP7 DUP9 SUB SLT ISZERO PUSH3 0x337 JUMPI PUSH3 0x336 PUSH3 0xEF JUMP JUMPDEST JUMPDEST PUSH1 0x0 DUP7 ADD MLOAD PUSH8 0xFFFFFFFFFFFFFFFF DUP2 GT ISZERO PUSH3 0x358 JUMPI PUSH3 0x357 PUSH3 0xF4 JUMP JUMPDEST JUMPDEST PUSH3 0x366 DUP9 DUP3 DUP10 ADD PUSH3 0x245 JUMP JUMPDEST SWAP6 POP POP PUSH1 0x20 PUSH3 0x379 DUP9 DUP3 DUP10 ADD PUSH3 0x2C6 JUMP JUMPDEST SWAP5 POP POP PUSH1 0x40 PUSH3 0x38C DUP9 DUP3 DUP10 ADD PUSH3 0x301 JUMP JUMPDEST SWAP4 POP POP PUSH1 0x60 DUP7 ADD MLOAD PUSH8 0xFFFFFFFFFFFFFFFF DUP2 GT ISZERO PUSH3 0x3B0 JUMPI PUSH3 0x3AF PUSH3 0xF4 JUMP JUMPDEST JUMPDEST PUSH3 0x3BE DUP9 DUP3 DUP10 ADD PUSH3 0x245 JUMP JUMPDEST SWAP3 POP POP PUSH1 0x80 PUSH3 0x3D1 DUP9 DUP3 DUP10 ADD PUSH3 0x2C6 JUMP JUMPDEST SWAP2 POP POP SWAP3 SWAP6 POP SWAP3 SWAP6 SWAP1 SWAP4 POP JUMP JUMPDEST PUSH1 0x0 DUP2 MLOAD SWAP1 POP SWAP2 SWAP1 POP JUMP JUMPDEST PUSH32 0x4E487B7100000000000000000000000000000000000000000000000000000000 PUSH1 0x0 MSTORE PUSH1 0x22 PUSH1 0x4 MSTORE PUSH1 0x24 PUSH1 0x0 REVERT JUMPDEST PUSH1 0x0 PUSH1 0x2 DUP3 DIV SWAP1 POP PUSH1 0x1 DUP3 AND DUP1 PUSH3 0x431 JUMPI PUSH1 0x7F DUP3 AND SWAP2 POP JUMPDEST PUSH1 0x20 DUP3 LT DUP2 SUB PUSH3 0x447 JUMPI PUSH3 0x446 PUSH3 0x3E9 JUMP JUMPDEST JUMPDEST POP SWAP2 SWAP1 POP JUMP JUMPDEST PUSH1 0x0 DUP2 SWAP1 POP DUP2 PUSH1 0x0 MSTORE PUSH1 0x20 PUSH1 0x0 KECCAK256 SWAP1 POP SWAP2 SWAP1 POP JUMP JUMPDEST PUSH1 0x0 PUSH1 0x20 PUSH1 0x1F DUP4 ADD DIV SWAP1 POP SWAP2 SWAP1 POP JUMP JUMPDEST PUSH1 0x0 DUP3 DUP3 SHL SWAP1 POP SWAP3 SWAP2 POP POP JUMP JUMPDEST PUSH1 0x0 PUSH1 0x8 DUP4 MUL PUSH3 0x4B1 PUSH32 0xFFFFFFFFFFFFFFFFFFFFFFFFFFFFFFFFFFFFFFFFFFFFFFFFFFFFFFFFFFFFFFFF DUP3 PUSH3 0x472 JUMP JUMPDEST PUSH3 0x4BD DUP7 DUP4 PUSH3 0x472 JUMP JUMPDEST SWAP6 POP DUP1 NOT DUP5 AND SWAP4 POP DUP1 DUP7 AND DUP5 OR SWAP3 POP POP POP SWAP4 SWAP3 POP POP POP JUMP JUMPDEST PUSH1 0x0 DUP2 SWAP1 POP SWAP2 SWAP1 POP JUMP JUMPDEST PUSH1 0x0 PUSH3 0x500 PUSH3 0x4FA PUSH3 0x4F4 DUP5 PUSH3 0x2DD JUMP JUMPDEST PUSH3 0x4D5 JUMP JUMPDEST PUSH3 0x2DD JUMP JUMPDEST SWAP1 POP SWAP2 SWAP1 POP JUMP JUMPDEST PUSH1 0x0 DUP2 SWAP1 POP SWAP2 SWAP1 POP JUMP JUMPDEST PUSH3 0x51C DUP4 PUSH3 0x4DF JUMP JUMPDEST PUSH3 0x534 PUSH3 0x52B DUP3 PUSH3 0x507 JUMP JUMPDEST DUP5 DUP5 SLOAD PUSH3 0x47F JUMP JUMPDEST DUP3 SSTORE POP POP POP POP JUMP JUMPDEST PUSH1 0x0 SWAP1 JUMP JUMPDEST PUSH3 0x54B PUSH3 0x53C JUMP JUMPDEST PUSH3 0x558 DUP2 DUP5 DUP5 PUSH3 0x511 JUMP JUMPDEST POP POP POP JUMP JUMPDEST JUMPDEST DUP2 DUP2 LT ISZERO PUSH3 0x580 JUMPI PUSH3 0x574 PUSH1 0x0 DUP3 PUSH3 0x541 JUMP JUMPDEST PUSH1 0x1 DUP2 ADD SWAP1 POP PUSH3 0x55E JUMP JUMPDEST POP POP JUMP JUMPDEST PUSH1 0x1F DUP3 GT ISZERO PUSH3 0x5CF JUMPI PUSH3 0x599 DUP2 PUSH3 0x44D JUMP JUMPDEST PUSH3 0x5A4 DUP5 PUSH3 0x462 JUMP JUMPDEST DUP2 ADD PUSH1 0x20 DUP6 LT ISZERO PUSH3 0x5B4 JUMPI DUP2 SWAP1 POP JUMPDEST PUSH3 0x5CC PUSH3 0x5C3 DUP6 PUSH3 0x462 JUMP JUMPDEST DUP4 ADD DUP3 PUSH3 0x55D JUMP JUMPDEST POP POP JUMPDEST POP POP POP JUMP JUMPDEST PUSH1 0x0 DUP3 DUP3 SHR SWAP1 POP SWAP3 SWAP2 POP POP JUMP JUMPDEST PUSH1 0x0 PUSH3 0x5F4 PUSH1 0x0 NOT DUP5 PUSH1 0x8 MUL PUSH3 0x5D4 JUMP JUMPDEST NOT DUP1 DUP4 AND SWAP2 POP POP SWAP3 SWAP2 POP POP JUMP JUMPDEST PUSH1 0x0 PUSH3 0x60F DUP4 DUP4 PUSH3 0x5E1 JUMP JUMPDEST SWAP2 POP DUP3 PUSH1 0x2 MUL DUP3 OR SWAP1 POP SWAP3 SWAP2 POP POP JUMP JUMPDEST PUSH3 0x62A DUP3 PUSH3 0x3DE JUMP JUMPDEST PUSH8 0xFFFFFFFFFFFFFFFF DUP2 GT ISZERO PUSH3 0x646 JUMPI PUSH3 0x645 PUSH3 0x114 JUMP JUMPDEST JUMPDEST PUSH3 0x652 DUP3 SLOAD PUSH3 0x418 JUMP JUMPDEST PUSH3 0x65F DUP3 DUP3 DUP6 PUSH3 0x584 JUMP JUMPDEST PUSH1 0x0 PUSH1 0x20 SWAP1 POP PUSH1 0x1F DUP4 GT PUSH1 0x1 DUP2 EQ PUSH3 0x697 JUMPI PUSH1 0x0 DUP5 ISZERO PUSH3 0x682 JUMPI DUP3 DUP8 ADD MLOAD SWAP1 POP JUMPDEST PUSH3 0x68E DUP6 DUP3 PUSH3 0x601 JUMP JUMPDEST DUP7 SSTORE POP PUSH3 0x6FE JUMP JUMPDEST PUSH1 0x1F NOT DUP5 AND PUSH3 0x6A7 DUP7 PUSH3 0x44D JUMP JUMPDEST PUSH1 0x0 JUMPDEST DUP3 DUP2 LT ISZERO PUSH3 0x6D1 JUMPI DUP5 DUP10 ADD MLOAD DUP3 SSTORE PUSH1 0x1 DUP3 ADD SWAP2 POP PUSH1 0x20 DUP6 ADD SWAP5 POP PUSH1 0x20 DUP2 ADD SWAP1 POP PUSH3 0x6AA JUMP JUMPDEST DUP7 DUP4 LT ISZERO PUSH3 0x6F1 JUMPI DUP5 DUP10 ADD MLOAD PUSH3 0x6ED PUSH1 0x1F DUP10 AND DUP3 PUSH3 0x5E1 JUMP JUMPDEST DUP4 SSTORE POP JUMPDEST PUSH1 0x1 PUSH1 0x2 DUP9 MUL ADD DUP9 SSTORE POP POP POP JUMPDEST POP POP POP POP POP POP JUMP JUMPDEST PUSH2 0x7BF DUP1 PUSH3 0x716 PUSH1 0x0 CODECOPY PUSH1 0x0 RETURN INVALID PUSH1 0x80 PUSH1 0x40 MSTORE PUSH1 0x4 CALLDATASIZE LT PUSH2 0x59 JUMPI PUSH1 0x0 CALLDATALOAD PUSH1 0xE0 SHR DUP1 PUSH4 0x38CC4831 EQ PUSH2 0xD8 JUMPI DUP1 PUSH4 0x6C213B61 EQ PUSH2 0x103 JUMPI DUP1 PUSH4 0x835FC6CA EQ PUSH2 0x12C JUMPI DUP1 PUSH4 0xB93CDB7B EQ PUSH2 0x155 JUMPI DUP1 PUSH4 0xD0E30DB0 EQ PUSH2 0x180 JUMPI DUP1 PUSH4 0xDA6E75C2 EQ PUSH2 0x18A JUMPI PUSH2 0x9B JUMP JUMPDEST CALLDATASIZE PUSH2 0x9B JUMPI PUSH32 0x2D27851832FCAC28A0D4AF1344F01FED7FFCFD15171C14C564A0C42AA57AE5C0 CALLVALUE ADDRESS SELFBALANCE PUSH1 0x40 MLOAD PUSH2 0x91 SWAP4 SWAP3 SWAP2 SWAP1 PUSH2 0x4F2 JUMP JUMPDEST PUSH1 0x40 MLOAD DUP1 SWAP2 SUB SWAP1 LOG1 STOP JUMPDEST PUSH32 0x2D27851832FCAC28A0D4AF1344F01FED7FFCFD15171C14C564A0C42AA57AE5C0 CALLVALUE ADDRESS SELFBALANCE PUSH1 0x40 MLOAD PUSH2 0xCE SWAP4 SWAP3 SWAP2 SWAP1 PUSH2 0x4F2 JUMP JUMPDEST PUSH1 0x40 MLOAD DUP1 SWAP2 SUB SWAP1 LOG1 STOP JUMPDEST CALLVALUE DUP1 ISZERO PUSH2 0xE4 JUMPI PUSH1 0x0 DUP1 REVERT JUMPDEST POP PUSH2 0xED PUSH2 0x1A1 JUMP JUMPDEST PUSH1 0x40 MLOAD PUSH2 0xFA SWAP2 SWAP1 PUSH2 0x529 JUMP JUMPDEST PUSH1 0x40 MLOAD DUP1 SWAP2 SUB SWAP1 RETURN JUMPDEST CALLVALUE DUP1 ISZERO PUSH2 0x10F JUMPI PUSH1 0x0 DUP1 REVERT JUMPDEST POP PUSH2 0x12A PUSH1 0x4 DUP1 CALLDATASIZE SUB DUP2 ADD SWAP1 PUSH2 0x125 SWAP2 SWAP1 PUSH2 0x575 JUMP JUMPDEST PUSH2 0x1A9 JUMP JUMPDEST STOP JUMPDEST CALLVALUE DUP1 ISZERO PUSH2 0x138 JUMPI PUSH1 0x0 DUP1 REVERT JUMPDEST POP PUSH2 0x153 PUSH1 0x4 DUP1 CALLDATASIZE SUB DUP2 ADD SWAP1 PUSH2 0x14E SWAP2 SWAP1 PUSH2 0x5CE JUMP JUMPDEST PUSH2 0x1ED JUMP JUMPDEST STOP JUMPDEST CALLVALUE DUP1 ISZERO PUSH2 0x161 JUMPI PUSH1 0x0 DUP1 REVERT JUMPDEST POP PUSH2 0x16A PUSH2 0x2FB JUMP JUMPDEST PUSH1 0x40 MLOAD PUSH2 0x177 SWAP2 SWAP1 PUSH2 0x5FB JUMP JUMPDEST PUSH1 0x40 MLOAD DUP1 SWAP2 SUB SWAP1 RETURN JUMPDEST PUSH2 0x188 PUSH2 0x303 JUMP JUMPDEST STOP JUMPDEST CALLVALUE DUP1 ISZERO PUSH2 0x196 JUMPI PUSH1 0x0 DUP1 REVERT JUMPDEST POP PUSH2 0x19F PUSH2 0x340 JUMP JUMPDEST STOP JUMPDEST PUSH1 0x0 ADDRESS SWAP1 POP SWAP1 JUMP JUMPDEST DUP1 PUSH1 0x4 PUSH1 0x0 PUSH2 0x100 EXP DUP2 SLOAD DUP2 PUSH20 0xFFFFFFFFFFFFFFFFFFFFFFFFFFFFFFFFFFFFFFFF MUL NOT AND SWAP1 DUP4 PUSH20 0xFFFFFFFFFFFFFFFFFFFFFFFFFFFFFFFFFFFFFFFF AND MUL OR SWAP1 SSTORE POP POP JUMP JUMPDEST DUP1 SELFBALANCE LT ISZERO PUSH2 0x230 JUMPI PUSH1 0x40 MLOAD PUSH32 0x8C379A000000000000000000000000000000000000000000000000000000000 DUP2 MSTORE PUSH1 0x4 ADD PUSH2 0x227 SWAP1 PUSH2 0x673 JUMP JUMPDEST PUSH1 0x40 MLOAD DUP1 SWAP2 SUB SWAP1 REVERT JUMPDEST PUSH1 0x0 PUSH1 0x1 PUSH1 0x0 SWAP1 SLOAD SWAP1 PUSH2 0x100 EXP SWAP1 DIV PUSH20 0xFFFFFFFFFFFFFFFFFFFFFFFFFFFFFFFFFFFFFFFF AND PUSH20 0xFFFFFFFFFFFFFFFFFFFFFFFFFFFFFFFFFFFFFFFF AND DUP3 PUSH1 0x40 MLOAD PUSH2 0x278 SWAP1 PUSH2 0x6C4 JUMP JUMPDEST PUSH1 0x0 PUSH1 0x40 MLOAD DUP1 DUP4 SUB DUP2 DUP6 DUP8 GAS CALL SWAP3 POP POP POP RETURNDATASIZE DUP1 PUSH1 0x0 DUP2 EQ PUSH2 0x2B5 JUMPI PUSH1 0x40 MLOAD SWAP2 POP PUSH1 0x1F NOT PUSH1 0x3F RETURNDATASIZE ADD AND DUP3 ADD PUSH1 0x40 MSTORE RETURNDATASIZE DUP3 MSTORE RETURNDATASIZE PUSH1 0x0 PUSH1 0x20 DUP5 ADD RETURNDATACOPY PUSH2 0x2BA JUMP JUMPDEST PUSH1 0x60 SWAP2 POP JUMPDEST POP POP SWAP1 POP PUSH32 0x8FBD42AA6B9175C731EFE57E141436F5BB85231B5A377E39F53F8301ADE4836A DUP2 SELFBALANCE PUSH1 0x40 MLOAD PUSH2 0x2EF SWAP3 SWAP2 SWAP1 PUSH2 0x6F4 JUMP JUMPDEST PUSH1 0x40 MLOAD DUP1 SWAP2 SUB SWAP1 LOG1 POP POP JUMP JUMPDEST PUSH1 0x0 SELFBALANCE SWAP1 POP SWAP1 JUMP JUMPDEST PUSH32 0x2D27851832FCAC28A0D4AF1344F01FED7FFCFD15171C14C564A0C42AA57AE5C0 CALLVALUE ADDRESS SELFBALANCE PUSH1 0x40 MLOAD PUSH2 0x336 SWAP4 SWAP3 SWAP2 SWAP1 PUSH2 0x4F2 JUMP JUMPDEST PUSH1 0x40 MLOAD DUP1 SWAP2 SUB SWAP1 LOG1 JUMP JUMPDEST PUSH1 0x2 SLOAD SELFBALANCE LT ISZERO PUSH2 0x385 JUMPI PUSH1 0x40 MLOAD PUSH32 0x8C379A000000000000000000000000000000000000000000000000000000000 DUP2 MSTORE PUSH1 0x4 ADD PUSH2 0x37C SWAP1 PUSH2 0x673 JUMP JUMPDEST PUSH1 0x40 MLOAD DUP1 SWAP2 SUB SWAP1 REVERT JUMPDEST PUSH1 0x0 PUSH1 0x4 PUSH1 0x0 SWAP1 SLOAD SWAP1 PUSH2 0x100 EXP SWAP1 DIV PUSH20 0xFFFFFFFFFFFFFFFFFFFFFFFFFFFFFFFFFFFFFFFF AND PUSH20 0xFFFFFFFFFFFFFFFFFFFFFFFFFFFFFFFFFFFFFFFF AND PUSH1 0x2 SLOAD PUSH1 0x40 MLOAD PUSH2 0x3CF SWAP1 PUSH2 0x6C4 JUMP JUMPDEST PUSH1 0x0 PUSH1 0x40 MLOAD DUP1 DUP4 SUB DUP2 DUP6 DUP8 GAS CALL SWAP3 POP POP POP RETURNDATASIZE DUP1 PUSH1 0x0 DUP2 EQ PUSH2 0x40C JUMPI PUSH1 0x40 MLOAD SWAP2 POP PUSH1 0x1F NOT PUSH1 0x3F RETURNDATASIZE ADD AND DUP3 ADD PUSH1 0x40 MSTORE RETURNDATASIZE DUP3 MSTORE RETURNDATASIZE PUSH1 0x0 PUSH1 0x20 DUP5 ADD RETURNDATACOPY PUSH2 0x411 JUMP JUMPDEST PUSH1 0x60 SWAP2 POP JUMPDEST POP POP SWAP1 POP PUSH1 0x1 ISZERO ISZERO DUP2 ISZERO ISZERO EQ PUSH2 0x45C JUMPI PUSH1 0x40 MLOAD PUSH32 0x8C379A000000000000000000000000000000000000000000000000000000000 DUP2 MSTORE PUSH1 0x4 ADD PUSH2 0x453 SWAP1 PUSH2 0x769 JUMP JUMPDEST PUSH1 0x40 MLOAD DUP1 SWAP2 SUB SWAP1 REVERT JUMPDEST PUSH32 0x56E1CF8A52E84572FF49B950FA9A1A1867319BF8EBA3BF8C77BC4354678A34C5 PUSH1 0x2 SLOAD PUSH1 0x40 MLOAD PUSH2 0x48D SWAP2 SWAP1 PUSH2 0x5FB JUMP JUMPDEST PUSH1 0x40 MLOAD DUP1 SWAP2 SUB SWAP1 LOG1 POP JUMP JUMPDEST PUSH1 0x0 DUP2 SWAP1 POP SWAP2 SWAP1 POP JUMP JUMPDEST PUSH2 0x4AB DUP2 PUSH2 0x498 JUMP JUMPDEST DUP3 MSTORE POP POP JUMP JUMPDEST PUSH1 0x0 PUSH20 0xFFFFFFFFFFFFFFFFFFFFFFFFFFFFFFFFFFFFFFFF DUP3 AND SWAP1 POP SWAP2 SWAP1 POP JUMP JUMPDEST PUSH1 0x0 PUSH2 0x4DC DUP3 PUSH2 0x4B1 JUMP JUMPDEST SWAP1 POP SWAP2 SWAP1 POP JUMP JUMPDEST PUSH2 0x4EC DUP2 PUSH2 0x4D1 JUMP JUMPDEST DUP3 MSTORE POP POP JUMP JUMPDEST PUSH1 0x0 PUSH1 0x60 DUP3 ADD SWAP1 POP PUSH2 0x507 PUSH1 0x0 DUP4 ADD DUP7 PUSH2 0x4A2 JUMP JUMPDEST PUSH2 0x514 PUSH1 0x20 DUP4 ADD DUP6 PUSH2 0x4E3 JUMP JUMPDEST PUSH2 0x521 PUSH1 0x40 DUP4 ADD DUP5 PUSH2 0x4A2 JUMP JUMPDEST SWAP5 SWAP4 POP POP POP POP JUMP JUMPDEST PUSH1 0x0 PUSH1 0x20 DUP3 ADD SWAP1 POP PUSH2 0x53E PUSH1 0x0 DUP4 ADD DUP5 PUSH2 0x4E3 JUMP JUMPDEST SWAP3 SWAP2 POP POP JUMP JUMPDEST PUSH1 0x0 DUP1 REVERT JUMPDEST PUSH2 0x552 DUP2 PUSH2 0x4D1 JUMP JUMPDEST DUP2 EQ PUSH2 0x55D JUMPI PUSH1 0x0 DUP1 REVERT JUMPDEST POP JUMP JUMPDEST PUSH1 0x0 DUP2 CALLDATALOAD SWAP1 POP PUSH2 0x56F DUP2 PUSH2 0x549 JUMP JUMPDEST SWAP3 SWAP2 POP POP JUMP JUMPDEST PUSH1 0x0 PUSH1 0x20 DUP3 DUP5 SUB SLT ISZERO PUSH2 0x58B JUMPI PUSH2 0x58A PUSH2 0x544 JUMP JUMPDEST JUMPDEST PUSH1 0x0 PUSH2 0x599 DUP5 DUP3 DUP6 ADD PUSH2 0x560 JUMP JUMPDEST SWAP2 POP POP SWAP3 SWAP2 POP POP JUMP JUMPDEST PUSH2 0x5AB DUP2 PUSH2 0x498 JUMP JUMPDEST DUP2 EQ PUSH2 0x5B6 JUMPI PUSH1 0x0 DUP1 REVERT JUMPDEST POP JUMP JUMPDEST PUSH1 0x0 DUP2 CALLDATALOAD SWAP1 POP PUSH2 0x5C8 DUP2 PUSH2 0x5A2 JUMP JUMPDEST SWAP3 SWAP2 POP POP JUMP JUMPDEST PUSH1 0x0 PUSH1 0x20 DUP3 DUP5 SUB SLT ISZERO PUSH2 0x5E4 JUMPI PUSH2 0x5E3 PUSH2 0x544 JUMP JUMPDEST JUMPDEST PUSH1 0x0 PUSH2 0x5F2 DUP5 DUP3 DUP6 ADD PUSH2 0x5B9 JUMP JUMPDEST SWAP2 POP POP SWAP3 SWAP2 POP POP JUMP JUMPDEST PUSH1 0x0 PUSH1 0x20 DUP3 ADD SWAP1 POP PUSH2 0x610 PUSH1 0x0 DUP4 ADD DUP5 PUSH2 0x4A2 JUMP JUMPDEST SWAP3 SWAP2 POP POP JUMP JUMPDEST PUSH1 0x0 DUP3 DUP3 MSTORE PUSH1 0x20 DUP3 ADD SWAP1 POP SWAP3 SWAP2 POP POP JUMP JUMPDEST PUSH32 0x466F6E646F7320696E737566696369656E746573000000000000000000000000 PUSH1 0x0 DUP3 ADD MSTORE POP JUMP JUMPDEST PUSH1 0x0 PUSH2 0x65D PUSH1 0x14 DUP4 PUSH2 0x616 JUMP JUMPDEST SWAP2 POP PUSH2 0x668 DUP3 PUSH2 0x627 JUMP JUMPDEST PUSH1 0x20 DUP3 ADD SWAP1 POP SWAP2 SWAP1 POP JUMP JUMPDEST PUSH1 0x0 PUSH1 0x20 DUP3 ADD SWAP1 POP DUP2 DUP2 SUB PUSH1 0x0 DUP4 ADD MSTORE PUSH2 0x68C DUP2 PUSH2 0x650 JUMP JUMPDEST SWAP1 POP SWAP2 SWAP1 POP JUMP JUMPDEST PUSH1 0x0 DUP2 SWAP1 POP SWAP3 SWAP2 POP POP JUMP JUMPDEST POP JUMP JUMPDEST PUSH1 0x0 PUSH2 0x6AE PUSH1 0x0 DUP4 PUSH2 0x693 JUMP JUMPDEST SWAP2 POP PUSH2 0x6B9 DUP3 PUSH2 0x69E JUMP JUMPDEST PUSH1 0x0 DUP3 ADD SWAP1 POP SWAP2 SWAP1 POP JUMP JUMPDEST PUSH1 0x0 PUSH2 0x6CF DUP3 PUSH2 0x6A1 JUMP JUMPDEST SWAP2 POP DUP2 SWAP1 POP SWAP2 SWAP1 POP JUMP JUMPDEST PUSH1 0x0 DUP2 ISZERO ISZERO SWAP1 POP SWAP2 SWAP1 POP JUMP JUMPDEST PUSH2 0x6EE DUP2 PUSH2 0x6D9 JUMP JUMPDEST DUP3 MSTORE POP POP JUMP JUMPDEST PUSH1 0x0 PUSH1 0x40 DUP3 ADD SWAP1 POP PUSH2 0x709 PUSH1 0x0 DUP4 ADD DUP6 PUSH2 0x6E5 JUMP JUMPDEST PUSH2 0x716 PUSH1 0x20 DUP4 ADD DUP5 PUSH2 0x4A2 JUMP JUMPDEST SWAP4 SWAP3 POP POP POP JUMP JUMPDEST PUSH32 0x46616C6C6F206C61207472616E73666572656E63696100000000000000000000 PUSH1 0x0 DUP3 ADD MSTORE POP JUMP JUMPDEST PUSH1 0x0 PUSH2 0x753 PUSH1 0x16 DUP4 PUSH2 0x616 JUMP JUMPDEST SWAP2 POP PUSH2 0x75E DUP3 PUSH2 0x71D JUMP JUMPDEST PUSH1 0x20 DUP3 ADD SWAP1 POP SWAP2 SWAP1 POP JUMP JUMPDEST PUSH1 0x0 PUSH1 0x20 DUP3 ADD SWAP1 POP DUP2 DUP2 SUB PUSH1 0x0 DUP4 ADD MSTORE PUSH2 0x782 DUP2 PUSH2 0x746 JUMP JUMPDEST SWAP1 POP SWAP2 SWAP1 POP JUMP INVALID LOG2 PUSH5 0x6970667358 0x22 SLT KECCAK256 DUP12 PUSH20 0xCCEB4EC10A7C62F6132AF7AC097536CA297D18AE ADD 0xB8 0xDD ADDRESS KECCAK256 0xB7 MUL 0xAB PUSH13 0xFF64736F6C6343000812003360 LOG0 PUSH1 0x40 MSTORE CALLVALUE DUP1 ISZERO PUSH3 0x11 JUMPI PUSH1 0x0 DUP1 REVERT JUMPDEST POP PUSH1 0x40 MLOAD PUSH3 0xC35 CODESIZE SUB DUP1 PUSH3 0xC35 DUP4 CODECOPY DUP2 DUP2 ADD PUSH1 0x40 MSTORE DUP2 ADD SWAP1 PUSH3 0x37 SWAP2 SWAP1 PUSH3 0x2F8 JUMP JUMPDEST DUP5 DUP5 DUP2 PUSH1 0x0 SWAP1 DUP2 PUSH3 0x4A SWAP2 SWAP1 PUSH3 0x61E JUMP JUMPDEST POP DUP1 PUSH1 0x1 PUSH1 0x0 PUSH2 0x100 EXP DUP2 SLOAD DUP2 PUSH20 0xFFFFFFFFFFFFFFFFFFFFFFFFFFFFFFFFFFFFFFFF MUL NOT AND SWAP1 DUP4 PUSH20 0xFFFFFFFFFFFFFFFFFFFFFFFFFFFFFFFFFFFFFFFF AND MUL OR SWAP1 SSTORE POP POP POP DUP3 PUSH1 0x2 SWAP1 DUP2 PUSH3 0x9F SWAP2 SWAP1 PUSH3 0x61E JUMP JUMPDEST POP DUP2 PUSH1 0x3 SWAP1 DUP2 PUSH3 0xB1 SWAP2 SWAP1 PUSH3 0x61E JUMP JUMPDEST POP DUP1 PUSH1 0x80 DUP2 DUP2 MSTORE POP POP POP POP POP POP POP PUSH3 0x705 JUMP JUMPDEST PUSH1 0x0 PUSH1 0x40 MLOAD SWAP1 POP SWAP1 JUMP JUMPDEST PUSH1 0x0 DUP1 REVERT JUMPDEST PUSH1 0x0 DUP1 REVERT JUMPDEST PUSH1 0x0 DUP1 REVERT JUMPDEST PUSH1 0x0 DUP1 REVERT JUMPDEST PUSH1 0x0 PUSH1 0x1F NOT PUSH1 0x1F DUP4 ADD AND SWAP1 POP SWAP2 SWAP1 POP JUMP JUMPDEST PUSH32 0x4E487B7100000000000000000000000000000000000000000000000000000000 PUSH1 0x0 MSTORE PUSH1 0x41 PUSH1 0x4 MSTORE PUSH1 0x24 PUSH1 0x0 REVERT JUMPDEST PUSH3 0x12E DUP3 PUSH3 0xE3 JUMP JUMPDEST DUP2 ADD DUP2 DUP2 LT PUSH8 0xFFFFFFFFFFFFFFFF DUP3 GT OR ISZERO PUSH3 0x150 JUMPI PUSH3 0x14F PUSH3 0xF4 JUMP JUMPDEST JUMPDEST DUP1 PUSH1 0x40 MSTORE POP POP POP JUMP JUMPDEST PUSH1 0x0 PUSH3 0x165 PUSH3 0xC5 JUMP JUMPDEST SWAP1 POP PUSH3 0x173 DUP3 DUP3 PUSH3 0x123 JUMP JUMPDEST SWAP2 SWAP1 POP JUMP JUMPDEST PUSH1 0x0 PUSH8 0xFFFFFFFFFFFFFFFF DUP3 GT ISZERO PUSH3 0x196 JUMPI PUSH3 0x195 PUSH3 0xF4 JUMP JUMPDEST JUMPDEST PUSH3 0x1A1 DUP3 PUSH3 0xE3 JUMP JUMPDEST SWAP1 POP PUSH1 0x20 DUP2 ADD SWAP1 POP SWAP2 SWAP1 POP JUMP JUMPDEST PUSH1 0x0 JUMPDEST DUP4 DUP2 LT ISZERO PUSH3 0x1CE JUMPI DUP1 DUP3 ADD MLOAD DUP2 DUP5 ADD MSTORE PUSH1 0x20 DUP2 ADD SWAP1 POP PUSH3 0x1B1 JUMP JUMPDEST PUSH1 0x0 DUP5 DUP5 ADD MSTORE POP POP POP POP JUMP JUMPDEST PUSH1 0x0 PUSH3 0x1F1 PUSH3 0x1EB DUP5 PUSH3 0x178 JUMP JUMPDEST PUSH3 0x159 JUMP JUMPDEST SWAP1 POP DUP3 DUP2 MSTORE PUSH1 0x20 DUP2 ADD DUP5 DUP5 DUP5 ADD GT ISZERO PUSH3 0x210 JUMPI PUSH3 0x20F PUSH3 0xDE JUMP JUMPDEST JUMPDEST PUSH3 0x21D DUP5 DUP3 DUP6 PUSH3 0x1AE JUMP JUMPDEST POP SWAP4 SWAP3 POP POP POP JUMP JUMPDEST PUSH1 0x0 DUP3 PUSH1 0x1F DUP4 ADD SLT PUSH3 0x23D JUMPI PUSH3 0x23C PUSH3 0xD9 JUMP JUMPDEST JUMPDEST DUP2 MLOAD PUSH3 0x24F DUP5 DUP3 PUSH1 0x20 DUP7 ADD PUSH3 0x1DA JUMP JUMPDEST SWAP2 POP POP SWAP3 SWAP2 POP POP JUMP JUMPDEST PUSH1 0x0 PUSH20 0xFFFFFFFFFFFFFFFFFFFFFFFFFFFFFFFFFFFFFFFF DUP3 AND SWAP1 POP SWAP2 SWAP1 POP JUMP JUMPDEST PUSH1 0x0 PUSH3 0x285 DUP3 PUSH3 0x258 JUMP JUMPDEST SWAP1 POP SWAP2 SWAP1 POP JUMP JUMPDEST PUSH3 0x297 DUP2 PUSH3 0x278 JUMP JUMPDEST DUP2 EQ PUSH3 0x2A3 JUMPI PUSH1 0x0 DUP1 REVERT JUMPDEST POP JUMP JUMPDEST PUSH1 0x0 DUP2 MLOAD SWAP1 POP PUSH3 0x2B7 DUP2 PUSH3 0x28C JUMP JUMPDEST SWAP3 SWAP2 POP POP JUMP JUMPDEST PUSH1 0x0 DUP2 SWAP1 POP SWAP2 SWAP1 POP JUMP JUMPDEST PUSH3 0x2D2 DUP2 PUSH3 0x2BD JUMP JUMPDEST DUP2 EQ PUSH3 0x2DE JUMPI PUSH1 0x0 DUP1 REVERT JUMPDEST POP JUMP JUMPDEST PUSH1 0x0 DUP2 MLOAD SWAP1 POP PUSH3 0x2F2 DUP2 PUSH3 0x2C7 JUMP JUMPDEST SWAP3 SWAP2 POP POP JUMP JUMPDEST PUSH1 0x0 DUP1 PUSH1 0x0 DUP1 PUSH1 0x0 PUSH1 0xA0 DUP7 DUP9 SUB SLT ISZERO PUSH3 0x317 JUMPI PUSH3 0x316 PUSH3 0xCF JUMP JUMPDEST JUMPDEST PUSH1 0x0 DUP7 ADD MLOAD PUSH8 0xFFFFFFFFFFFFFFFF DUP2 GT ISZERO PUSH3 0x338 JUMPI PUSH3 0x337 PUSH3 0xD4 JUMP JUMPDEST JUMPDEST PUSH3 0x346 DUP9 DUP3 DUP10 ADD PUSH3 0x225 JUMP JUMPDEST SWAP6 POP POP PUSH1 0x20 PUSH3 0x359 DUP9 DUP3 DUP10 ADD PUSH3 0x2A6 JUMP JUMPDEST SWAP5 POP POP PUSH1 0x40 DUP7 ADD MLOAD PUSH8 0xFFFFFFFFFFFFFFFF DUP2 GT ISZERO PUSH3 0x37D JUMPI PUSH3 0x37C PUSH3 0xD4 JUMP JUMPDEST JUMPDEST PUSH3 0x38B DUP9 DUP3 DUP10 ADD PUSH3 0x225 JUMP JUMPDEST SWAP4 POP POP PUSH1 0x60 DUP7 ADD MLOAD PUSH8 0xFFFFFFFFFFFFFFFF DUP2 GT ISZERO PUSH3 0x3AF JUMPI PUSH3 0x3AE PUSH3 0xD4 JUMP JUMPDEST JUMPDEST PUSH3 0x3BD DUP9 DUP3 DUP10 ADD PUSH3 0x225 JUMP JUMPDEST SWAP3 POP POP PUSH1 0x80 PUSH3 0x3D0 DUP9 DUP3 DUP10 ADD PUSH3 0x2E1 JUMP JUMPDEST SWAP2 POP POP SWAP3 SWAP6 POP SWAP3 SWAP6 SWAP1 SWAP4 POP JUMP JUMPDEST PUSH1 0x0 DUP2 MLOAD SWAP1 POP SWAP2 SWAP1 POP JUMP JUMPDEST PUSH32 0x4E487B7100000000000000000000000000000000000000000000000000000000 PUSH1 0x0 MSTORE PUSH1 0x22 PUSH1 0x4 MSTORE PUSH1 0x24 PUSH1 0x0 REVERT JUMPDEST PUSH1 0x0 PUSH1 0x2 DUP3 DIV SWAP1 POP PUSH1 0x1 DUP3 AND DUP1 PUSH3 0x430 JUMPI PUSH1 0x7F DUP3 AND SWAP2 POP JUMPDEST PUSH1 0x20 DUP3 LT DUP2 SUB PUSH3 0x446 JUMPI PUSH3 0x445 PUSH3 0x3E8 JUMP JUMPDEST JUMPDEST POP SWAP2 SWAP1 POP JUMP JUMPDEST PUSH1 0x0 DUP2 SWAP1 POP DUP2 PUSH1 0x0 MSTORE PUSH1 0x20 PUSH1 0x0 KECCAK256 SWAP1 POP SWAP2 SWAP1 POP JUMP JUMPDEST PUSH1 0x0 PUSH1 0x20 PUSH1 0x1F DUP4 ADD DIV SWAP1 POP SWAP2 SWAP1 POP JUMP JUMPDEST PUSH1 0x0 DUP3 DUP3 SHL SWAP1 POP SWAP3 SWAP2 POP POP JUMP JUMPDEST PUSH1 0x0 PUSH1 0x8 DUP4 MUL PUSH3 0x4B0 PUSH32 0xFFFFFFFFFFFFFFFFFFFFFFFFFFFFFFFFFFFFFFFFFFFFFFFFFFFFFFFFFFFFFFFF DUP3 PUSH3 0x471 JUMP JUMPDEST PUSH3 0x4BC DUP7 DUP4 PUSH3 0x471 JUMP JUMPDEST SWAP6 POP DUP1 NOT DUP5 AND SWAP4 POP DUP1 DUP7 AND DUP5 OR SWAP3 POP POP POP SWAP4 SWAP3 POP POP POP JUMP JUMPDEST PUSH1 0x0 DUP2 SWAP1 POP SWAP2 SWAP1 POP JUMP JUMPDEST PUSH1 0x0 PUSH3 0x4FF PUSH3 0x4F9 PUSH3 0x4F3 DUP5 PUSH3 0x2BD JUMP JUMPDEST PUSH3 0x4D4 JUMP JUMPDEST PUSH3 0x2BD JUMP JUMPDEST SWAP1 POP SWAP2 SWAP1 POP JUMP JUMPDEST PUSH1 0x0 DUP2 SWAP1 POP SWAP2 SWAP1 POP JUMP JUMPDEST PUSH3 0x51B DUP4 PUSH3 0x4DE JUMP JUMPDEST PUSH3 0x533 PUSH3 0x52A DUP3 PUSH3 0x506 JUMP JUMPDEST DUP5 DUP5 SLOAD PUSH3 0x47E JUMP JUMPDEST DUP3 SSTORE POP POP POP POP JUMP JUMPDEST PUSH1 0x0 SWAP1 JUMP JUMPDEST PUSH3 0x54A PUSH3 0x53B JUMP JUMPDEST PUSH3 0x557 DUP2 DUP5 DUP5 PUSH3 0x510 JUMP JUMPDEST POP POP POP JUMP JUMPDEST JUMPDEST DUP2 DUP2 LT ISZERO PUSH3 0x57F JUMPI PUSH3 0x573 PUSH1 0x0 DUP3 PUSH3 0x540 JUMP JUMPDEST PUSH1 0x1 DUP2 ADD SWAP1 POP PUSH3 0x55D JUMP JUMPDEST POP POP JUMP JUMPDEST PUSH1 0x1F DUP3 GT ISZERO PUSH3 0x5CE JUMPI PUSH3 0x598 DUP2 PUSH3 0x44C JUMP JUMPDEST PUSH3 0x5A3 DUP5 PUSH3 0x461 JUMP JUMPDEST DUP2 ADD PUSH1 0x20 DUP6 LT ISZERO PUSH3 0x5B3 JUMPI DUP2 SWAP1 POP JUMPDEST PUSH3 0x5CB PUSH3 0x5C2 DUP6 PUSH3 0x461 JUMP JUMPDEST DUP4 ADD DUP3 PUSH3 0x55C JUMP JUMPDEST POP POP JUMPDEST POP POP POP JUMP JUMPDEST PUSH1 0x0 DUP3 DUP3 SHR SWAP1 POP SWAP3 SWAP2 POP POP JUMP JUMPDEST PUSH1 0x0 PUSH3 0x5F3 PUSH1 0x0 NOT DUP5 PUSH1 0x8 MUL PUSH3 0x5D3 JUMP JUMPDEST NOT DUP1 DUP4 AND SWAP2 POP POP SWAP3 SWAP2 POP POP JUMP JUMPDEST PUSH1 0x0 PUSH3 0x60E DUP4 DUP4 PUSH3 0x5E0 JUMP JUMPDEST SWAP2 POP DUP3 PUSH1 0x2 MUL DUP3 OR SWAP1 POP SWAP3 SWAP2 POP POP JUMP JUMPDEST PUSH3 0x629 DUP3 PUSH3 0x3DD JUMP JUMPDEST PUSH8 0xFFFFFFFFFFFFFFFF DUP2 GT ISZERO PUSH3 0x645 JUMPI PUSH3 0x644 PUSH3 0xF4 JUMP JUMPDEST JUMPDEST PUSH3 0x651 DUP3 SLOAD PUSH3 0x417 JUMP JUMPDEST PUSH3 0x65E DUP3 DUP3 DUP6 PUSH3 0x583 JUMP JUMPDEST PUSH1 0x0 PUSH1 0x20 SWAP1 POP PUSH1 0x1F DUP4 GT PUSH1 0x1 DUP2 EQ PUSH3 0x696 JUMPI PUSH1 0x0 DUP5 ISZERO PUSH3 0x681 JUMPI DUP3 DUP8 ADD MLOAD SWAP1 POP JUMPDEST PUSH3 0x68D DUP6 DUP3 PUSH3 0x600 JUMP JUMPDEST DUP7 SSTORE POP PUSH3 0x6FD JUMP JUMPDEST PUSH1 0x1F NOT DUP5 AND PUSH3 0x6A6 DUP7 PUSH3 0x44C JUMP JUMPDEST PUSH1 0x0 JUMPDEST DUP3 DUP2 LT ISZERO PUSH3 0x6D0 JUMPI DUP5 DUP10 ADD MLOAD DUP3 SSTORE PUSH1 0x1 DUP3 ADD SWAP2 POP PUSH1 0x20 DUP6 ADD SWAP5 POP PUSH1 0x20 DUP2 ADD SWAP1 POP PUSH3 0x6A9 JUMP JUMPDEST DUP7 DUP4 LT ISZERO PUSH3 0x6F0 JUMPI DUP5 DUP10 ADD MLOAD PUSH3 0x6EC PUSH1 0x1F DUP10 AND DUP3 PUSH3 0x5E0 JUMP JUMPDEST DUP4 SSTORE POP JUMPDEST PUSH1 0x1 PUSH1 0x2 DUP9 MUL ADD DUP9 SSTORE POP POP POP JUMPDEST POP POP POP POP POP POP JUMP JUMPDEST PUSH1 0x80 MLOAD PUSH2 0x514 PUSH3 0x721 PUSH1 0x0 CODECOPY PUSH1 0x0 PUSH2 0x178 ADD MSTORE PUSH2 0x514 PUSH1 0x0 RETURN INVALID PUSH1 0x80 PUSH1 0x40 MSTORE PUSH1 0x4 CALLDATASIZE LT PUSH2 0x43 JUMPI PUSH1 0x0 CALLDATALOAD PUSH1 0xE0 SHR DUP1 PUSH4 0x38CC4831 EQ PUSH2 0xC2 JUMPI DUP1 PUSH4 0x58B08D2E EQ PUSH2 0xED JUMPI DUP1 PUSH4 0x835FC6CA EQ PUSH2 0x118 JUMPI DUP1 PUSH4 0xB93CDB7B EQ PUSH2 0x141 JUMPI PUSH2 0x85 JUMP JUMPDEST CALLDATASIZE PUSH2 0x85 JUMPI PUSH32 0x2D27851832FCAC28A0D4AF1344F01FED7FFCFD15171C14C564A0C42AA57AE5C0 CALLVALUE ADDRESS SELFBALANCE PUSH1 0x40 MLOAD PUSH2 0x7B SWAP4 SWAP3 SWAP2 SWAP1 PUSH2 0x30C JUMP JUMPDEST PUSH1 0x40 MLOAD DUP1 SWAP2 SUB SWAP1 LOG1 STOP JUMPDEST PUSH32 0x2D27851832FCAC28A0D4AF1344F01FED7FFCFD15171C14C564A0C42AA57AE5C0 CALLVALUE ADDRESS SELFBALANCE PUSH1 0x40 MLOAD PUSH2 0xB8 SWAP4 SWAP3 SWAP2 SWAP1 PUSH2 0x30C JUMP JUMPDEST PUSH1 0x40 MLOAD DUP1 SWAP2 SUB SWAP1 LOG1 STOP JUMPDEST CALLVALUE DUP1 ISZERO PUSH2 0xCE JUMPI PUSH1 0x0 DUP1 REVERT JUMPDEST POP PUSH2 0xD7 PUSH2 0x16C JUMP JUMPDEST PUSH1 0x40 MLOAD PUSH2 0xE4 SWAP2 SWAP1 PUSH2 0x343 JUMP JUMPDEST PUSH1 0x40 MLOAD DUP1 SWAP2 SUB SWAP1 RETURN JUMPDEST CALLVALUE DUP1 ISZERO PUSH2 0xF9 JUMPI PUSH1 0x0 DUP1 REVERT JUMPDEST POP PUSH2 0x102 PUSH2 0x174 JUMP JUMPDEST PUSH1 0x40 MLOAD PUSH2 0x10F SWAP2 SWAP1 PUSH2 0x35E JUMP JUMPDEST PUSH1 0x40 MLOAD DUP1 SWAP2 SUB SWAP1 RETURN JUMPDEST CALLVALUE DUP1 ISZERO PUSH2 0x124 JUMPI PUSH1 0x0 DUP1 REVERT JUMPDEST POP PUSH2 0x13F PUSH1 0x4 DUP1 CALLDATASIZE SUB DUP2 ADD SWAP1 PUSH2 0x13A SWAP2 SWAP1 PUSH2 0x3AA JUMP JUMPDEST PUSH2 0x19C JUMP JUMPDEST STOP JUMPDEST CALLVALUE DUP1 ISZERO PUSH2 0x14D JUMPI PUSH1 0x0 DUP1 REVERT JUMPDEST POP PUSH2 0x156 PUSH2 0x2AA JUMP JUMPDEST PUSH1 0x40 MLOAD PUSH2 0x163 SWAP2 SWAP1 PUSH2 0x35E JUMP JUMPDEST PUSH1 0x40 MLOAD DUP1 SWAP2 SUB SWAP1 RETURN JUMPDEST PUSH1 0x0 ADDRESS SWAP1 POP SWAP1 JUMP JUMPDEST PUSH1 0x0 PUSH32 0x0 SWAP1 POP SWAP1 JUMP JUMPDEST DUP1 SELFBALANCE LT ISZERO PUSH2 0x1DF JUMPI PUSH1 0x40 MLOAD PUSH32 0x8C379A000000000000000000000000000000000000000000000000000000000 DUP2 MSTORE PUSH1 0x4 ADD PUSH2 0x1D6 SWAP1 PUSH2 0x434 JUMP JUMPDEST PUSH1 0x40 MLOAD DUP1 SWAP2 SUB SWAP1 REVERT JUMPDEST PUSH1 0x0 PUSH1 0x1 PUSH1 0x0 SWAP1 SLOAD SWAP1 PUSH2 0x100 EXP SWAP1 DIV PUSH20 0xFFFFFFFFFFFFFFFFFFFFFFFFFFFFFFFFFFFFFFFF AND PUSH20 0xFFFFFFFFFFFFFFFFFFFFFFFFFFFFFFFFFFFFFFFF AND DUP3 PUSH1 0x40 MLOAD PUSH2 0x227 SWAP1 PUSH2 0x485 JUMP JUMPDEST PUSH1 0x0 PUSH1 0x40 MLOAD DUP1 DUP4 SUB DUP2 DUP6 DUP8 GAS CALL SWAP3 POP POP POP RETURNDATASIZE DUP1 PUSH1 0x0 DUP2 EQ PUSH2 0x264 JUMPI PUSH1 0x40 MLOAD SWAP2 POP PUSH1 0x1F NOT PUSH1 0x3F RETURNDATASIZE ADD AND DUP3 ADD PUSH1 0x40 MSTORE RETURNDATASIZE DUP3 MSTORE RETURNDATASIZE PUSH1 0x0 PUSH1 0x20 DUP5 ADD RETURNDATACOPY PUSH2 0x269 JUMP JUMPDEST PUSH1 0x60 SWAP2 POP JUMPDEST POP POP SWAP1 POP PUSH32 0x8FBD42AA6B9175C731EFE57E141436F5BB85231B5A377E39F53F8301ADE4836A DUP2 SELFBALANCE PUSH1 0x40 MLOAD PUSH2 0x29E SWAP3 SWAP2 SWAP1 PUSH2 0x4B5 JUMP JUMPDEST PUSH1 0x40 MLOAD DUP1 SWAP2 SUB SWAP1 LOG1 POP POP JUMP JUMPDEST PUSH1 0x0 SELFBALANCE SWAP1 POP SWAP1 JUMP JUMPDEST PUSH1 0x0 DUP2 SWAP1 POP SWAP2 SWAP1 POP JUMP JUMPDEST PUSH2 0x2C5 DUP2 PUSH2 0x2B2 JUMP JUMPDEST DUP3 MSTORE POP POP JUMP JUMPDEST PUSH1 0x0 PUSH20 0xFFFFFFFFFFFFFFFFFFFFFFFFFFFFFFFFFFFFFFFF DUP3 AND SWAP1 POP SWAP2 SWAP1 POP JUMP JUMPDEST PUSH1 0x0 PUSH2 0x2F6 DUP3 PUSH2 0x2CB JUMP JUMPDEST SWAP1 POP SWAP2 SWAP1 POP JUMP JUMPDEST PUSH2 0x306 DUP2 PUSH2 0x2EB JUMP JUMPDEST DUP3 MSTORE POP POP JUMP JUMPDEST PUSH1 0x0 PUSH1 0x60 DUP3 ADD SWAP1 POP PUSH2 0x321 PUSH1 0x0 DUP4 ADD DUP7 PUSH2 0x2BC JUMP JUMPDEST PUSH2 0x32E PUSH1 0x20 DUP4 ADD DUP6 PUSH2 0x2FD JUMP JUMPDEST PUSH2 0x33B PUSH1 0x40 DUP4 ADD DUP5 PUSH2 0x2BC JUMP JUMPDEST SWAP5 SWAP4 POP POP POP POP JUMP JUMPDEST PUSH1 0x0 PUSH1 0x20 DUP3 ADD SWAP1 POP PUSH2 0x358 PUSH1 0x0 DUP4 ADD DUP5 PUSH2 0x2FD JUMP JUMPDEST SWAP3 SWAP2 POP POP JUMP JUMPDEST PUSH1 0x0 PUSH1 0x20 DUP3 ADD SWAP1 POP PUSH2 0x373 PUSH1 0x0 DUP4 ADD DUP5 PUSH2 0x2BC JUMP JUMPDEST SWAP3 SWAP2 POP POP JUMP JUMPDEST PUSH1 0x0 DUP1 REVERT JUMPDEST PUSH2 0x387 DUP2 PUSH2 0x2B2 JUMP JUMPDEST DUP2 EQ PUSH2 0x392 JUMPI PUSH1 0x0 DUP1 REVERT JUMPDEST POP JUMP JUMPDEST PUSH1 0x0 DUP2 CALLDATALOAD SWAP1 POP PUSH2 0x3A4 DUP2 PUSH2 0x37E JUMP JUMPDEST SWAP3 SWAP2 POP POP JUMP JUMPDEST PUSH1 0x0 PUSH1 0x20 DUP3 DUP5 SUB SLT ISZERO PUSH2 0x3C0 JUMPI PUSH2 0x3BF PUSH2 0x379 JUMP JUMPDEST JUMPDEST PUSH1 0x0 PUSH2 0x3CE DUP5 DUP3 DUP6 ADD PUSH2 0x395 JUMP JUMPDEST SWAP2 POP POP SWAP3 SWAP2 POP POP JUMP JUMPDEST PUSH1 0x0 DUP3 DUP3 MSTORE PUSH1 0x20 DUP3 ADD SWAP1 POP SWAP3 SWAP2 POP POP JUMP JUMPDEST PUSH32 0x466F6E646F7320696E737566696369656E746573000000000000000000000000 PUSH1 0x0 DUP3 ADD MSTORE POP JUMP JUMPDEST PUSH1 0x0 PUSH2 0x41E PUSH1 0x14 DUP4 PUSH2 0x3D7 JUMP JUMPDEST SWAP2 POP PUSH2 0x429 DUP3 PUSH2 0x3E8 JUMP JUMPDEST PUSH1 0x20 DUP3 ADD SWAP1 POP SWAP2 SWAP1 POP JUMP JUMPDEST PUSH1 0x0 PUSH1 0x20 DUP3 ADD SWAP1 POP DUP2 DUP2 SUB PUSH1 0x0 DUP4 ADD MSTORE PUSH2 0x44D DUP2 PUSH2 0x411 JUMP JUMPDEST SWAP1 POP SWAP2 SWAP1 POP JUMP JUMPDEST PUSH1 0x0 DUP2 SWAP1 POP SWAP3 SWAP2 POP POP JUMP JUMPDEST POP JUMP JUMPDEST PUSH1 0x0 PUSH2 0x46F PUSH1 0x0 DUP4 PUSH2 0x454 JUMP JUMPDEST SWAP2 POP PUSH2 0x47A DUP3 PUSH2 0x45F JUMP JUMPDEST PUSH1 0x0 DUP3 ADD SWAP1 POP SWAP2 SWAP1 POP JUMP JUMPDEST PUSH1 0x0 PUSH2 0x490 DUP3 PUSH2 0x462 JUMP JUMPDEST SWAP2 POP DUP2 SWAP1 POP SWAP2 SWAP1 POP JUMP JUMPDEST PUSH1 0x0 DUP2 ISZERO ISZERO SWAP1 POP SWAP2 SWAP1 POP JUMP JUMPDEST PUSH2 0x4AF DUP2 PUSH2 0x49A JUMP JUMPDEST DUP3 MSTORE POP POP JUMP JUMPDEST PUSH1 0x0 PUSH1 0x40 DUP3 ADD SWAP1 POP PUSH2 0x4CA PUSH1 0x0 DUP4 ADD DUP6 PUSH2 0x4A6 JUMP JUMPDEST PUSH2 0x4D7 PUSH1 0x20 DUP4 ADD DUP5 PUSH2 0x2BC JUMP JUMPDEST SWAP4 SWAP3 POP POP POP JUMP INVALID LOG2 PUSH5 0x6970667358 0x22 SLT KECCAK256 DUP12 SSTORE DUP10 0xF9 MSIZE 0xA6 0xDC STATICCALL 0xF 0xBC PUSH12 0x1DF6DB50205E42948DC7C868 SHL BALANCE SUB 0xC8 NOT EQ 0xEF SSTORE PREVRANDAO PUSH5 0x736F6C6343 STOP ADDMOD SLT STOP CALLER LOG2 PUSH5 0x6970667358 0x22 SLT KECCAK256 DUP5 PUSH4 0x55CF541E 0xED SWAP5 0xB5 LOG3 SWAP13 SWAP6 0xE3 0xC6 0xB2 JUMPDEST JUMPI DUP16 PUSH3 0x82F1C 0xEB PUSH9 0x33AE0DD492E2CACB64 PUSH20 0x6F6C634300081200330000000000000000000000 "
		},
		"gasEstimates": {
			"creation": {
				"codeDepositCost": "3041800",
				"executionCost": "infinite",
				"totalCost": "infinite"
			},
			"external": {
				"": "197",
				"addNewEmployee(string,address,string,string,uint256)": "infinite",
				"addNewService(string,uint256)": "infinite",
				"addNewTenant(string,address,uint256,string,address)": "infinite",
				"depositEmployee()": "infinite",
				"depositTenant()": "infinite",
				"employeeArray()": "2503",
				"owner()": "2611",
				"payAllServices()": "infinite",
				"paySalaries()": "infinite",
				"payService(uint256)": "infinite",
				"renounceOwnership()": "30488",
				"showAddress()": "452",
				"tenantArray()": "2481",
				"tenantWithdrawal()": "infinite",
				"transferOwnership(address)": "30832",
				"transferToAddress(address,uint256)": "infinite"
			},
			"internal": {
				"getRandomAddress()": "23",
				"getTotalSalaries()": "2176"
			}
		},
		"methodIdentifiers": {
			"addNewEmployee(string,address,string,string,uint256)": "b8d76b03",
			"addNewService(string,uint256)": "72673e31",
			"addNewTenant(string,address,uint256,string,address)": "307ffa10",
			"depositEmployee()": "c2d2a83c",
			"depositTenant()": "2db3361b",
			"employeeArray()": "805d0de4",
			"owner()": "8da5cb5b",
			"payAllServices()": "ec3ab274",
			"paySalaries()": "42e36b3b",
			"payService(uint256)": "cd7d77c5",
			"renounceOwnership()": "715018a6",
			"showAddress()": "85ffebd7",
			"tenantArray()": "a968b2b8",
			"tenantWithdrawal()": "eb20f21a",
			"transferOwnership(address)": "f2fde38b",
			"transferToAddress(address,uint256)": "acef6037"
		}
	},
	"abi": [
		{
			"inputs": [],
			"stateMutability": "payable",
			"type": "constructor"
		},
		{
			"anonymous": false,
			"inputs": [
				{
					"indexed": true,
					"internalType": "address",
					"name": "previousOwner",
					"type": "address"
				},
				{
					"indexed": true,
					"internalType": "address",
					"name": "newOwner",
					"type": "address"
				}
			],
			"name": "OwnershipTransferred",
			"type": "event"
		},
		{
			"anonymous": false,
			"inputs": [],
			"name": "salariesPaid",
			"type": "event"
		},
		{
			"anonymous": false,
			"inputs": [
				{
					"indexed": false,
					"internalType": "string",
					"name": "serviceName",
					"type": "string"
				}
			],
			"name": "serviceCreated",
			"type": "event"
		},
		{
			"anonymous": false,
			"inputs": [
				{
					"indexed": false,
					"internalType": "string",
					"name": "serviceName",
					"type": "string"
				},
				{
					"indexed": false,
					"internalType": "uint256",
					"name": "servicePrice",
					"type": "uint256"
				}
			],
			"name": "servicePaid",
			"type": "event"
		},
		{
			"anonymous": false,
			"inputs": [
				{
					"indexed": false,
					"internalType": "uint256",
					"name": "pricePaid",
					"type": "uint256"
				}
			],
			"name": "servicesPaid",
			"type": "event"
		},
		{
			"anonymous": false,
			"inputs": [],
			"name": "servicesPaidSuccessfully",
			"type": "event"
		},
		{
			"stateMutability": "payable",
			"type": "fallback"
		},
		{
			"inputs": [
				{
					"internalType": "string",
					"name": "_name",
					"type": "string"
				},
				{
					"internalType": "address",
					"name": "_withdrawAddress",
					"type": "address"
				},
				{
					"internalType": "string",
					"name": "_profession",
					"type": "string"
				},
				{
					"internalType": "string",
					"name": "_schedule",
					"type": "string"
				},
				{
					"internalType": "uint256",
					"name": "salary",
					"type": "uint256"
				}
			],
			"name": "addNewEmployee",
			"outputs": [],
			"stateMutability": "nonpayable",
			"type": "function"
		},
		{
			"inputs": [
				{
					"internalType": "string",
					"name": "serviceName",
					"type": "string"
				},
				{
					"internalType": "uint256",
					"name": "servicePrice",
					"type": "uint256"
				}
			],
			"name": "addNewService",
			"outputs": [],
			"stateMutability": "nonpayable",
			"type": "function"
		},
		{
			"inputs": [
				{
					"internalType": "string",
					"name": "_name",
					"type": "string"
				},
				{
					"internalType": "address",
					"name": "_withdrawAddress",
					"type": "address"
				},
				{
					"internalType": "uint256",
					"name": "_servicePrice",
					"type": "uint256"
				},
				{
					"internalType": "string",
					"name": "_buildingAddress",
					"type": "string"
				},
				{
					"internalType": "address",
					"name": "_consorcioAddress",
					"type": "address"
				}
			],
			"name": "addNewTenant",
			"outputs": [],
			"stateMutability": "nonpayable",
			"type": "function"
		},
		{
			"inputs": [],
			"name": "depositEmployee",
			"outputs": [],
			"stateMutability": "payable",
			"type": "function"
		},
		{
			"inputs": [],
			"name": "depositTenant",
			"outputs": [],
			"stateMutability": "payable",
			"type": "function"
		},
		{
			"inputs": [],
			"name": "employeeArray",
			"outputs": [
				{
					"internalType": "uint256",
					"name": "",
					"type": "uint256"
				}
			],
			"stateMutability": "view",
			"type": "function"
		},
		{
			"inputs": [],
			"name": "owner",
			"outputs": [
				{
					"internalType": "address",
					"name": "",
					"type": "address"
				}
			],
			"stateMutability": "view",
			"type": "function"
		},
		{
			"inputs": [],
			"name": "payAllServices",
			"outputs": [],
			"stateMutability": "nonpayable",
			"type": "function"
		},
		{
			"inputs": [],
			"name": "paySalaries",
			"outputs": [],
			"stateMutability": "nonpayable",
			"type": "function"
		},
		{
			"inputs": [
				{
					"internalType": "uint256",
					"name": "index",
					"type": "uint256"
				}
			],
			"name": "payService",
			"outputs": [],
			"stateMutability": "nonpayable",
			"type": "function"
		},
		{
			"inputs": [],
			"name": "renounceOwnership",
			"outputs": [],
			"stateMutability": "nonpayable",
			"type": "function"
		},
		{
			"inputs": [],
			"name": "showAddress",
			"outputs": [
				{
					"internalType": "address",
					"name": "",
					"type": "address"
				}
			],
			"stateMutability": "view",
			"type": "function"
		},
		{
			"inputs": [],
			"name": "tenantArray",
			"outputs": [
				{
					"internalType": "uint256",
					"name": "",
					"type": "uint256"
				}
			],
			"stateMutability": "view",
			"type": "function"
		},
		{
			"inputs": [],
			"name": "tenantWithdrawal",
			"outputs": [],
			"stateMutability": "nonpayable",
			"type": "function"
		},
		{
			"inputs": [
				{
					"internalType": "address",
					"name": "newOwner",
					"type": "address"
				}
			],
			"name": "transferOwnership",
			"outputs": [],
			"stateMutability": "nonpayable",
			"type": "function"
		},
		{
			"inputs": [
				{
					"internalType": "address",
					"name": "toAddress",
					"type": "address"
				},
				{
					"internalType": "uint256",
					"name": "amount",
					"type": "uint256"
				}
			],
			"name": "transferToAddress",
			"outputs": [],
			"stateMutability": "nonpayable",
			"type": "function"
		},
		{
			"stateMutability": "payable",
			"type": "receive"
		}
	]
}