{
	"data": {
		"bytecode": {
			"linkReferences": {},
			"object": "608060405234801561001057600080fd5b506040516106ac3803806106ac83398181016040528101906100329190610283565b83838160009081610043919061055f565b5080600160006101000a81548173ffffffffffffffffffffffffffffffffffffffff021916908373ffffffffffffffffffffffffffffffffffffffff16021790555050508160029081610096919061055f565b5080600390816100a6919061055f565b5050505050610631565b6000604051905090565b600080fd5b600080fd5b600080fd5b600080fd5b6000601f19601f8301169050919050565b7f4e487b7100000000000000000000000000000000000000000000000000000000600052604160045260246000fd5b610117826100ce565b810181811067ffffffffffffffff82111715610136576101356100df565b5b80604052505050565b60006101496100b0565b9050610155828261010e565b919050565b600067ffffffffffffffff821115610175576101746100df565b5b61017e826100ce565b9050602081019050919050565b60005b838110156101a957808201518184015260208101905061018e565b60008484015250505050565b60006101c86101c38461015a565b61013f565b9050828152602081018484840111156101e4576101e36100c9565b5b6101ef84828561018b565b509392505050565b600082601f83011261020c5761020b6100c4565b5b815161021c8482602086016101b5565b91505092915050565b600073ffffffffffffffffffffffffffffffffffffffff82169050919050565b600061025082610225565b9050919050565b61026081610245565b811461026b57600080fd5b50565b60008151905061027d81610257565b92915050565b6000806000806080858703121561029d5761029c6100ba565b5b600085015167ffffffffffffffff8111156102bb576102ba6100bf565b5b6102c7878288016101f7565b94505060206102d88782880161026e565b935050604085015167ffffffffffffffff8111156102f9576102f86100bf565b5b610305878288016101f7565b925050606085015167ffffffffffffffff811115610326576103256100bf565b5b610332878288016101f7565b91505092959194509250565b600081519050919050565b7f4e487b7100000000000000000000000000000000000000000000000000000000600052602260045260246000fd5b6000600282049050600182168061039057607f821691505b6020821081036103a3576103a2610349565b5b50919050565b60008190508160005260206000209050919050565b60006020601f8301049050919050565b600082821b905092915050565b60006008830261040b7fffffffffffffffffffffffffffffffffffffffffffffffffffffffffffffffff826103ce565b61041586836103ce565b95508019841693508086168417925050509392505050565b6000819050919050565b6000819050919050565b600061045c6104576104528461042d565b610437565b61042d565b9050919050565b6000819050919050565b61047683610441565b61048a61048282610463565b8484546103db565b825550505050565b600090565b61049f610492565b6104aa81848461046d565b505050565b5b818110156104ce576104c3600082610497565b6001810190506104b0565b5050565b601f821115610513576104e4816103a9565b6104ed846103be565b810160208510156104fc578190505b610510610508856103be565b8301826104af565b50505b505050565b600082821c905092915050565b600061053660001984600802610518565b1980831691505092915050565b600061054f8383610525565b9150826002028217905092915050565b6105688261033e565b67ffffffffffffffff811115610581576105806100df565b5b61058b8254610378565b6105968282856104d2565b600060209050601f8311600181146105c957600084156105b7578287015190505b6105c18582610543565b865550610629565b601f1984166105d7866103a9565b60005b828110156105ff578489015182556001820191506020850194506020810190506105da565b8683101561061c5784890151610618601f891682610525565b8355505b6001600288020188555050505b505050505050565b606d8061063f6000396000f3fe6080604052348015600f57600080fd5b506004361060285760003560e01c8063853828b614602d575b600080fd5b60336035565b005b56fea26469706673582212204ceda235c173aa80dc158476abfd5dbaad199a8096f9d94bc9548d8cba0431f364736f6c63430008110033",
			"opcodes": "PUSH1 0x80 PUSH1 0x40 MSTORE CALLVALUE DUP1 ISZERO PUSH2 0x10 JUMPI PUSH1 0x0 DUP1 REVERT JUMPDEST POP PUSH1 0x40 MLOAD PUSH2 0x6AC CODESIZE SUB DUP1 PUSH2 0x6AC DUP4 CODECOPY DUP2 DUP2 ADD PUSH1 0x40 MSTORE DUP2 ADD SWAP1 PUSH2 0x32 SWAP2 SWAP1 PUSH2 0x283 JUMP JUMPDEST DUP4 DUP4 DUP2 PUSH1 0x0 SWAP1 DUP2 PUSH2 0x43 SWAP2 SWAP1 PUSH2 0x55F JUMP JUMPDEST POP DUP1 PUSH1 0x1 PUSH1 0x0 PUSH2 0x100 EXP DUP2 SLOAD DUP2 PUSH20 0xFFFFFFFFFFFFFFFFFFFFFFFFFFFFFFFFFFFFFFFF MUL NOT AND SWAP1 DUP4 PUSH20 0xFFFFFFFFFFFFFFFFFFFFFFFFFFFFFFFFFFFFFFFF AND MUL OR SWAP1 SSTORE POP POP POP DUP2 PUSH1 0x2 SWAP1 DUP2 PUSH2 0x96 SWAP2 SWAP1 PUSH2 0x55F JUMP JUMPDEST POP DUP1 PUSH1 0x3 SWAP1 DUP2 PUSH2 0xA6 SWAP2 SWAP1 PUSH2 0x55F JUMP JUMPDEST POP POP POP POP POP PUSH2 0x631 JUMP JUMPDEST PUSH1 0x0 PUSH1 0x40 MLOAD SWAP1 POP SWAP1 JUMP JUMPDEST PUSH1 0x0 DUP1 REVERT JUMPDEST PUSH1 0x0 DUP1 REVERT JUMPDEST PUSH1 0x0 DUP1 REVERT JUMPDEST PUSH1 0x0 DUP1 REVERT JUMPDEST PUSH1 0x0 PUSH1 0x1F NOT PUSH1 0x1F DUP4 ADD AND SWAP1 POP SWAP2 SWAP1 POP JUMP JUMPDEST PUSH32 0x4E487B7100000000000000000000000000000000000000000000000000000000 PUSH1 0x0 MSTORE PUSH1 0x41 PUSH1 0x4 MSTORE PUSH1 0x24 PUSH1 0x0 REVERT JUMPDEST PUSH2 0x117 DUP3 PUSH2 0xCE JUMP JUMPDEST DUP2 ADD DUP2 DUP2 LT PUSH8 0xFFFFFFFFFFFFFFFF DUP3 GT OR ISZERO PUSH2 0x136 JUMPI PUSH2 0x135 PUSH2 0xDF JUMP JUMPDEST JUMPDEST DUP1 PUSH1 0x40 MSTORE POP POP POP JUMP JUMPDEST PUSH1 0x0 PUSH2 0x149 PUSH2 0xB0 JUMP JUMPDEST SWAP1 POP PUSH2 0x155 DUP3 DUP3 PUSH2 0x10E JUMP JUMPDEST SWAP2 SWAP1 POP JUMP JUMPDEST PUSH1 0x0 PUSH8 0xFFFFFFFFFFFFFFFF DUP3 GT ISZERO PUSH2 0x175 JUMPI PUSH2 0x174 PUSH2 0xDF JUMP JUMPDEST JUMPDEST PUSH2 0x17E DUP3 PUSH2 0xCE JUMP JUMPDEST SWAP1 POP PUSH1 0x20 DUP2 ADD SWAP1 POP SWAP2 SWAP1 POP JUMP JUMPDEST PUSH1 0x0 JUMPDEST DUP4 DUP2 LT ISZERO PUSH2 0x1A9 JUMPI DUP1 DUP3 ADD MLOAD DUP2 DUP5 ADD MSTORE PUSH1 0x20 DUP2 ADD SWAP1 POP PUSH2 0x18E JUMP JUMPDEST PUSH1 0x0 DUP5 DUP5 ADD MSTORE POP POP POP POP JUMP JUMPDEST PUSH1 0x0 PUSH2 0x1C8 PUSH2 0x1C3 DUP5 PUSH2 0x15A JUMP JUMPDEST PUSH2 0x13F JUMP JUMPDEST SWAP1 POP DUP3 DUP2 MSTORE PUSH1 0x20 DUP2 ADD DUP5 DUP5 DUP5 ADD GT ISZERO PUSH2 0x1E4 JUMPI PUSH2 0x1E3 PUSH2 0xC9 JUMP JUMPDEST JUMPDEST PUSH2 0x1EF DUP5 DUP3 DUP6 PUSH2 0x18B JUMP JUMPDEST POP SWAP4 SWAP3 POP POP POP JUMP JUMPDEST PUSH1 0x0 DUP3 PUSH1 0x1F DUP4 ADD SLT PUSH2 0x20C JUMPI PUSH2 0x20B PUSH2 0xC4 JUMP JUMPDEST JUMPDEST DUP2 MLOAD PUSH2 0x21C DUP5 DUP3 PUSH1 0x20 DUP7 ADD PUSH2 0x1B5 JUMP JUMPDEST SWAP2 POP POP SWAP3 SWAP2 POP POP JUMP JUMPDEST PUSH1 0x0 PUSH20 0xFFFFFFFFFFFFFFFFFFFFFFFFFFFFFFFFFFFFFFFF DUP3 AND SWAP1 POP SWAP2 SWAP1 POP JUMP JUMPDEST PUSH1 0x0 PUSH2 0x250 DUP3 PUSH2 0x225 JUMP JUMPDEST SWAP1 POP SWAP2 SWAP1 POP JUMP JUMPDEST PUSH2 0x260 DUP2 PUSH2 0x245 JUMP JUMPDEST DUP2 EQ PUSH2 0x26B JUMPI PUSH1 0x0 DUP1 REVERT JUMPDEST POP JUMP JUMPDEST PUSH1 0x0 DUP2 MLOAD SWAP1 POP PUSH2 0x27D DUP2 PUSH2 0x257 JUMP JUMPDEST SWAP3 SWAP2 POP POP JUMP JUMPDEST PUSH1 0x0 DUP1 PUSH1 0x0 DUP1 PUSH1 0x80 DUP6 DUP8 SUB SLT ISZERO PUSH2 0x29D JUMPI PUSH2 0x29C PUSH2 0xBA JUMP JUMPDEST JUMPDEST PUSH1 0x0 DUP6 ADD MLOAD PUSH8 0xFFFFFFFFFFFFFFFF DUP2 GT ISZERO PUSH2 0x2BB JUMPI PUSH2 0x2BA PUSH2 0xBF JUMP JUMPDEST JUMPDEST PUSH2 0x2C7 DUP8 DUP3 DUP9 ADD PUSH2 0x1F7 JUMP JUMPDEST SWAP5 POP POP PUSH1 0x20 PUSH2 0x2D8 DUP8 DUP3 DUP9 ADD PUSH2 0x26E JUMP JUMPDEST SWAP4 POP POP PUSH1 0x40 DUP6 ADD MLOAD PUSH8 0xFFFFFFFFFFFFFFFF DUP2 GT ISZERO PUSH2 0x2F9 JUMPI PUSH2 0x2F8 PUSH2 0xBF JUMP JUMPDEST JUMPDEST PUSH2 0x305 DUP8 DUP3 DUP9 ADD PUSH2 0x1F7 JUMP JUMPDEST SWAP3 POP POP PUSH1 0x60 DUP6 ADD MLOAD PUSH8 0xFFFFFFFFFFFFFFFF DUP2 GT ISZERO PUSH2 0x326 JUMPI PUSH2 0x325 PUSH2 0xBF JUMP JUMPDEST JUMPDEST PUSH2 0x332 DUP8 DUP3 DUP9 ADD PUSH2 0x1F7 JUMP JUMPDEST SWAP2 POP POP SWAP3 SWAP6 SWAP2 SWAP5 POP SWAP3 POP JUMP JUMPDEST PUSH1 0x0 DUP2 MLOAD SWAP1 POP SWAP2 SWAP1 POP JUMP JUMPDEST PUSH32 0x4E487B7100000000000000000000000000000000000000000000000000000000 PUSH1 0x0 MSTORE PUSH1 0x22 PUSH1 0x4 MSTORE PUSH1 0x24 PUSH1 0x0 REVERT JUMPDEST PUSH1 0x0 PUSH1 0x2 DUP3 DIV SWAP1 POP PUSH1 0x1 DUP3 AND DUP1 PUSH2 0x390 JUMPI PUSH1 0x7F DUP3 AND SWAP2 POP JUMPDEST PUSH1 0x20 DUP3 LT DUP2 SUB PUSH2 0x3A3 JUMPI PUSH2 0x3A2 PUSH2 0x349 JUMP JUMPDEST JUMPDEST POP SWAP2 SWAP1 POP JUMP JUMPDEST PUSH1 0x0 DUP2 SWAP1 POP DUP2 PUSH1 0x0 MSTORE PUSH1 0x20 PUSH1 0x0 KECCAK256 SWAP1 POP SWAP2 SWAP1 POP JUMP JUMPDEST PUSH1 0x0 PUSH1 0x20 PUSH1 0x1F DUP4 ADD DIV SWAP1 POP SWAP2 SWAP1 POP JUMP JUMPDEST PUSH1 0x0 DUP3 DUP3 SHL SWAP1 POP SWAP3 SWAP2 POP POP JUMP JUMPDEST PUSH1 0x0 PUSH1 0x8 DUP4 MUL PUSH2 0x40B PUSH32 0xFFFFFFFFFFFFFFFFFFFFFFFFFFFFFFFFFFFFFFFFFFFFFFFFFFFFFFFFFFFFFFFF DUP3 PUSH2 0x3CE JUMP JUMPDEST PUSH2 0x415 DUP7 DUP4 PUSH2 0x3CE JUMP JUMPDEST SWAP6 POP DUP1 NOT DUP5 AND SWAP4 POP DUP1 DUP7 AND DUP5 OR SWAP3 POP POP POP SWAP4 SWAP3 POP POP POP JUMP JUMPDEST PUSH1 0x0 DUP2 SWAP1 POP SWAP2 SWAP1 POP JUMP JUMPDEST PUSH1 0x0 DUP2 SWAP1 POP SWAP2 SWAP1 POP JUMP JUMPDEST PUSH1 0x0 PUSH2 0x45C PUSH2 0x457 PUSH2 0x452 DUP5 PUSH2 0x42D JUMP JUMPDEST PUSH2 0x437 JUMP JUMPDEST PUSH2 0x42D JUMP JUMPDEST SWAP1 POP SWAP2 SWAP1 POP JUMP JUMPDEST PUSH1 0x0 DUP2 SWAP1 POP SWAP2 SWAP1 POP JUMP JUMPDEST PUSH2 0x476 DUP4 PUSH2 0x441 JUMP JUMPDEST PUSH2 0x48A PUSH2 0x482 DUP3 PUSH2 0x463 JUMP JUMPDEST DUP5 DUP5 SLOAD PUSH2 0x3DB JUMP JUMPDEST DUP3 SSTORE POP POP POP POP JUMP JUMPDEST PUSH1 0x0 SWAP1 JUMP JUMPDEST PUSH2 0x49F PUSH2 0x492 JUMP JUMPDEST PUSH2 0x4AA DUP2 DUP5 DUP5 PUSH2 0x46D JUMP JUMPDEST POP POP POP JUMP JUMPDEST JUMPDEST DUP2 DUP2 LT ISZERO PUSH2 0x4CE JUMPI PUSH2 0x4C3 PUSH1 0x0 DUP3 PUSH2 0x497 JUMP JUMPDEST PUSH1 0x1 DUP2 ADD SWAP1 POP PUSH2 0x4B0 JUMP JUMPDEST POP POP JUMP JUMPDEST PUSH1 0x1F DUP3 GT ISZERO PUSH2 0x513 JUMPI PUSH2 0x4E4 DUP2 PUSH2 0x3A9 JUMP JUMPDEST PUSH2 0x4ED DUP5 PUSH2 0x3BE JUMP JUMPDEST DUP2 ADD PUSH1 0x20 DUP6 LT ISZERO PUSH2 0x4FC JUMPI DUP2 SWAP1 POP JUMPDEST PUSH2 0x510 PUSH2 0x508 DUP6 PUSH2 0x3BE JUMP JUMPDEST DUP4 ADD DUP3 PUSH2 0x4AF JUMP JUMPDEST POP POP JUMPDEST POP POP POP JUMP JUMPDEST PUSH1 0x0 DUP3 DUP3 SHR SWAP1 POP SWAP3 SWAP2 POP POP JUMP JUMPDEST PUSH1 0x0 PUSH2 0x536 PUSH1 0x0 NOT DUP5 PUSH1 0x8 MUL PUSH2 0x518 JUMP JUMPDEST NOT DUP1 DUP4 AND SWAP2 POP POP SWAP3 SWAP2 POP POP JUMP JUMPDEST PUSH1 0x0 PUSH2 0x54F DUP4 DUP4 PUSH2 0x525 JUMP JUMPDEST SWAP2 POP DUP3 PUSH1 0x2 MUL DUP3 OR SWAP1 POP SWAP3 SWAP2 POP POP JUMP JUMPDEST PUSH2 0x568 DUP3 PUSH2 0x33E JUMP JUMPDEST PUSH8 0xFFFFFFFFFFFFFFFF DUP2 GT ISZERO PUSH2 0x581 JUMPI PUSH2 0x580 PUSH2 0xDF JUMP JUMPDEST JUMPDEST PUSH2 0x58B DUP3 SLOAD PUSH2 0x378 JUMP JUMPDEST PUSH2 0x596 DUP3 DUP3 DUP6 PUSH2 0x4D2 JUMP JUMPDEST PUSH1 0x0 PUSH1 0x20 SWAP1 POP PUSH1 0x1F DUP4 GT PUSH1 0x1 DUP2 EQ PUSH2 0x5C9 JUMPI PUSH1 0x0 DUP5 ISZERO PUSH2 0x5B7 JUMPI DUP3 DUP8 ADD MLOAD SWAP1 POP JUMPDEST PUSH2 0x5C1 DUP6 DUP3 PUSH2 0x543 JUMP JUMPDEST DUP7 SSTORE POP PUSH2 0x629 JUMP JUMPDEST PUSH1 0x1F NOT DUP5 AND PUSH2 0x5D7 DUP7 PUSH2 0x3A9 JUMP JUMPDEST PUSH1 0x0 JUMPDEST DUP3 DUP2 LT ISZERO PUSH2 0x5FF JUMPI DUP5 DUP10 ADD MLOAD DUP3 SSTORE PUSH1 0x1 DUP3 ADD SWAP2 POP PUSH1 0x20 DUP6 ADD SWAP5 POP PUSH1 0x20 DUP2 ADD SWAP1 POP PUSH2 0x5DA JUMP JUMPDEST DUP7 DUP4 LT ISZERO PUSH2 0x61C JUMPI DUP5 DUP10 ADD MLOAD PUSH2 0x618 PUSH1 0x1F DUP10 AND DUP3 PUSH2 0x525 JUMP JUMPDEST DUP4 SSTORE POP JUMPDEST PUSH1 0x1 PUSH1 0x2 DUP9 MUL ADD DUP9 SSTORE POP POP POP JUMPDEST POP POP POP POP POP POP JUMP JUMPDEST PUSH1 0x6D DUP1 PUSH2 0x63F PUSH1 0x0 CODECOPY PUSH1 0x0 RETURN INVALID PUSH1 0x80 PUSH1 0x40 MSTORE CALLVALUE DUP1 ISZERO PUSH1 0xF JUMPI PUSH1 0x0 DUP1 REVERT JUMPDEST POP PUSH1 0x4 CALLDATASIZE LT PUSH1 0x28 JUMPI PUSH1 0x0 CALLDATALOAD PUSH1 0xE0 SHR DUP1 PUSH4 0x853828B6 EQ PUSH1 0x2D JUMPI JUMPDEST PUSH1 0x0 DUP1 REVERT JUMPDEST PUSH1 0x33 PUSH1 0x35 JUMP JUMPDEST STOP JUMPDEST JUMP INVALID LOG2 PUSH5 0x6970667358 0x22 SLT KECCAK256 0x4C 0xED LOG2 CALLDATALOAD 0xC1 PUSH20 0xAA80DC158476ABFD5DBAAD199A8096F9D94BC954 DUP14 DUP13 0xBA DIV BALANCE RETURN PUSH5 0x736F6C6343 STOP ADDMOD GT STOP CALLER "
		},
		"gasEstimates": {
			"creation": {
				"codeDepositCost": "21800",
				"executionCost": "infinite",
				"totalCost": "infinite"
			},
			"external": {
				"withdrawAll()": "122"
			}
		},
		"methodIdentifiers": {
			"withdrawAll()": "853828b6"
		}
	},
	"abi": [
		{
			"inputs": [
				{
					"internalType": "string",
					"name": "newName",
					"type": "string"
				},
				{
					"internalType": "address",
					"name": "newAddress",
					"type": "address"
				},
				{
					"internalType": "string",
					"name": "newJob",
					"type": "string"
				},
				{
					"internalType": "string",
					"name": "newSchedule",
					"type": "string"
				}
			],
			"stateMutability": "nonpayable",
			"type": "constructor"
		},
		{
			"inputs": [],
			"name": "withdrawAll",
			"outputs": [],
			"stateMutability": "nonpayable",
			"type": "function"
		}
	]
}